:020000040800F2
:10000000784C0020210200084D1F0008471D000801
:10001000491F00088B03000861240008000000004D
:10002000000000000000000000000000890100083E
:10003000A103000800000000CD010008C91F00084E
:100040003B0200083B0200083B0200083B0200089C
:100050003B0200083B0200083B0200083B0200088C
:100060003B0200083B0200083B0200089103000825
:100070003B0200083B0200083B0200083B0200086C
:100080003B0200083B0200083B0200083B0200085C
:100090003B0200083B0200083B0200083B0200084C
:1000A0003B0200083B0200083B0200083B0200083C
:1000B000652000083B0200083B0200083B020008E4
:1000C0003B0200083B0200083B0200083B0200081C
:1000D0003B020008412400083B02000851240008AC
:1000E000A30300083B0200083B02000800F002F8EE
:1000F00000F03AF80AA090E8000C82448344AAF188
:100100000107DA4501D100F02FF8AFF2090EBAE885
:100110000F0013F0010F18BFFB1A43F0010318473B
:10012000C4340000E4340000103A24BF78C878C119
:10013000FAD8520724BF30C830C144BF04680C60ED
:10014000704700000023002400250026103A28BF35
:1001500078C1FBD8520728BF30C148BF0B60704739
:100160001FB51FBD10B510BD00F0D6F81146FFF742
:10017000F7FF02F093F900F0F4F803B4FFF7F2FF91
:1001800003BC00F0FBF80000224B19680868B0E8D7
:10019000F00F80F30988BFF36F8F4FF0000080F3FA
:1001A00011884EF00D0E70470000000006480068F0
:1001B000006880F3088862B661B6BFF34F8FBFF363
:1001C0006F8F00DF00BF00BF08ED00E0EFF3098094
:1001D000BFF36F8F0F4B1A6820E9F00F106008B55E
:1001E0004FF0500080F31188BFF34F8FBFF36F8F34
:1001F00002F0BAFE4FF0000080F31188BDE808401D
:1002000019680868B0E8F00F80F30988BFF36F8FB2
:10021000704700BF20000020EFF30580704700000A
:100220000948804709480047FEE7FEE7FEE7FEE78A
:10023000FEE7FEE7FEE7FEE7FEE7FEE704480549C6
:10024000054A064B7047000061200008ED000008D9
:1002500078460020784C002078480020784800201C
:1002600010B5203AC0F00B80B1E81850203AA0E851
:100270001850B1E81850A0E81850BFF4F5AF5FEA85
:10028000027C24BFB1E81850A0E8185044BF18C938
:1002900018C0BDE810405FEA827C24BF51F8043BDF
:1002A00040F8043B08BF7047D20728BF31F8023B33
:1002B00048BF11F8012B28BF20F8023B48BF00F8C7
:1002C000012B70474FF0000200B513469446964646
:1002D000203922BFA0E80C50A0E80C50B1F1200159
:1002E000BFF4F7AF090728BFA0E80C5048BF0CC007
:1002F0005DF804EB890028BF40F8042B08BF704765
:1003000048BF20F8022B11F0804F18BF00F8012BD6
:100310007047704770477047754600F02BF8AE463F
:1003200005006946534620F00700854618B020B501
:10033000FFF784FFBDE820404FF000064FF00007B4
:100340004FF000084FF0000B21F00701AC46ACE87D
:10035000C009ACE8C009ACE8C009ACE8C0098D46EA
:10036000704710B50446AFF300802046BDE810404A
:10037000FFF703BF004870471846002001491820C6
:10038000ABBEFEE726000200704700BFFEE700009C
:1003900010B5024800F0C2F910BD0000CC000020EA
:1003A000704710B54FF4805000F088FA4FF40050B9
:1003B00000F084FA4FF4804000F080FA10BD72B66D
:1003C00000BFFEE70020094981F84004A1F842047B
:1003D00081F8440481F8450481F8460481F8470413
:1003E000A1F84804A1F84A0470470000C841002061
:1003F0000120064981F8F0030121044880F8F11337
:1004000080F8F21380F8F31370470000C841002011
:1004100010B51C4890F80D0408B31B480078C8B903
:10042000002412E001225102184800F0EDFBC82020
:1004300002F08FF800224FF40071144800F0E4FB42
:10044000C82002F086F8601CC4B2022CEADB01204E
:100450000D49087000210B4880F80D1411E002F0DE
:100460002FFF0849D1F81014401AB0F57A7F08D34D
:10047000012207490748006801F0F4FB0020024907
:10048000087010BDC841002088000020000C014009
:10049000C44500208400002010B504460D480460C7
:1004A00024210D48FFF70EFFFF210C4880F81C1493
:1004B00080F8181480F8191480F81A1480F81614AB
:1004C00080F81714012204490248006801F0CAFBB1
:1004D00010BD000084000020C4450020C841002059
:1004E00010B500F005F8FFF76DFFFFF781FF10BDB5
:1004F00000204649086018E000204549434A126838
:10050000885400214248D230404A12688154D23087
:100510003E4A1268815400F5A9703C4A1268815421
:100520003A480068401C394908603848006840284B
:10053000E2DB00203549086026E000213448C03065
:10054000324A12688154001D304A12688154CE30FC
:100550002E4A12688154001D2C4A12688154CE30F4
:100560002A4A12688154001D284A12688154CE30EC
:10057000264A12688154001D244A12688154234877
:100580000068401C21490860204800680428D4DB2A
:1005900000201F49A1F8C80000211D48A0F89A11A9
:1005A000A0F86C12A0F83E1300201949A1F8CA0067
:1005B00000211748A0F89C11A0F86E12A0F8401373
:1005C00000201349A1F8CC0000211148A0F89E1189
:1005D000A0F87012A0F8421300200D49A1F8CE0037
:1005E00000210B48A0F8A011A0F87212A0F8441343
:1005F00000200749A1F8D00000210548A0F8A21169
:10060000A0F87412A0F84613704700009400002070
:10061000C84100200146002291F82100022808D09C
:100620000420886300BF002081F8200000BF012063
:1006300070470868006820F00E000B6818600868B2
:10064000006820F001000B68186091F8403001202C
:100650009840CB6B5860012081F8210000BF00203A
:1006600081F8200000BF1046E2E7000070B50446A4
:10067000002594F82100022803D00420A06301255E
:1006800048E02068006820F00E00216808602068BB
:10069000006820F00100216808601F492068884236
:1006A00001D1012026E01C4914312068884201D183
:1006B00010201FE0184928312068884201D1801598
:1006C00018E015493C312068884201D1801411E0BE
:1006D000114950312068884202D14FF4803009E03E
:1006E0000D4964312068884202D14FF4801001E046
:1006F0004FF08070084908394860012084F82100D3
:1007000000BF002084F8200000BF606B10B12046BD
:10071000616B8847284670BD0800024070B50446EA
:10072000E06B05682068066894F840100420884053
:100730002840002846D006F00400002842D0206857
:10074000006800F0200028B92068006820F004004C
:100750002168086057492068884201D1042027E0B9
:10076000544914312068884201D1402020E0514989
:1007700028312068884201D1001519E04D493C31EB
:100780002068884202D14FF4804011E0494950313D
:100790002068884202D14FF4802009E04549643145
:1007A0002068884202D14FF4800001E04FF0806061
:1007B000404908394860E06A00287AD02046E16A5A
:1007C000884776E094F84010022088402840A0B383
:1007D00006F0020088B32068006800F0200040B9ED
:1007E0002068006820F00A0021680860012084F871
:1007F000210030492068884201D1022028E02D499B
:1008000014312068884201D1202021E02949283173
:100810002068884201D140151AE026493C31206801
:10082000884202D14FF4005012E022495031206832
:10083000884203D14FF400300AE017E01D496431CB
:100840002068884202D14FF4001001E04FF00070A0
:1008500018490839486000BF002084F8200000BF14
:10086000A06A30B32046A16A884722E094F840107D
:10087000082088402840E0B106F00800C8B1206890
:10088000006820F00E002168086094F840100120F4
:100890008840E16B48600120A06384F8210000BF1C
:1008A000002084F8200000BF206B10B12046216B8F
:1008B000884770BD080002407047000010B504462C
:1008C00004480068204020B1024804602046FFF739
:1008D000F3FF10BD140401402DE9F8470346002240
:1008E00094466EE14FF0010808FA02F4D1F8008056
:1008F00008EA0400A0427DD1DFF8DCA2D1F8048030
:10090000A8EB0A09D0453AD014DCB8F1030F50D057
:1009100009DCB8F1000F31D0B8F1010F1CD0B8F1EB
:10092000020F49D120E0B8F1110F18D0B8F1120F21
:1009300042D11EE0B9F5881F25D006DCB9F5803F0D
:1009400020D0B9F5801F37D11AE0B9F5001F18D0B3
:10095000B9F5041F30D117E0D1F80CC02DE0D1F863
:100960000C8008F1040C28E0D1F80C8008F1080C88
:1009700023E0D1F80C8008F10C0C1EE000BF00BF92
:1009800000BF00BF00BF00BFD1F80880B8F1000F62
:1009900002D14FF0040C0BE0D1F80880B8F1010F40
:1009A00003D14FF0080C1C6102E04FF0080C5C61B1
:1009B00003E04FF0000C00E000BF00BFFF2801D8AB
:1009C000984601E003F104084646FF2802D84FEAA2
:1009D000820803E0A2F108084FEA88084746D6F8E3
:1009E00000804FF00F0909FA07F928EA09080CFA04
:1009F00007F900E088E048EA0908C6F80080D1F865
:100A0000048008F08058B8F1805F7DD100BFDFF826
:100A1000CC81D8F8188048F00108DFF8C091C9F8F7
:100A20001880C846D8F8188008F00108CDF8008072
:100A300000BF00BF4FEAB9384FEA920958F8295071
:100A40004FEA82784FEA18794FF00F0808FA09F850
:100A500025EA0805DFF88881434502D14FF00008F8
:100A600016E0DFF88081434502D14FF001080FE026
:100A7000DFF87481434502D14FF0020808E0DFF847
:100A80006C81434502D14FF0030801E04FF00408A8
:100A90004FEA82794FEA197908FA09F848EA050518
:100AA000DFF84C814FEA920948F82950D1F80480C8
:100AB00008F48018B8F5801F0AD1DFF83881D8F81B
:100AC000008048EA0008DFF82C91C9F8008009E0AE
:100AD000DFF82081D8F8008028EA0008DFF81491B8
:100AE000C9F80080D1F8048008F40018B8F5001F98
:100AF00010D1DFF8008108F10408D8F8008048EA36
:100B00000008DFF8F09000E05AE009F10409C9F8A4
:100B100000800DE0DFF8DC8008F10408D8F80080E0
:100B200028EA0008DFF8CC9009F10409C9F8008030
:100B3000D1F8048008F40038B8F5003F0ED1DFF892
:100B4000B480A8F10408D8F8008048EA0008DFF86B
:100B5000A490A9F10409C9F800800DE0DFF89480A1
:100B6000A8F10408D8F8008028EA0008DFF884908B
:100B7000A9F10409C9F80080D1F8048008F480388C
:100B8000B8F5803F0ED1DFF86C80A8F10808D8F8DE
:100B9000008048EA0008DFF85C90A9F10809C9F86C
:100BA00000800DE0DFF84C80A8F10808D8F800803C
:100BB00028EA0008DFF83C90A9F10809C9F800808C
:100BC000521CD1F8008028FA02F8B8F1000F7FF427
:100BD00089AEBDE8F8870000000011100010024047
:100BE00000080140000C01400010014000140140C9
:100BF0000800014008040140024693680B400BB115
:100C0000012000E0002070470AB1016101E00B04FF
:100C10000361704701480068704700001000002021
:100C2000034800680349097808440149086070478F
:100C3000100000201800002010B50848006840F09F
:100C4000100006490860032000F0AEF80F2000F005
:100C500007F800F02BF8002010BD00000020024033
:100C600070B504460E4800784FF47A71B1FBF0F08D
:100C70000C490968B1FBF0F5284600F097FC08B173
:100C8000012070BD102C07D200222146501E00F01A
:100C90004DF80548046001E00120F2E70020F0E78C
:100CA000180000201C0000201400002008B500BF20
:100CB0001448806940F00100124988610846806943
:100CC00000F00100009000BF00BF00BF0846C069EF
:100CD00040F08050C8610846C06900F08050009024
:100CE00000BF00BF00220F21901E00F01FF800BFC0
:100CF0000549486820F0E06040F00070486000BF9F
:100D000008BD0000001002400000014001460846F6
:100D1000002809DB00F01F0301229A4043099B00D1
:100D200003F1E023C3F8002100BF70472DE9F05F15
:100D300080460D461646002701F094FB07463946CB
:100D40002A46334601F00700C0F1070ABAF1040F42
:100D500002D94FF0040A01E0C0F1070AD14600F1C0
:100D6000040ABAF1070F02D24FF0000A01E0A0F125
:100D7000030AD4464FF0010A0AFA09FAAAF1010A55
:100D80000AEA020A0AFA0CFA4FF0010B0BFA0CFB02
:100D9000ABF1010B0BEA030B4AEA0B042146404678
:100DA00001F068FBBDE8F09F00BF00F00702064BB2
:100DB00019684FF6FF031940044B0B4343EA022125
:100DC000014B196000BF70470CED00E00000FA0510
:100DD000F8B5044600260025207800F00100002820
:100DE0006BD000274348C06900F0805070B900BF45
:100DF0004048C06940F080503E49C8610846C0691B
:100E000000F08050009000BF00BF01273A48006802
:100E100000F48070B0B93848006840F480703649FA
:100E20000860FFF7F7FE064606E0FFF7F3FE801BBB
:100E3000642801D90320F8BD2F48006800F48070B1
:100E40000028F2D02B48006A00F440752DB3A0882A
:100E500000F44070A84220D02648006A20F4407573
:100E6000012026490860002008602248056205F03C
:100E7000010090B1FFF7CEFE064608E0FFF7CAFE7C
:100E8000801B41F28831884201D90320D3E71948F9
:100E9000006A00F002000028F0D01648006A20F432
:100EA00040706168084313490862012F04D1084665
:100EB000C06920F08050C86100BF207800F00200B7
:100EC000022807D10B48406820F44040A16808433D
:100ED00008494860207800F01000102807D1054824
:100EE000406820F48000E16808430249486000201F
:100EF000A1E70000001002400070004040044242A0
:100F000070B504460D460CB9012070BD5A48006802
:100F100000F00700A8420ED25748006820F00700F2
:100F20002843554908600846006800F00700A842B9
:100F300001D00120E9E7207800F0020002281DD14D
:100F4000207800F00400042805D14C48406840F4A3
:100F5000E0604A494860207800F00800082805D180
:100F60004648406840F460504449486043484068FF
:100F700020F0F000A168084340494860207800F064
:100F8000010078B36068012806D13C48006800F48D
:100F9000003090B90120B8E76068022806D13748D0
:100FA000006800F0007040B90120AEE733480068E7
:100FB00000F0020008B90120A7E73048406820F09F
:100FC0000300616808432D494860FFF723FE064689
:100FD00009E0FFF71FFE801B41F28831884202D9E9
:100FE000032092E707E02548406800F00C006168A4
:100FF000B0EB810FEDD12048006800F00700A84257
:101000000ED91D48006820F0070028431A490860DF
:101010000846006800F00700A84201D0012074E7EC
:10102000207800F00400042807D11448406820F418
:10103000E060E168084311494860207800F008004A
:10104000082808D10D48406820F46050216940EA22
:10105000C1000A49486000F03FF808494968C1F3F7
:101060000311074A515CC8400649086006480068F9
:10107000FFF7F6FD002048E7002002400010024084
:101080009A3500081C000020140000200148006868
:10109000704700001C00002000B5FFF7F7FF04496F
:1010A0004968C1F30221034A515CC84000BD0000F9
:1010B00000100240AA35000800B5FFF7E7FF044919
:1010C0004968C1F3C221034A515CC84000BD000019
:1010D00000100240AA35000870B50021002200244B
:1010E00000230020134D696801F00C05F5B1042DB3
:1010F00002D0082D19D101E00F4819E00F4DC1F3BE
:101100008346AB5D01F4803555B10A4D6D68C5F37A
:1011100040450B4E725D084D5D43B5FBF2F402E0B5
:10112000084D03FB05F4204602E000BF024800BF63
:1011300000BF70BD0010024000127A008835000820
:101140009835000800093D00F8B504460CB90120A7
:10115000F8BD207800F00100002878D0F8484068F9
:1011600000F00C0004280CD0F548406800F00C009A
:10117000082811D1F248406800F48030B0F5803F73
:101180000AD1EF48006800F4003000285FD06068A2
:1011900000285CD10120DBE700BF6068B0F5803F2C
:1011A00006D1E748006840F48030E549086028E04F
:1011B000606858B9E248006820F48030E04908606F
:1011C0000846006820F4802008601AE06068B0F5E6
:1011D000A02F0BD1DA48006840F48020D84908607D
:1011E0000846006840F4803008600AE0D44800688F
:1011F00020F48030D24908600846006820F480203E
:10120000086000BF606888B1FFF704FD054606E08E
:10121000FFF700FD401B642801D9032098E7C84868
:10122000006800F400300028F2D010E0FFF7F2FC74
:10123000054606E0FFF7EEFC401B642801D90320B9
:1012400086E7BF48006800F400300028F2D120781B
:1012500000F00200022857D1B948406800F00C00A5
:1012600050B1B748406800F00C00082818D1B448C5
:10127000406800F4803098B9B148006800F002007E
:1012800020B12069012801D0012061E7AC48006845
:1012900020F0F800616940EAC100A949086033E024
:1012A0002069E8B10120A7490860FFF7B3FC0546B3
:1012B00006E0FFF7AFFC401B022801D9032047E7F7
:1012C0009F48006800F002000028F2D09C480068A7
:1012D00020F0F800616940EAC1009949086013E014
:1012E000002098490860FFF795FC054606E0FFF7E7
:1012F00091FC401B022801D9032029E7904800688F
:1013000000F002000028F2D1207800F00800082840
:101310002DD1A069B8B101208B490860FFF77AFC94
:10132000054606E0FFF776FC401B022801D90320A2
:101330000EE78348406A00F002000028F2D0012046
:1013400000F006FE13E000207F490860FFF762FC12
:10135000054606E0FFF75EFC401B022801D903208A
:10136000F6E67748406A00F002000028F2D12078C3
:1013700000F00400042873D100277148C06900F010
:10138000805070B900BF6E48C06940F080506C4911
:10139000C8610846C06900F08050009000BF00BFDF
:1013A00001276A48006800F48070B0B96748006897
:1013B00040F4807065490860FFF72CFC054606E0A4
:1013C000FFF728FC401B642801D90320C0E65F48D2
:1013D000006800F480700028F2D000BFE0680128A7
:1013E00006D15748006A40F001005549086227E0DD
:1013F000E06858B95248006A20F00100504908627C
:101400000846006A20F00400086219E0E068052838
:101410000BD14B48006A40F0040049490862084675
:10142000006A40F0010008620AE04548006A20F0C6
:101430000100434908620846006A20F0040008627F
:1014400000BFE068A0B1FFF7E5FB054609E0FFF744
:10145000E1FB401B41F28831884202D9032077E644
:1014600022E03748006A00F002000028EFD012E0C6
:10147000FFF7D0FB054608E0FFF7CCFB401B41F22D
:101480008831884201D9032062E62D48006A00F0C5
:1014900002000028F0D1012F05D12948C06920F0B1
:1014A00080502749C86100BFE069C8B3244840683C
:1014B00000F00C00082860D0E069022848D1002024
:1014C00020490866FFF7A6FB054606E0FFF7A2FBEA
:1014D000401B022801D903203AE61948006800F0B1
:1014E00000700028F2D1206AB0F5803F07D114487F
:1014F000406820F40030A168084311494860D4E9ED
:10150000080108430E49496821F4741108430C4945
:10151000486001200B490866FFF77CFB054607E0A1
:101520003DE0FFF777FB401B022801D903200FE6BF
:101530000348006800F000700028F2D02FE000009F
:10154000001002400000424280044242007000400D
:10155000002014490866FFF75DFB054606E0FFF72B
:1015600059FB401B022801D90320F1E50E48006811
:1015700000F000700028F2D111E0E069012800D1EC
:10158000E6E50948466806F48031206A814204D1C4
:1015900006F47011606A814201D00120D8E5002074
:1015A000D6E50000000042420010024070B504463B
:1015B0002546681EB0F1807F01D301200FE0681E30
:1015C0004FF0E02148610F214FF0FF3000F052FF53
:1015D00000204FF0E021886107200861002070BDE5
:1015E00070477047704710B5044620680069C0F323
:1015F0004000D8B12068C068C0F34000B0B16FF0BF
:10160000020021680861012020772068806900F0CD
:10161000030018B12046FFF7E5FF05E0204600F083
:10162000ADF8204600F0ABF8002020772068006974
:10163000C0F38000D8B12068C068C0F38000B0B1AA
:101640006FF004002168086102202077206880691B
:1016500000F4407018B12046FFF7C4FF05E02046B3
:1016600000F08CF8204600F08AF8002020772068EF
:101670000069C0F3C000D8B12068C068C0F3C000E2
:10168000B0B16FF00800216808610420207720685D
:10169000C06900F0030018B12046FFF7A3FF05E082
:1016A000204600F06BF8204600F069F80020207713
:1016B00020680069C0F30010D8B12068C068C0F38A
:1016C0000010B0B16FF01000216808610820207789
:1016D0002068C06900F4407018B12046FFF782FF0F
:1016E00005E0204600F04AF8204600F048F80020C7
:1016F00020772068006900F0010058B12068C068B8
:1017000000F0010030B16FF001002168086120464F
:1017100000F036F820680069C0F3C01058B12068A6
:10172000C068C0F3C01030B16FF08000216808615C
:101730002046FFF755FF20680069C0F3801058B1BC
:101740002068C068C0F3801030B16FF0400021689D
:101750000861204600F015F820680069C0F34010C9
:1017600058B12068C068C0F3401030B16FF020005D
:10177000216808612046FFF734FF10BD70477047AD
:1017800070477047704770472DE9F84F044620684E
:1017900005682068C668206847694FF00009CA4696
:1017A00005F00F09B9F1000F0AD105F0200038B19A
:1017B00006F0200020B1204600F0ACFCBDE8F88F18
:1017C000B9F1000F7BD007F0010018B906F4907052
:1017D000002874D005F0010030B106F4807018B113
:1017E000606C40F00100606405F0040030B107F067
:1017F000010018B1606C40F00200606405F0020066
:1018000030B107F0010018B1606C40F00400606472
:1018100005F0080048B106F0200010B907F00100FB
:1018200018B1606C40F008006064606C002845D01E
:1018300005F0200028B106F0200010B1204600F08D
:1018400069FC20684069C0F3801A606C00F00800F1
:1018500010B9BAF1000F2CD0204600F015FC20681A
:10186000406900F0400000B300BF00BF21681431A0
:1018700051E8001F21F040002168143141E80002C6
:10188000002AF3D100BFE06B50B17748E16B4863A9
:10189000E06BFEF7EBFE88B1E06B416B88470DE033
:1018A0002046FFF770FF09E009E02046FFF76BFFD5
:1018B00004E02046FFF767FF002060647EE7206BAE
:1018C000012877D105F01000002873D006F0100031
:1018D0000028FAD000BF0020009020680068009027
:1018E00020684068009000BF00BF2068406900F099
:1018F000400000285FD0E06B006840681FFA80F865
:10190000B8F1000F55D0A08D404552DDA4F82E80CF
:10191000E06B8069202843D000BF00BF21680C31F4
:1019200051E8001F21F4807021680C3141E8000269
:10193000002AF3D100BF00BF00BF2168143151E875
:10194000001F21F001002168143141E80002002A43
:10195000F3D100BF00BF00BF2168143151E8001F60
:1019600021F040002168143141E80002002AF3D13F
:1019700000BF202084F842000020206300BF00BF89
:1019800021680C3151E8001F21F0100021680C3152
:1019900041E80002002AF3D100BFE06BFEF73AFEF7
:1019A00002206063A08DE28D801A81B22046FFF78D
:1019B000E9FE03E742E0A08DE18D401A1FFA80F8AE
:1019C000E08DD0B3B8F1000F37D000BF00BF216861
:1019D0000C3151E8001F21F4907021680C3141E86E
:1019E0000002002AF3D100BF00BF00BF21681431FC
:1019F00051E8001F21F001002168143141E8000284
:101A0000002AF3D100BF202084F842000020206388
:101A100000BF00BF21680C3151E8001F21F0100009
:101A200021680C3141E80002002AF3D100BF0220F6
:101A3000606341462046FFF7A5FEBFE605F0800043
:101A400030B106F0800018B1204600F07FFCB5E60A
:101A500005F0400030B106F0400018B1204600F01B
:101A600049FBABE600BFA9E67520000810B50446A7
:101A70000CB9012010BDA06900B100E000BF94F8CE
:101A8000410028B9002084F84000204600F02AF8E0
:101A9000242084F841002068C06820F400502168A8
:101AA000C860204600F0B4FB2068006920F4904034
:101AB000216808612068406920F02A002168486197
:101AC0002068C06840F400502168C860002060644D
:101AD000202084F8410084F842000020606300BFA9
:101AE000C8E7000010B586B00446002002900390BD
:101AF0000490059055492068884237D100BF54486A
:101B0000806940F48040524988610846806900F449
:101B10008040019000BF00BF00BF0846806940F0D0
:101B2000040088610846806900F00400019000BF4D
:101B300000BF48150290022003900320059002A9DF
:101B40004448FEF7C9FE4FF48060029000200390E5
:101B5000049002A93F48FEF7BFFE00220521252080
:101B6000FFF7E4F82520FFF7D1F86DE03A49206847
:101B700088422ED100BF3648C06940F40030344955
:101B8000C8610846C06900F40030019000BF00BF82
:101B900000BF0846806940F00400886108468069FB
:101BA00000F00400019000BF00BF0420029002205A
:101BB00003900320059002A92648FEF78DFE082019
:101BC000029000200390049002A92248FEF784FEB0
:101BD0003AE022492068884236D100BF1C48C069DB
:101BE00040F480201A49C8610846C06900F480208A
:101BF000019000BF00BF00BF0846806940F00800A8
:101C000088610846806900F00800019000BF00BFAD
:101C100008150290022003900320059002A91048A5
:101C2000FEF75AFE4FF400600290002003900490EB
:101C300002A90B48FEF750FE002205212720FFF7DE
:101C400075F82720FFF762F806B010BD0038014094
:101C500000100240000801400044004000480040DD
:101C6000000C014070B504460D46164694F842003B
:101C700020280BD105B10EB9012070BD00202063D2
:101C800032462946204600F041FBF6E70220F4E701
:101C900070472DE9F84F04460E46174699464FF017
:101CA000000A94F8410020284AD106B117B9012052
:101CB000BDE8F88F00206064212084F84100FEF721
:101CC000A9FF8246A784E784A068B0F5805F04D1AD
:101CD000206910B90025B04602E035464FF00008F3
:101CE0001BE05346002280212046CDF8009000F0F2
:101CF0005DFB08B10320DBE745B9B8F80000C0F38D
:101D000008002168486008F1020803E0287821688B
:101D100048606D1CE08C401EE084E08C0028E0D11F
:101D20005346002240212046CDF8009000F03EFBB3
:101D300008B10320BCE7202084F841000020B7E769
:101D40000220B5E7704700BFFEE7000000B585B090
:101D50000020019002900390049000BF4B488069DE
:101D600040F01000494988610846806900F0100081
:101D7000009000BF00BF00BF0846806940F020000F
:101D800088610846806900F02000009000BF00BF15
:101D900000BF0846806940F00400886108468069F9
:101DA00000F00400009000BF00BF00BF084680693B
:101DB00040F0080088610846806900F00800009043
:101DC00000BF00BF00224FF460413148FEF71CFF06
:101DD000002241F633112F48FEF716FF00224FF480
:101DE00040712D48FEF710FF4FF460400190012034
:101DF0000290002003900320049001A92448FEF7DC
:101E00006BFD41F6331001900120029000200390F9
:101E10000320049001A91F48FEF75EFD4FF4E04047
:101E200001901E4802900120039001A91A48FEF774
:101E300053FD4FF4004001900020029001200390D8
:101E400001A91448FEF748FD48F23800019000202F
:101E500002900120039001A90F48FEF73DFD4FF4C9
:101E60004070019001200290002003900320049014
:101E700001A90948FEF730FD002205212820FEF7C0
:101E800055FF2820FEF742FF05B000BD00100240BC
:101E90000010014000080140000C0140000021102A
:101EA00010B50B480B4908604FF4E1304860002141
:101EB00008488160C16001610C214161002181619C
:101EC000C161FFF7D3FD08B1FEF779FA10BD00003C
:101ED00000380140AC01002010B50B480B490860E8
:101EE0004FF4E1304860002108488160C160016121
:101EF0000C21416100218161C161FFF7B7FD08B18B
:101F0000FEF75DFA10BD000000440040F40100201F
:101F100010B50B480B4908604FF4E13048600021D0
:101F200008488160C16001610C214161002181612B
:101F3000C161FFF79BFD08B1FEF741FA10BD00003B
:101F4000004800403C02002000BFFEE700BFFEE763
:101F500008B508490968C9084FF47A72B1FBF2F173
:101F60004143009100BF00BF00994A1E0092002922
:101F7000F9D108BD1C0000200021084600F02AFB12
:101F80000021084600F03CFB0021084600F04EFB13
:101F900000BF012000F0DDFA01F02CF8F9E70000A5
:101FA0000348FEF779FA00BFFEF732FAFCE70000BB
:101FB000AC01002000BF012000F0CBFAFBE700BF1E
:101FC000012000F0C6FAFBE710B5FEF729FE01F08C
:101FD00067F9012801D001F0BBF810BD00B593B03E
:101FE000282109A8FEF76EF9142104A8FEF76AF962
:101FF00000200090019002900390012009900004BD
:102000000A9000200B9001200D9002201090C10337
:1020100011914FF4E011129109A8FFF795F808B15A
:10202000FEF7CDF90F2004900220059000200690C5
:102030004FF48060079000200890022104A8FEF76A
:102040005FFF08B1FEF7BBF9022000908003029009
:102050006846FEF7BDFE08B1FEF7B1F913B000BD4A
:102060007047000010B50248FFF7BDFA10BD000030
:102070006401002070B505466C6A0020E085E084AC
:102080002046FFF780FB70BD00BF00BF02680C3226
:1020900052E8002F22F4907102680C3242E80013DB
:1020A000002BF3D100BF00BF00BF0268143252E81A
:1020B000002F22F001010268143242E80013002BC5
:1020C000F3D100BF016B01290ED100BF00BF026830
:1020D0000C3252E8002F22F0100102680C3242E864
:1020E0000013002BF3D100BF202180F84210002103
:1020F0000163704710B504462068C06820F04000B6
:102100002168C860202084F841002046FFF71AFEAD
:10211000002010BDF8B5044694F84200222875D17D
:10212000A068B0F5805F0CD1206950B90025A66A7F
:1021300020684068C0F308003080A06A801CA0625C
:1021400015E0A56A0026A068B0F5805F03D0A068FE
:1021500028B9206918B920684068287004E0206810
:10216000406800F07F002870A06A401CA062E08DEB
:10217000401E80B2E085002846D12068C06820F06B
:1021800020002168C8602068C06820F48070216841
:10219000C8602068406920F0010021684861202063
:1021A00084F8420000206063206B012826D10020C3
:1021B000206300BF00BF21680C3151E8001F21F0EF
:1021C000100021680C3141E80002002AF3D100BF61
:1021D0002068006800F0100010280AD100BF00201D
:1021E000009020680068009020684068009000BF60
:1021F00000BFA18D2046FFF7C5FA02E02046FFF799
:1022000047FD0020F8BD01E00020FBE70220F9E7D0
:1022100070B504462168096921F44051E268114310
:10222000226811612269A1681143626941EA0205CD
:102230002168C96841F20C62914329432268D16048
:102240002168496921F44071A269114322685161F2
:102250002D4A2168914202D1FEF72EFF01E0FEF7E0
:102260001BFF00EBC00101EB001162689200B1FBA3
:10227000F2F100EBC00202EB001263689B00B2FBBC
:10228000F3F26423B2FBF3F202EBC20303EB02129C
:10229000A1EB8201322202EB01116422B1FBF2F1C7
:1022A00001F0F00100EBC00202EB001263689B003A
:1022B000B2FBF3F26423B2FBF3F201EB021200EB88
:1022C000C00101EB001163689B00B1FBF3F100EB6F
:1022D000C00303EB00136668B600B3FBF6F3642695
:1022E000B3FBF6F303EBC30606EB0313A1EB830189
:1022F000322303EB01116423B1FBF3F101F00F0171
:1023000011442268916070BD0038014010B5034649
:1023100099629A85DA8500205864222083F8420069
:10232000186928B11868C06840F480701C68E060C3
:102330001868406940F001001C6860611868C06856
:1023400040F020001C68E060002010BD014691F8BC
:102350004100212828D18868B0F5805F0BD1086939
:1023600048B90A6A1088C0F308000B685860086A08
:10237000801C086205E00B6A581C086218780B681C
:102380005860C88C401E80B2C88458B90868C068BC
:1023900020F080000B68D8600868C06840F04000FA
:1023A0000B68D860002070470220FCE72DE9F0415F
:1023B00004460D4617469846069E34E0701C88B3C6
:1023C0002EB1FEF727FCA0EB0800B0422BD900BFCE
:1023D00000BF21680C3151E8001F21F4D070216842
:1023E0000C3141E80002002AF3D100BF00BF00BF5A
:1023F0002168143151E8001F21F0010021681431D7
:1024000041E80002002AF3D100BF202084F84100F7
:1024100084F8420000BF002084F8400000BF032081
:10242000BDE8F081FFE7206800682840A84201D19C
:10243000012000E00020B842C0D00020F0E70000FA
:1024400010B50248FFF7A0F910BD0000AC01002054
:1024500010B50248FFF798F910BD00003C020020BB
:1024600000BFFEE702480068C0F30220704700008A
:102470000CED00E010B5002804DB0A07130E054A36
:10248000135406E00A07140E034A00F00F031B1F43
:10249000D45410BD00E400E018ED00E09CB0FEF75D
:1024A000CBFB022021490860FFF798FD03201F495C
:1024B0000860FFF74BFCFFF7F3FCFFF70DFDFFF79C
:1024C00027FDFEF70DF81C22194915A8FDF7C8FED7
:1024D000002115A800F04EF8164908601C22144986
:1024E0001C310EA8FDF7BCFE00210EA800F042F83A
:1024F000114908601C220E49383107A8FDF7B0FECB
:10250000002107A800F036F80C4908601C22084991
:1025100054316846FDF7A4FE0021684600F02AF811
:102520000749086000F021F800BFFEE7980000208E
:1025300018350008000000200400002008000020DA
:102540000C00002001460020842901D0CA1C104440
:10255000704770B5044625460DB1294600E00121BB
:10256000084600F073FC002070BD10B500F09CFC24
:10257000002010BD7FB504460D46606998B1A06982
:1025800088B1B4F90800FFF7DDFF0646D4E905106D
:10259000CDE9006102902B462269D4E9001000F0D9
:1025A00023FE039013E0B4F90800FFF7CBFF0646C3
:1025B00003A8CDE90060238A9AB22B46D4E9001023
:1025C00000F0E0FD012802D0002004B070BD0398A7
:1025D000FBE7000070B504460D4609200749086076
:1025E000012101EBC411C8B200F022FB284600F023
:1025F0001FFBFF2000F01CFB70BD000098000020B6
:1026000070B504460D460A2007490860022101EB17
:10261000C411C8B200F00CFB284600F009FBFF20F3
:1026200000F006FB70BD00009800002070B5044665
:102630000D460B2007490860032101EBC411C8B205
:1026400000F0F6FA284600F0F3FAFF2000F0F0FA66
:1026500070BD0000980000202DE9F04105460E46AF
:102660001C4807681C480068001D00F0F3FA50B9C8
:102670001948006890F82C10012088401749096813
:10268000814316480160681C38B936B112480168A8
:10269000091D134800F028FB1AE07C190E48006859
:1026A0004460BC4207D20C480168091D0D4800680F
:1026B00000F000FB0CE008480168091D0A480068AA
:1026C00000F0F8FA09480068844201D20748046023
:1026D000BDE8F081340000202000002038000020F8
:1026E000B405002028000020240000205000002015
:1026F00010B5044600F004FB23480068401C224942
:1027000008602248006840B9204804600846006814
:1027100001280DD100F03AF90AE01D48006838B9E7
:102720001A480068C06AE16A884201D81748046004
:1027300018480068401C1749086094F82C100120C4
:10274000884015490968084313490860E16A01EBAC
:102750008101124A02EB8100211D00F0C5FA00F050
:10276000F9FA0B48006868B108480068C06AE16A75
:10277000884207D24FF0805009490860BFF34F8F5D
:10278000BFF36F8F10BD000030000020200000203C
:102790003C0000204C00002038000020D80400201D
:1027A00004ED00E010B516E000F0AAFA0C48C0688D
:1027B000C468201D00F04EFA0A480068401E09490E
:1027C000086009480068401E0749086000F0C2FA26
:1027D000204600F00BF8044800680028E4D110BD42
:1027E000A0050020300000202C00002010B5044679
:1027F00094F8510030B9206B00F0CAFA204600F07E
:10280000C7FA1AE094F85100012803D1204600F0DD
:10281000BFFA12E094F85100022801D1012000E033
:10282000002050B900BF502080F31188BFF34F8FB4
:10283000BFF36F8F00BF00BFFEE710BD30B54FF490
:102840007053174800F007042CB1C01D20F007009A
:10285000134C041B1B1B0246124C22600024114D1A
:102860006C60D018083820F007000F4C206000245E
:102870000D4D2D686C600C4D2D682C601146441A6E
:102880004C60094C24680C60084D4C682C60084D65
:102890004C682C604FF00044064D2C6030BD0000A9
:1028A000C80500205C000020640000206C000020AF
:1028B000680000207000002000BFFFF773FF06488B
:1028C00000680128F9D94FF0805004490860BFF32F
:1028D0004F8FBFF36F8FF0E7D804002004ED00E0C6
:1028E0002DE9FF5F81460F469246DDE90E6B109C95
:1028F000AAF10100216B01EB800828F0070808F01D
:10290000070008B9012000E0002050B900BF5020A6
:1029100080F31188BFF34F8FBFF36F8F00BF00BFED
:10292000FEE7002507E0795D04F134004155785D4C
:1029300000B902E06D1C102DF5D300BF002143202B
:102940000155072E00D30626E66266640020A064C7
:10295000201D00F0ACF904F1180000F0A8F9246182
:10296000C6F10700A06164620020E06484F85000B2
:1029700049464046039A00F049F92060BBF1000F38
:1029800001D0CBF80040BDE8FF9F000010B5002447
:1029900007E004EB84010F4A02EB810000F07AF9B2
:1029A000641C072CF5D30C4800F074F90B4800F0B8
:1029B00071F90B4800F06EF90A4800F06BF90A480B
:1029C00000F068F9044809490860044808490860AB
:1029D00010BD0000D8040020640500207805002008
:1029E0008C050020A0050020B40500202400002054
:1029F0002800002010B50146164800E00068036872
:102A00008B42FBD30246436813448B4204D1436894
:102A10004C682344436001460A464B6813440468EB
:102A2000A34211D10C4C03682468A34208D04B6820
:102A30000468646823444B6003681B680B6005E00E
:102A4000054B1B680B6001E003680B60884200D0F7
:102A5000016010BD5C000020640000200A49096884
:102A6000096809B9012100E0002121B14FF0FF31CF
:102A7000064A116006E004490968C968C868034A43
:102A800041681160704700002400002050000020C1
:102A90000E480068401C08B9012000E0002050B931
:102AA00000BF502080F31188BFF34F8FBFF36F8FAB
:102AB00000BF00BFFEE700BF502080F31188BFF3C6
:102AC0004F8FBFF36F8F00BF00BFFEE77400002081
:102AD0002DE9F04104464FF0000800F03DFA464869
:102AE000006808B9FFF7AAFE4448006820400028A3
:102AF0006BD1D4B1083404F00700B0B104F0070082
:102B0000C0F10800044404F0070008B9012000E007
:102B1000002050B900BF502080F31188BFF34F8FC1
:102B2000BFF36F8F00BF00BFFEE7002C4DD03448CD
:102B30000068844249D8334E3046056801E02E468D
:102B40002D686868A04202D228680028F7D12A4878
:102B50000068854239D0306800F108082868306084
:102B60006868001B102819D92F1907F0070008B949
:102B7000012000E0002050B900BF502080F31188F0
:102B8000BFF34F8FBFF36F8F00BF00BFFEE76868D2
:102B9000001B78606C603846FFF72CFF18496868A6
:102BA0000968081A16490860084600681649096845
:102BB000884203D212480068134908600F496868C8
:102BC0000968084368600020286000F023FC08F0D2
:102BD000070008B9012000E0002050B900BF5020D4
:102BE00080F31188BFF34F8FBFF36F8F00BF00BF1B
:102BF000FEE74046BDE8F081640000207000002040
:102C0000680000205C0000206C000020001F4FF0D6
:102C100080730360001F21F001030360001F034B5A
:102C2000036014380260203870470000912A0008C1
:102C300001B50C20054908601423012269460448A7
:102C4000FFF727F80D200149086008BD9800002013
:102C5000F401002001460A69D1E901309860D1E908
:102C6000010358605068884201D188685060002094
:102C700008611068401E106010687047034B0360C5
:102C8000034B0B6080231360704700008402002018
:102C9000D802002000F1080141604FF0FF3181604F
:102CA00000F10801C160016100210160704700214D
:102CB0000161704710B502460B685C1C0CB91069C5
:102CC00007E002F1080000E04068446824689C4284
:102CD000FAD944684C604C68A160886041600A6120
:102CE0001468641C146010BD42684A6093688B606D
:102CF000936859609160086103685B1C03607047CA
:102D000000BF502080F31188BFF34F8FBFF36F8F48
:102D100000BF0E480068401C0C4908600846006867
:102D2000012812D10A480068C0B208B9012000E0A9
:102D3000002050B900BF502080F31188BFF34F8F9F
:102D4000BFF36F8F00BF00BFFEE770477400002025
:102D500004ED00E00D48006850B900BF502080F33A
:102D60001188BFF34F8FBFF36F8F00BF00BFFEE727
:102D700006480068401E054908600846006820B9FA
:102D8000002080F3118800BF00BF7047740000204E
:102D900070B506463546002E3FD0083D2C461F49EB
:102DA00060680968084008B1012000E0002050B9BF
:102DB00000BF502080F31188BFF34F8FBFF36F8F98
:102DC00000BF00BFFEE7206808B9012000E0002036
:102DD00050B900BF502080F31188BFF34F8FBFF36D
:102DE0006F8F00BF00BFFEE70C49606809680840AC
:102DF00098B1206888B909496068096888436060AB
:102E000000F0AAF8064960680968084404490860A7
:102E10002046FFF7EFFD00F0FDFA70BD70000020C6
:102E20006800002000204FF0E0210861886106481A
:102E300000684FF47A71B0FBF1F0401E4FF0E021D2
:102E400048610720086170471C00002070B50446E7
:102E50000025D4B11248006808B9012000E0002024
:102E600050B900BF502080F31188BFF34F8FBFF3DC
:102E70006F8F00BF00BFFEE700F06EF80021204614
:102E8000FFF7EAFB00F0C6FA05463DB94FF0805067
:102E900004490860BFF34F8FBFF36F8F70BD000010
:102EA0005800002004ED00E010B586B00020059029
:102EB000049003AA04A905A8FFF7E0FE0022DDE9BB
:102EC00004101346CDE9002102901CA11D48039A6D
:102ED00000F08AF91C4908600846006808B101241E
:102EE00000E00024012C15D100BF502080F3118890
:102EF000BFF34F8FBFF36F8F00BF4FF0FF30134909
:102F0000086001201249086000201249086000F0A2
:102F1000A3F810E0601C08B1012000E0002050B9C7
:102F200000BF502080F31188BFF34F8FBFF36F8F26
:102F300000BF00BFFEE706B010BD000049444C458D
:102F400000000000B92800085400002050000020B4
:102F50003C0000203400002002480068401C014969
:102F600008607047580000201D48006818B1012013
:102F70001C49086032E000201A4908601A480068BD
:102F8000B0FA80F0C0F11F0101EB8100174A52F83E
:102F9000200008B1012000E0002050B900BF5020FF
:102FA00080F31188BFF34F8FBFF36F8F00BF00BF57
:102FB000FEE701EB81020D4B03EB82004268526891
:102FC000426000F108024368934202D142685268AD
:102FD00042604268D268064B1A6000BF704700002A
:102FE000580000204400002038000020D8040020B1
:102FF0002000002010B54FF400411548FDF7FCFDFE
:1030000020B128210120FFF711FB03E0012100205E
:10301000FFF70CFB10210F48FDF7EEFD20B928212A
:103020000120FFF7EDFA03E001210020FFF7E8FAA5
:1030300020210848FDF7E0FD20B928210120FFF7F5
:10304000C9FA03E001210020FFF7C4FA10BD000017
:1030500000080140000C01401CB5384908460078C2
:103060000190FF200A4610700846007800909DF8F5
:10307000000000F0F0009DF80020904201D10120F6
:1030800000E0002050B900BF502080F31188BFF34A
:103090004F8FBFF36F8F00BF00BFFEE79DF80000AA
:1030A00000F05000264A10700720264A106009E000
:1030B00024480068401E234A10609DF80000400626
:1030C000000E00909DF8000000F080008028EFD0F6
:1030D0001C480068C0F10700042801D1012000E06D
:1030E000002050B900BF502080F31188BFF34F8FEC
:1030F000BFF36F8F00BF00BFFEE7124800680002F9
:10310000104A10601046008800F4E06010600B4A1E
:10311000019810700C48006840F470000A4908607B
:103120000846006840F070400860FFF77BFE002012
:1031300006490860FDF73AF800201CBD00E400E0F5
:10314000780000207C00002020ED00E074000020CA
:1031500010B500BF502080F31188BFF34F8FBFF32D
:103160006F8F00BF00F0B2F818B14FF080500449E3
:10317000086000BF002080F3118800BF10BD000070
:1031800004ED00E02DE9FF4F85B0804689461746E3
:10319000DDE912ABB800FFF79BFC064656B15420A0
:1031A000FFF796FC04460CB1266304E03046FFF7B7
:1031B000EFFD00E000248CB1002084F85100CDE93F
:1031C00000ABCDE902403A4649464046089BFFF72E
:1031D00087FB2046FFF78CFA012501E04FF0FF3511
:1031E000284609B0BDE8F08F2DE9F04F85B00746BD
:1031F000884691469A46DDE90EB6109C0EB1012034
:1032000000E0002050B900BF502080F31188BFF3C8
:103210004F8FBFF36F8F00BF00BFFEE70CB10120DF
:1032200000E0002050B900BF502080F31188BFF3A8
:103230004F8FBFF36F8F00BF00BFFEE75420039096
:103240000398542801D1012000E0002050B900BFAC
:10325000502080F31188BFF34F8FBFF36F8F00BFF3
:1032600000BFFEE7B4B1AEB125462C462E63022066
:1032700085F85100002004A953464A46CDE900B123
:10328000CDE9025041463846FFF72AFB2846FFF7B2
:103290002FFA01E000200490049805B0BDE8F08FFB
:1032A0000549096809B9012005E00449096809B917
:1032B000022000E0002070473C0000205800002061
:1032C0000149086870470000340000202DE9F041F2
:1032D0004FF0000844480068002877D14348006850
:1032E000451C4248056015BB41480068006808B9A4
:1032F000012000E0002050B900BF502080F3118869
:10330000BFF34F8FBFF36F8F00BF00BFFEE738489A
:10331000076838480068364908603648076036480C
:103320000068401C34490860FFF798FB00BF334831
:10333000006885423CD300BF2D480068006808B98A
:10334000012000E0002020B14FF0FF302B49086041
:103350002DE027480068C068C4686668B54202D29C
:103360002648066023E0201DFFF774FCA06A18B110
:1033700004F11800FFF76EFC94F82C10012088402F
:103380001F49096808431E490860E16A01EB810191
:103390001C4A02EB8100211DFFF7A6FC1A49E06AD6
:1033A0000968C96A8842C7D34FF00108C4E700BF63
:1033B00015480068C06A00EB8000124951F82000EF
:1033C000012801D94FF0010805E0FFE70F48006828
:1033D000401C0E4908600E48006808B14FF0010813
:1033E0004046BDE8F0810000580000203400002075
:1033F0002400002028000020480000205000002069
:1034000038000020D80400202000002040000020C8
:103410004400002070B5002400263648006850B9EA
:1034200000BF502080F31188BFF34F8FBFF36F8F21
:1034300000BF00BFFEE7FFF763FC2E480068401E98
:103440002C4908600846006800284FD12A480068C7
:1034500000284BD024E02948C068C46804F1180053
:10346000FFF7F8FB201DFFF7F5FB94F82C10012067
:10347000884023490968084321490860E16A01EB53
:103480008101204A02EB8100211DFFF72DFC1E491E
:10349000E06A0968C96A884202D301201B490860B2
:1034A0001648006808B9012000E000200028D2D0AA
:1034B0000CB1FFF7D3FA1648056865B100BFFFF7F6
:1034C00005FF10B10120114908606D1E002DF6D1D5
:1034D00000200F4908600D48006838B10126300708
:1034E0000C490860BFF34F8FBFF36F8FFFF732FCBB
:1034F000304670BD58000020300000208C050020B0
:1035000038000020D80400202000002044000020C3
:103510004000002004ED00E0D8350008791F0008C5
:103520000300000000000000800000000000000018
:1035300000000000B4350008A11F0008FDFF0000D6
:1035400000000000800000000000000000000000FB
:10355000C0350008B51F0008FDFF00000000000096
:10356000800000000000000000000000CC350008D2
:10357000BF1F0008FDFF00000000000080000000E9
:10358000000000000000000002030405060708090F
:103590000A0B0C0D0E0F10100102000000000000BD
:1035A00000000102030406070809000000000102F0
:1035B000030400006D795461736B30320000000029
:1035C0006D795461736B3033000000006D79546184
:1035D000736B30340000000064656661756C745470
:1035E00061736B0004360008000000209C0000009E
:1035F00028010008A03600089C000020DC4B0000D9
:10360000440100080000000000000000000000006D
:103610000000000000000000100000000100000099
:103620000024F40000000000000000000000000082
:10363000000000000000000000000000000000008A
:10364000000000000000000000000000000000007A
:10365000000000000000000000000000000000006A
:10366000000000000000000000000000000000005A
:103670000000000000000000AAAAAAAA00000000A2
:10368000000000000000000000000000000000003A
:10369000000000000000000000000000000000002A
:04000005080000ED02
:00000001FF
