:020000040800F2
:10000000F84B002021020008652B0008C5280008D5
:10001000612B00088B030008F94200080000000073
:10002000000000000000000000000000890100083E
:100030008F03000800000000CD010008913E000879
:100040003B0200083B0200083B0200083B0200089C
:100050003B0200083B0200083B0200083B0200088C
:100060003B0200089D030008A70300083B020008AC
:100070003B0200083B0200083B0200083B0200086C
:100080003B0200083B0200083B0200083B0200085C
:100090003B0200083B0200083B020008B1030008D5
:1000A0003B0200083B0200083B0200083B0200083C
:1000B0003B0200083B0200083B0200083B0200082C
:1000C0003B0200083B0200083B0200083B0200081C
:1000D0003B020008D94200083B020008E942000840
:1000E000910300083B0200083B02000800F002F800
:1000F00000F03AF80AA090E8000C82448344AAF188
:100100000107DA4501D100F02FF8AFF2090EBAE885
:100110000F0013F0010F18BFFB1A43F0010318473B
:10012000A06B0000C06B0000103A24BF78C878C1F3
:10013000FAD8520724BF30C830C144BF04680C60ED
:10014000704700000023002400250026103A28BF35
:1001500078C1FBD8520728BF30C148BF0B60704739
:100160001FB51FBD10B510BD00F0D6F81146FFF742
:10017000F7FF04F071FE00F0F4F803B4FFF7F2FFAC
:1001800003BC00F0FBF80000224B19680868B0E8D7
:10019000F00F80F30988BFF36F8F4FF0000080F3FA
:1001A00011884EF00D0E70470000000006480068F0
:1001B000006880F3088862B661B6BFF34F8FBFF363
:1001C0006F8F00DF00BF00BF08ED00E0EFF3098094
:1001D000BFF36F8F0F4B1A6820E9F00F106008B55E
:1001E0004FF0500080F31188BFF34F8FBFF36F8F34
:1001F00006F050F84FF0000080F31188BDE8084089
:1002000019680868B0E8F00F80F30988BFF36F8FB2
:10021000704700BF28000020EFF305807047000002
:100220000948804709480047FEE7FEE7FEE7FEE78A
:10023000FEE7FEE7FEE7FEE7FEE7FEE704480549C6
:10024000054A064B704700000B3F0008ED00000810
:10025000F8450020F84B0020F8470020F847002020
:1002600010B5203AC0F00B80B1E81850203AA0E851
:100270001850B1E81850A0E81850BFF4F5AF5FEA85
:10028000027C24BFB1E81850A0E8185044BF18C938
:1002900018C0BDE810405FEA827C24BF51F8043BDF
:1002A00040F8043B08BF7047D20728BF31F8023B33
:1002B00048BF11F8012B28BF20F8023B48BF00F8C7
:1002C000012B70474FF0000200B513469446964646
:1002D000203922BFA0E80C50A0E80C50B1F1200159
:1002E000BFF4F7AF090728BFA0E80C5048BF0CC007
:1002F0005DF804EB890028BF40F8042B08BF704765
:1003000048BF20F8022B11F0804F18BF00F8012BD6
:100310007047704770477047754600F02BF8AE463F
:1003200005006946534620F00700854618B020B501
:10033000FFF784FFBDE820404FF000064FF00007B4
:100340004FF000084FF0000B21F00701AC46ACE87D
:10035000C009ACE8C009ACE8C009ACE8C0098D46EA
:10036000704710B50446AFF300802046BDE810404A
:10037000FFF703BF00487047984500200149182047
:10038000ABBEFEE726000200704700BFFEE77047E5
:1003900010B54FF4004000F065FF10BD10B5082007
:1003A00000F060FF10BD10B5102000F05BFF10BD25
:1003B00010B5202000F056FF10BD72B600BFFEE75A
:1003C0000020094981F86803A1F86A0381F86C03E9
:1003D00081F86D0381F86E0381F86F03A1F86A0458
:1003E000A1F86C0470470000284100200120064954
:1003F00081F818030121044880F8191380F81A13B2
:1004000080F81B13704700002841002010B51C48DD
:1004100090F8350308B31B480078C8B9002412E0EF
:1004200001225102184801F0C3F8C82004F0A8FFC7
:1004300000224FF40071144801F0BAF8C82004F00B
:100440009FFF601CC4B2022CEADB01200D4908703A
:1004500000210B4880F8351311E006F095F80849A3
:10046000D1F83813401AB0F57A7F08D30122074932
:100470000748006802F0A4F800200249087010BD87
:100480002841002098000020000C01404C4400202E
:100490009400002010B504460D48046024210D4846
:1004A000FFF710FFFF210C4880F8441380F8401339
:1004B00080F8411380F8421380F83E1380F83F1310
:1004C000012204490248006802F07AF810BD0000D9
:1004D000940000204C4400202841002010B500F07A
:1004E0000FF8FFF76DFFFFF781FF01220249034874
:1004F00002F066F810BD000028410020080100202D
:1005000000204549086017E000204449424A12682B
:100510008854002141489C303F4A126881549C30E5
:100520003D4A12688154DC303B4A126881543A4893
:100530000068401C38490860374800684028E3DB01
:1005400000203549086026E0002134488030324AD6
:1005500012688154001D304A1268815498302E4A26
:1005600012688154001D2C4A1268815498302A4A1E
:1005700012688154001D284A126881549830264A16
:1005800012688154001D244A126881542248006870
:10059000401C21490860204800680428D4DB002062
:1005A0001E49A1F8880000211C48A0F82411A0F8D9
:1005B000C011A0F85C1200201849A1F88A0000219F
:1005C0001648A0F82611A0F8C211A0F85E1200206B
:1005D0001249A1F8900000211048A0F82C11A0F8B1
:1005E000C811A0F8641200200C49A1F89200002163
:1005F0000A48A0F82E11A0F8CA11A0F8661200202F
:100600000649A1F8940000210448A0F83011A0F890
:10061000CC11A0F8681270478C00002028410020FF
:100620000146002291F82100022808D004208863A6
:1006300000BF002081F8200000BF0120704708683B
:10064000006820F00E000B6818600868006820F051
:1006500001000B68186091F8403001209840CB6B86
:100660005860012081F8210000BF002081F820009F
:1006700000BF1046E2E7000070B50446002594F87C
:100680002100022803D00420A063012548E020684F
:10069000006820F00E00216808602068006820F0E3
:1006A0000100216808601F492068884201D10120AB
:1006B00026E01C4914312068884201D110201FE037
:1006C000184928312068884201D1801518E0154961
:1006D0003C312068884201D1801411E01149503129
:1006E0002068884202D14FF4803009E00D4964311E
:1006F0002068884202D14FF4801001E04FF08070F2
:10070000084908394860012084F8210000BF002012
:1007100084F8200000BF606B10B12046616B8847F1
:10072000284670BD0800024010B50446082C76D15A
:10073000FE4890F89303002872D1FC4890F87C039F
:1007400001287DD1FA4803F0F5FD30B94FF47A70F5
:1007500004F092F80820F7490860F44890F87E0306
:1007600040B9F248B0F8DA03401E01B2EF48A0F8F1
:10077000DA1307E0ED48B0F8DA03401C01B2EB48A9
:10078000A0F8DA1305F00EFAE848B0F9DA03022807
:1007900009DAE648B0F87A03502804DD5021E3482E
:1007A000A0F87A13A7E1E148B0F9DA03042809DADE
:1007B000DE48B0F87A035A2804DD5A21DB48A0F855
:1007C0007A1398E1D948B0F9DA03062809DAD7484C
:1007D000B0F87A03872804DD8721D448A0F87A137B
:1007E00089E1D248B0F9DA03082809DACF48B0F82D
:1007F0007A03B42804DDB421CC48A0F87A137AE156
:10080000CA48B0F9DA030A280BDAC848B0F87A0304
:10081000E62806DDE621C548A0F87A136BE171E110
:100820000EE0C248B0F9DA033C28BBDABF48B0F8A2
:100830007A03FA28B6DBFA21BC48A0F87A135AE109
:10084000BA4890F893030028ACD0B94803F072FD81
:1008500030B94FF47A7004F00FF80820B5490860F9
:10086000B24890F87E0340B9B048B0F8DA03401EB1
:1008700001B2AE48A0F8DA1307E0AC48B0F8DA03EA
:10088000401C01B2A948A0F8DA1305F08BF9A7487B
:1008900090F87C0302280FD1A44890F8E113B0F936
:1008A000DA0381428DD1032004F0E2F904F034FA36
:1008B0000120A14908701EE19C4890F87C030128A2
:1008C0008ED19A4890F8E603012814D19748B0F9E0
:1008D000DA1390F8E003001D81420CDB934890F896
:1008E000E80340B9914890F87E03012803D1012123
:1008F0008E4880F8E8138D4890F8E603012813D15C
:100900008A48B0F9DA1390F8DC03001F81420BDB50
:10091000864890F8E803012806D1844890F87E03C1
:10092000012801D105F08EF9804890F8E6030428EB
:1009300015D17E48B0F9DA1390F8E3030838814204
:100940000DDB7A4890F8EC03012808D1774890F83D
:100950007E03012803D10221744880F8EC13734808
:1009600090F8E603042814D17048B0F9DA1390F82F
:10097000E003001D81420CDB6C4890F8EC0340B9A9
:100980006A4890F87E03012803D10121674880F866
:10099000EC13664890F8D813B0F9DA0381420BD112
:1009A000032004F065F9614890F8E603012804D1BA
:1009B00001215E4880F825149DE05C4890F8E6032C
:1009C000042804D10121594880F8281493E057489D
:1009D00090F8E603062804D10121544880F82A142F
:1009E00089E0524890F8E603072809D14F4890F86B
:1009F0004004042804D101214C4880F82B147AE0EB
:100A00004A4890F8E603082809D1484890F841047C
:100A1000042804D10121454880F82C146BE0434898
:100A200090F8E603092809D1404890F842040428C8
:100A300004D101213D4880F82D145CE03B4890F83A
:100A4000E6030B280DD1394890F88A03012808D114
:100A50003A480078012804D10121344880F82F1445
:100A600049E0324890F8E6030B2809D12F4890F866
:100A70008A03022804D102212C4880F82F143AE07E
:100A80002A4890F8E6030B2809D1284890F88A03F1
:100A9000032804D10321254880F82F142BE0234894
:100AA00090F8E6030B2809D1204890F88A0304281F
:100AB00004D104211D4880F82F141CE01B4890F835
:100AC000E6030B2809D1194890F88A03052804D1B8
:100AD0000521164880F82F140DE0144890F8E6031D
:100AE0000C2808D1114890F84504042803D10421AA
:100AF0000E4880F830144FF47A7003F0BDFE0820E1
:100B00000C490860102C72D1084890F87C03012829
:100B10006ED1064890F8B303012826D1022103487C
:100B200080F8B313B0F8C403401E09E02841002048
:100B30001283403D1404014088000020A5000020DD
:100B400081B2FD48A0F8C013022004F091F8FA49E0
:100B500091F87403012104F0C9FC41F2883003F0DC
:100B60008BFE1020F549086010BDF34890F8B303E0
:100B700000287CD1F2480078012810D1EE48D0F846
:100B8000D003B4280BD1EF4803F002FCA0B941F226
:100B9000883003F071FE1020E8490860E4E74FF068
:100BA0007A5003F0F5FB38B941F2883003F064FE67
:100BB0001020E2490860D7E7E148007840B1022000
:100BC00005F04AF8DE480078401EDD49087000BF95
:100BD000D94890F8AD1390F8AF03814209D041F2A3
:100BE000883003F049FE1020D4490860BCE7FFE0DC
:100BF000A7E042F2107003F03FFE022004F038F844
:100C0000CD4991F87403012104F070FCCA4890F8B2
:100C1000E603012809D1C84890F88003022804D1CE
:100C20000121C54880F811146CE0C34890F8E60330
:100C3000022808D1C04890F8810320B10121BE48A4
:100C400080F812145EE0BC4890F8E60304280FD147
:100C5000B94890F88303022804D0B74890F883037A
:100C6000032805D10121B44880F814144AE060E05B
:100C7000B14890F8E603072809D1AF4890F88603F9
:100C8000022804D10121AC4880F817143AE0AA48A0
:100C900090F8E603082809D1A74890F887030228AE
:100CA00004D10121A44880F818142BE0A24890F840
:100CB000E603092809D1A04890F88803022804D146
:100CC00001219D4880F819141CE09B4890F8E60328
:100CD0000B2809D1984890F88A03032804D10121F0
:100CE000954880F81B140DE0934890F8E6030C2813
:100CF00008D1914890F88B03022803D101218E4836
:100D000080F81C148C4890F8380458280DD18A4873
:100D100090F8E6030B2808D1874890F88A03052845
:100D200003D10221844880F81B14102083490860F5
:100D30001AE741F2883003F09FFD10207F490860D8
:100D400012E77D4890F87C03022810D17A4991F887
:100D50007403012104F0CAFB022003F089FF41F271
:100D6000883003F089FD102074490860FCE6724861
:100D700090F87C0398BB704890F87D0338B941F235
:100D8000883003F079FD10206C49086026E06A483D
:100D900090F87D03012821D1674991F8740301215E
:100DA00004F0A4FB022003F063FF634890F864049E
:100DB000012803D10021604880F864145E4890F84F
:100DC0006504012803D100215B4880F8651441F2D5
:100DD000883003F051FD102058490860C4E6FFE751
:100DE00041F2883003F048FD102054490860BBE60A
:100DF000202C7CD1504890F87C03012878D14E48B3
:100E000090F8B203012814D102214B4880F8B213A4
:100E1000012003F02DFF484991F87003012104F0EF
:100E200055FB41F2883003F027FD2020434908603C
:100E30009AE6414890F8B20300287CD142480078F5
:100E4000012810D13C48D0F8CC03B4280BD13D4840
:100E500003F086FAA0B941F2883003F00DFD20209E
:100E60003649086080E64FF07A5003F079FA38B9D5
:100E700041F2883003F000FD20203049086073E61D
:100E80003148007840B1012004F0E6FE2E48007899
:100E9000401E2D49087000BF274890F8AC1390F809
:100EA000AE03814207D041F2883003F0E5FC2020F8
:100EB0002249086058E64FF4FA5003F0DDFC0120A7
:100EC00003F0D6FE1C4991F87003012104F0FEFAEC
:100ED000194890F8E60301280BD1174890F88003D1
:100EE000022806D10121144880F8FD1378E0E5E0DE
:100EF00095E0114890F8E603022808D10E4890F8D2
:100F0000810320B101210C4880F8FE1368E00A48F3
:100F100090F8E603042819D1074890F883030228C3
:100F200004D0054890F8830303280FD1012102481B
:100F300080F8001454E06AE02841002014040140C5
:100F40008A000020F628DC3E89000020C14890F885
:100F5000E603072809D1BF4890F88603022804D188
:100F60000121BC4880F803143AE0BA4890F8E6033F
:100F7000082809D1B74890F88703022804D1012135
:100F8000B44880F804142BE0B24890F8E60309282E
:100F900009D1B04890F88803022804D10121AD4856
:100FA00080F805141CE0AB4890F8E6030B2809D143
:100FB000A84890F88A03032804D10121A54880F8A5
:100FC00007140DE0A34890F8E6030C2808D1A148C7
:100FD00090F88B03022803D101219E4880F8081461
:100FE0009C4890F8380444280DD19A4890F8E603BC
:100FF0000B2808D1974890F88A03052803D10221CD
:10100000944880F80714202093490860ACE541F229
:10101000883003F031FC20208F490860A4E58D481A
:1010200090F87C03022810D18A4991F870030121BD
:1010300004F04CFA012003F01BFE41F2883003F06B
:101040001BFC2020844908608EE5824890F87C03D0
:1010500060BB804890F87D0338B941F2883003F0D6
:101060000BFC20207C4908601FE07A4890F87D0343
:1010700001281AD103F0FCFD764890F8620401289B
:1010800003D10021734880F86214724890F8630419
:10109000012803D100216F4880F8631441F28830A1
:1010A00003F0EAFB20206C4908605DE541F28830DE
:1010B00003F0E2FB20206849086055E5B4F5004FD5
:1010C00072D100216348A0F8DA1390F8930318B99D
:1010D0000121604880F893135E4991F8780301215B
:1010E00004F014FA032003F0C3FD5A4890F87C037F
:1010F00002280DD15948007850B9564890F8AB03F2
:1011000098BB03F0DFFD0121524880F8AB1396E055
:10111000504890F87C0302280CD1504800780128F0
:1011200008D14F4800784B4981F87C0300204B4997
:10113000087084E0474890F87C0301287FD1454837
:1011400090F8E603032804D0424890F8E603042808
:101150000CD1404890F87E0340B93E4890F82704EF
:1011600018B901213B4880F8271468E0394890F805
:10117000E603052809D1374890F88403022804D1F2
:101180000121344880F8291459E0324890F8E603E8
:1011900007280AD12F4890F84004012805D10221E0
:1011A0002C4880F840144AE051E02A4890F8E603C1
:1011B000082809D1274890F84104012804D10221C8
:1011C000244880F841143AE0224890F8E6030928C0
:1011D00009D1204890F84204012804D102211D4879
:1011E00080F842142BE01B4890F8E6030A2809D146
:1011F000184890F84304012804D10221154880F8CA
:1012000043141CE0134890F8E6030C2809D1114858
:1012100090F84504012804D102210E4880F84514B5
:101220000DE00C4890F8E6030D2808D1094890F825
:101230004604012803D10221064880F8461441F2F1
:10124000883003F019FB4FF400400349086000BFE9
:101250008AE4000028410020140401408800002096
:10126000AB00002010B5044604480068204020B1BF
:10127000024804602046FFF757FA10BD14040140ED
:101280002DE9F8470346002294466EE14FF001082D
:1012900008FA02F4D1F8008008EA0400A0427DD1E7
:1012A000DFF8DCA2D1F80480A8EB0A09D0453AD0D7
:1012B00014DCB8F1030F50D009DCB8F1000F31D0C5
:1012C000B8F1010F1CD0B8F1020F49D120E0B8F1FC
:1012D000110F18D0B8F1120F42D11EE0B9F5881FD6
:1012E00025D006DCB9F5803F20D0B9F5801F37D175
:1012F0001AE0B9F5001F18D0B9F5041F30D117E076
:10130000D1F80CC02DE0D1F80C8008F1040C28E0D5
:10131000D1F80C8008F1080C23E0D1F80C8008F11A
:101320000C0C1EE000BF00BF00BF00BF00BF00BF2D
:10133000D1F80880B8F1000F02D14FF0040C0BE097
:10134000D1F80880B8F1010F03D14FF0080C1C61EF
:1013500002E04FF0080C5C6103E04FF0000C00E08D
:1013600000BF00BFFF2801D8984601E003F1040840
:101370004646FF2802D84FEA820803E0A2F1080897
:101380004FEA88084746D6F800804FF00F0909FA5F
:1013900007F928EA09080CFA07F900E088E048EAAA
:1013A0000908C6F80080D1F8048008F08058B8F128
:1013B000805F7DD100BFDFF8CC81D8F8188048F07D
:1013C0000108DFF8C091C9F81880C846D8F818801D
:1013D00008F00108CDF8008000BF00BF4FEAB9381F
:1013E0004FEA920958F829504FEA82784FEA187963
:1013F0004FF00F0808FA09F825EA0805DFF8888198
:10140000434502D14FF0000816E0DFF880814345E4
:1014100002D14FF001080FE0DFF87481434502D19B
:101420004FF0020808E0DFF86C81434502D14FF02D
:10143000030801E04FF004084FEA82794FEA197976
:1014400008FA09F848EA0505DFF84C814FEA9209E5
:1014500048F82950D1F8048008F48018B8F5801FA6
:101460000AD1DFF83881D8F8008048EA0008DFF8B0
:101470002C91C9F8008009E0DFF82081D8F80080BD
:1014800028EA0008DFF81491C9F80080D1F8048038
:1014900008F40018B8F5001F10D1DFF8008108F13A
:1014A0000408D8F8008048EA0008DFF8F09000E06F
:1014B0005AE009F10409C9F800800DE0DFF8DC808A
:1014C00008F10408D8F8008028EA0008DFF8CC907A
:1014D00009F10409C9F80080D1F8048008F4003843
:1014E000B8F5003F0ED1DFF8B480A8F10408D8F8B1
:1014F000008048EA0008DFF8A490A9F10409C9F8BF
:1015000000800DE0DFF89480A8F10408D8F800808E
:1015100028EA0008DFF88490A9F10409C9F80080DE
:10152000D1F8048008F48038B8F5803F0ED1DFF898
:101530006C80A8F10808D8F8008048EA0008DFF8B5
:101540005C90A9F10809C9F800800DE0DFF84C8033
:10155000A8F10808D8F8008028EA0008DFF83C90D5
:10156000A9F10809C9F80080521CD1F8008028FAB6
:1015700002F8B8F1000F7FF489AEBDE8F8870000EB
:10158000000011100010024000080140000C014052
:10159000001001400014014008000140080401400F
:1015A000024693680B400BB1012000E00020704719
:1015B0000AB1016101E00B04036170470148006852
:1015C000704700001800002070B504460CB90120D7
:1015D00070BD94F83D0028B9002084F83C002046F6
:1015E00000F0DAF8242084F83D002068006820F03C
:1015F0000100216808602068006840F4004021680C
:1016000008602068006820F400402168086000F04D
:10161000C3FA05465C496068884206D85B48854243
:1016200001D2012007E0002005E05948854201D29F
:10163000012000E00020012800D1C9E75548B5FB92
:10164000F0F62068406820F03F0030432168486091
:101650004D496068884201D8701C07E04FF49670CD
:1016600070434FF47A71B0FBF1F0401C2168096AB5
:1016700021F03F01084321680862434960688842BD
:1016800014D8681E61684900B0FBF1F0401CC0F33B
:101690000B00042801D204203DE0681E6168490067
:1016A000B0FBF1F0401CC0F30B0034E0A06838B987
:1016B000681E616801EB4101B0FBF1F0401C0AE0DB
:1016C000681E616801EBC10202EB0111B0FBF1F091
:1016D000401C40F48040C0F30B0008B901201AE020
:1016E000A06848B9681E616801EB4101B0FBF1F0E8
:1016F000401CC0F30B000CE0681E616801EBC102E6
:1017000002EB0111B0FBF1F0401CC0F30B0040F400
:10171000804040F400402168C9694CF6FF72914353
:1017200008432168C861D4E90701084321680968B2
:1017300021F0C001084321680860D4E90310084380
:101740002168896848F2FF32914308432168886024
:10175000D4E9050108432168C96821F0FF01084365
:101760002168C8602068006840F0010021680860B6
:1017700000202064202084F83D000020206384F8AD
:101780003E0000BF24E70000A086010080841E0008
:1017900000093D0040420F0010B586B0044600200D
:1017A000029003900490059015492068884225D145
:1017B00000BF1448806940F008001249886108465B
:1017C000806900F00800019000BF00BFC0200290B7
:1017D000122003900320059002A90B48FFF750FD4B
:1017E00000BF0848C06940F400100649C8610846B7
:1017F000C06900F40010019000BF00BF06B010BD2A
:101800000054004000100240000C014003480068F2
:10181000034909780844014908607047180000200E
:101820002000002010B50848006840F0100006496C
:101830000860032000F0AEF80F2000F007F800F079
:101840002BF8002010BD00000020024070B50446B7
:101850000E4800784FF47A71B1FBF0F00C4909683A
:10186000B1FBF0F5284600F021FC08B1012070BD65
:10187000102C07D200222146501E00F04DF80548DA
:10188000046001E00120F2E70020F0E720000020E2
:10189000240000201C00002008B500BF1448806907
:1018A00040F00100124988610846806900F001009B
:1018B000009000BF00BF00BF0846C06940F08050E4
:1018C000C8610846C06900F08050009000BF00BFAA
:1018D00000220F21901E00F01FF800BF0549486844
:1018E00020F0E06040F00070486000BF08BD0000DC
:1018F000001002400000014001460846002809DBB4
:1019000000F01F0301229A4043099B0003F1E023EA
:10191000C3F8002100BF70472DE9F05F80460D46F7
:101920001646002702F0EAFC074639462A463346A7
:1019300001F00700C0F1070ABAF1040F02D94FF015
:10194000040A01E0C0F1070AD14600F1040ABAF125
:10195000070F02D24FF0000A01E0A0F1030AD446BB
:101960004FF0010A0AFA09FAAAF1010A0AEA020A80
:101970000AFA0CFA4FF0010B0BFA0CFBABF1010B5E
:101980000BEA030B4AEA0B042146404602F0BEFC78
:10199000BDE8F09F00BF00F00702064B19684FF644
:1019A000FF031940044B0B4343EA0221014B19602A
:1019B00000BF70470CED00E00000FA0500BF00BF5B
:1019C00000BF00BF00BFBFF34F8F00BF00BF00BF0D
:1019D0000948006800F4E06008490843001D064912
:1019E000086000BF00BF00BFBFF34F8F00BF00BF44
:1019F00000BF00BF00BFFDE70CED00E00000FA05EE
:101A000070B504460D460CB9012070BD5A480068F7
:101A100000F00700A8420ED25748006820F00700E7
:101A20002843554908600846006800F00700A842AE
:101A300001D00120E9E7207800F0020002281DD142
:101A4000207800F00400042805D14C48406840F498
:101A5000E0604A494860207800F00800082805D175
:101A60004648406840F460504449486043484068F4
:101A700020F0F000A168084340494860207800F059
:101A8000010078B36068012806D13C48006800F482
:101A9000003090B90120B8E76068022806D13748C5
:101AA000006800F0007040B90120AEE733480068DC
:101AB00000F0020008B90120A7E73048406820F094
:101AC0000300616808432D494860FFF777FD06462B
:101AD00009E0FFF773FD801B41F28831884202D98B
:101AE000032092E707E02548406800F00C00616899
:101AF000B0EB810FEDD12048006800F00700A8424C
:101B00000ED91D48006820F0070028431A490860D4
:101B10000846006800F00700A84201D0012074E7E1
:101B2000207800F00400042807D11448406820F40D
:101B3000E060E168084311494860207800F008003F
:101B4000082808D10D48406820F46050216940EA17
:101B5000C1000A49486000F03FF808494968C1F3EC
:101B60000311074A515CC8400649086006480068EE
:101B7000FFF76CFE002048E7002002400010024002
:101B80005E6C0008240000201C0000200148006852
:101B9000704700002400002000B5FFF7F7FF04495C
:101BA0004968C1F30221034A515CC84000BD0000EE
:101BB000001002406E6C000800B5FFF7E7FF044913
:101BC0004968C1F3C221034A515CC84000BD00000E
:101BD000001002406E6C000870B500210022002445
:101BE00000230020134D696801F00C05F5B1042DA8
:101BF00002D0082D19D101E00F4819E00F4DC1F3B3
:101C00008346AB5D01F4803555B10A4D6D68C5F36F
:101C100040450B4E725D084D5D43B5FBF2F402E0AA
:101C2000084D03FB05F4204602E000BF024800BF58
:101C300000BF70BD0010024000127A004C6C00081A
:101C40005C6C000800093D00F8B504460CB90120A1
:101C5000F8BD207800F00100002878D0F8484068EE
:101C600000F00C0004280CD0F548406800F00C008F
:101C7000082811D1F248406800F48030B0F5803F68
:101C80000AD1EF48006800F4003000285FD0606897
:101C900000285CD10120DBE700BF6068B0F5803F21
:101CA00006D1E748006840F48030E549086028E044
:101CB000606858B9E248006820F48030E049086064
:101CC0000846006820F4802008601AE06068B0F5DB
:101CD000A02F0BD1DA48006840F48020D849086072
:101CE0000846006840F4803008600AE0D448006884
:101CF00020F48030D24908600846006820F4802033
:101D0000086000BF606888B1FFF758FC054606E030
:101D1000FFF754FC401B642801D9032098E7C8480A
:101D2000006800F400300028F2D010E0FFF746FC15
:101D3000054606E0FFF742FC401B642801D903205A
:101D400086E7BF48006800F400300028F2D1207810
:101D500000F00200022857D1B948406800F00C009A
:101D600050B1B748406800F00C00082818D1B448BA
:101D7000406800F4803098B9B148006800F0020073
:101D800020B12069012801D0012061E7AC4800683A
:101D900020F0F800616940EAC100A949086033E019
:101DA0002069E8B10120A7490860FFF707FC054654
:101DB00006E0FFF703FC401B022801D9032047E798
:101DC0009F48006800F002000028F2D09C4800689C
:101DD00020F0F800616940EAC1009949086013E009
:101DE000002098490860FFF7E9FB054606E0FFF789
:101DF000E5FB401B022801D9032029E79048006831
:101E000000F002000028F2D1207800F00800082835
:101E10002DD1A069B8B101208B490860FFF7CEFB36
:101E2000054606E0FFF7CAFB401B022801D9032044
:101E30000EE78348406A00F002000028F2D001203B
:101E400000F092FE13E000207F490860FFF7B6FB28
:101E5000054606E0FFF7B2FB401B022801D903202C
:101E6000F6E67748406A00F002000028F2D12078B8
:101E700000F00400042873D100277148C06900F005
:101E8000805070B900BF6E48C06940F080506C4906
:101E9000C8610846C06900F08050009000BF00BFD4
:101EA00001276A48006800F48070B0B9674800688C
:101EB00040F4807065490860FFF780FB054606E046
:101EC000FFF77CFB401B642801D90320C0E65F4874
:101ED000006800F480700028F2D000BFE06801289C
:101EE00006D15748006A40F001005549086227E0D2
:101EF000E06858B95248006A20F001005049086271
:101F00000846006A20F00400086219E0E06805282D
:101F10000BD14B48006A40F004004949086208466A
:101F2000006A40F0010008620AE04548006A20F0BB
:101F30000100434908620846006A20F00400086274
:101F400000BFE068A0B1FFF739FB054609E0FFF7E5
:101F500035FB401B41F28831884202D9032077E6E5
:101F600022E03748006A00F002000028EFD012E0BB
:101F7000FFF724FB054608E0FFF720FB401B41F27A
:101F80008831884201D9032062E62D48006A00F0BA
:101F900002000028F0D1012F05D12948C06920F0A6
:101FA00080502749C86100BFE069C8B32448406831
:101FB00000F00C00082860D0E069022848D1002019
:101FC00020490866FFF7FAFA054606E0FFF7F6FA39
:101FD000401B022801D903203AE61948006800F0A6
:101FE00000700028F2D1206AB0F5803F07D1144874
:101FF000406820F40030A168084311494860D4E9E2
:10200000080108430E49496821F4741108430C493A
:10201000486001200B490866FFF7D0FA054607E043
:102020003DE0FFF7CBFA401B022801D903200FE661
:102030000348006800F000700028F2D02FE0000094
:102040000010024000004242800442420070004002
:10205000002014490866FFF7B1FA054606E0FFF7CD
:10206000ADFA401B022801D90320F1E50E480068B3
:1020700000F000700028F2D111E0E069012800D1E1
:10208000E6E50948466806F48031206A814204D1B9
:1020900006F47011606A814201D00120D8E5002069
:1020A000D6E50000000042420010024070B5044630
:1020B0002546681EB0F1807F01D301200FE0681E25
:1020C0004FF0E02148610F214FF0FF3002F01EF980
:1020D00000204FF0E021886107200861002070BDDA
:1020E000704770472DE9F84F04462068056820685E
:1020F000C668206847694FF00009CA4605F00F0915
:10210000B9F1000F0AD105F0200038B106F0200027
:1021100020B1204601F04AFFBDE8F88FB9F1000F69
:102120007BD007F0010018B906F49070002874D035
:1021300005F0010030B106F4807018B1606C40F019
:102140000100606405F0040030B107F0010018B12F
:10215000606C40F00200606405F0020030B107F0EE
:10216000010018B1606C40F00400606405F00800E4
:1021700048B106F0200010B907F0010018B1606CFA
:1021800040F008006064606C002845D005F0200035
:1021900028B106F0200010B1204601F007FF2068AA
:1021A0004069C0F3801A606C00F0080010B9BAF101
:1021B000000F2CD0204601F0B3FE2068406900F0EB
:1021C000400000B300BF00BF2168143151E8001F78
:1021D00021F040002168143141E80002002AF3D1C7
:1021E00000BFE06B50B17748E16B4863E06BFEF7EE
:1021F00043FA88B1E06B416B88470DE02046FFF75A
:1022000070FF09E009E02046FFF76BFF04E020467D
:10221000FFF767FF002060647EE7206B012877D11D
:1022200005F01000002873D006F010000028FAD046
:1022300000BF00200090206800680090206840687F
:10224000009000BF00BF2068406900F040000028F7
:102250005FD0E06B006840681FFA80F8B8F1000FAB
:1022600055D0A08D404552DDA4F82E80E06B8069EA
:10227000202843D000BF00BF21680C3151E8001F67
:1022800021F4807021680C3141E80002002AF3D16A
:1022900000BF00BF00BF2168143151E8001F21F0CA
:1022A00001002168143141E80002002AF3D100BF87
:1022B00000BF00BF2168143151E8001F21F0400029
:1022C0002168143141E80002002AF3D100BF202028
:1022D00084F842000020206300BF00BF21680C3159
:1022E00051E8001F21F0100021680C3141E8000284
:1022F000002AF3D100BFE06BFEF792F90220606381
:10230000A08DE28D801A81B22046FFF7E9FE03E737
:1023100042E0A08DE18D401A1FFA80F8E08DD0B325
:10232000B8F1000F37D000BF00BF21680C3151E871
:10233000001F21F4907021680C3141E80002002A4E
:10234000F3D100BF00BF00BF2168143151E8001F66
:1023500021F001002168143141E80002002AF3D184
:1023600000BF202084F842000020206300BF00BF8F
:1023700021680C3151E8001F21F0100021680C3158
:1023800041E80002002AF3D100BF02206063414609
:102390002046FFF7A5FEBFE605F0800030B106F04D
:1023A000800018B1204601F01DFFB5E605F04000A1
:1023B00030B106F0400018B1204601F0E7FDABE671
:1023C00000BFA9E60D3F000810B504460CB9012076
:1023D00010BDA06900B100E000BF94F8410028B929
:1023E000002084F84000204600F02AF8242084F8D9
:1023F00041002068C06820F400502168C860204671
:1024000001F052FE2068006920F4904021680861C4
:102410002068406920F02A00216848612068C0686F
:1024200040F400502168C86000206064202084F8D7
:10243000410084F842000020606300BFC8E700004C
:1024400010B586B0044600200290039004900590D9
:1024500055492068884237D100BF5448806940F40C
:102460008040524988610846806900F480400190AC
:1024700000BF00BF00BF0846806940F004008861CB
:102480000846806900F00400019000BF00BF4815B5
:102490000290022003900320059002A94448FEF711
:1024A000EFFE4FF48060029000200390049002A998
:1024B0003F48FEF7E5FE002205212520FFF72CFA14
:1024C0002520FFF719FA6DE03A49206888422ED19D
:1024D00000BF3648C06940F400303449C86108463E
:1024E000C06900F40030019000BF00BF00BF084683
:1024F000806940F0040088610846806900F00400AB
:10250000019000BF00BF042002900220039003202E
:10251000059002A92648FEF7B3FE0820029000208D
:102520000390049002A92248FEF7AAFE3AE022494D
:102530002068884236D100BF1C48C06940F4802022
:102540001A49C8610846C06900F48020019000BFA4
:1025500000BF00BF0846806940F008008861084657
:10256000806900F00800019000BF00BF08150290CC
:10257000022003900320059002A91048FEF780FE78
:102580004FF40060029000200390049002A90B48D1
:10259000FEF776FE002205212720FFF7BDF9272050
:1025A000FFF7AAF906B010BD003801400010024044
:1025B000000801400044004000480040000C014079
:1025C00070B504460D46164694F8420020280BD1FB
:1025D00005B10EB9012070BD0020206332462946A6
:1025E000204601F0DFFDF6E70220F4E710B50446CF
:1025F00082492068884201D102F002FF80492068A8
:1026000088427CD17F4890F87C03012878D17E48AD
:10261000007861280CD17B4890F8950340B90121DE
:10262000784880F8951380F8E613002180F880132D
:102630007548007862280DD1724890F8980348B91F
:102640000121704880F89813042180F8E6130021D6
:1026500080F883136C48007863280DD1694890F89E
:10266000990348B90121674880F89913052180F83A
:10267000E613002180F88413634800784D2807D1C1
:10268000604890F89A0318B901215E4880F89A13BF
:102690005D48007831280DD15A4890F89B0348B91D
:1026A0000121584880F89B13072180F8E613002188
:1026B00080F8861354480078642808D1514890F86F
:1026C0009B03012803D102214E4880F89B134E48FA
:1026D000007832280DD14B4890F89C0348B901216D
:1026E000484880F89C13082180F8E613002180F800
:1026F00087134548007865280BD1424801E07CE00B
:1027000076E090F89C03012803D102213D4880F82F
:102710009C133D48007833280DD13A4890F89D032A
:1027200048B90121374880F89D13092180F8E61344
:10273000002180F8881334480078662808D1314891
:1027400090F89D03012803D102212E4880F89D13A3
:102750002D48007834280DD12A4890F89E0348B9B6
:102760000121284880F89E130A2180F8E6130021F1
:1027700080F8891324480078672808D1214890F808
:102780009E03012803D102211E4880F89E131E4893
:10279000007835280DD11B4890F8A00348B90121D5
:1027A000184880F8A0130C2180F8E613002180F867
:1027B0008B1315480078682808D1124890F8A003B8
:1027C000012803D102210F4880F8A0130E48007899
:1027D00036280DD10B4890F8A10348B901210948CA
:1027E00080F8A1130D2180F8E613002180F88C13E6
:1027F000012205490548FFF7E3FE10BD00380140FE
:102800000048004028410020A2000020980100203C
:102810002DE9F84F04460E46174699464FF0000A38
:1028200094F8410020284AD106B117B90120BDE82B
:10283000F88F00206064212084F84100FEF7BEFE7E
:102840008246A784E784A068B0F5805F04D1206940
:1028500010B90025B04602E035464FF000081BE0F5
:102860005346002280212046CDF8009001F0EAFC7A
:1028700008B10320DBE745B9B8F80000C0F3080051
:102880002168486008F1020803E028782168486060
:102890006D1CE08C401EE084E08C0028E0D15346A3
:1028A000002240212046CDF8009001F0CBFC08B179
:1028B0000320BCE7202084F841000020B7E7022075
:1028C000B5E7704700BFFEE700B585B00020019076
:1028D00002900390049000BF6348806940F01000AC
:1028E000614988610846806900F01000009000BFCF
:1028F00000BF00BF0846806940F02000886108469C
:10290000806900F02000009000BF00BF00BF0846B3
:10291000806940F0040088610846806900F0040086
:10292000009000BF00BF00BF0846806940F008006B
:1029300088610846806900F00800009000BF00BF71
:1029400000224FF460414948FEF732FE002241F672
:10295000F3114748FEF72CFE00224FF2073145489D
:10296000FEF726FE4FF46040019001200290002007
:1029700003900320049001A93C48FEF781FC41F636
:102980000310019001200290002003900320049086
:1029900001A93748FEF774FCF02001900120029055
:1029A000002003900220049001A93148FEF768FC42
:1029B0004FF20710019001200290002003900220A6
:1029C000049001A92B48FEF75BFC4FF400400190F6
:1029D000294802900020039001A92548FEF750FCE9
:1029E00008200190254802900020039001A9214869
:1029F000FEF746FC302001901F4802900020039013
:102A000001A91C48FEF73CFC4FF400700190012026
:102A10000290002003900320049001A91548FEF7BE
:102A20002FFC002206210920FEF776FF0920FEF781
:102A300063FF002207210A20FEF76EFF0A20FEF73F
:102A40005BFF002207211720FEF766FF1720FEF725
:102A500053FF002206212820FEF75EFF2820FEF704
:102A60004BFF05B000BD0000001002400010014007
:102A700000080140000C014000002110000031104E
:102A800010B50B480B4908606420486000210948D4
:102A90008160C1604FF48041016100214161816129
:102AA000C1610162FEF790FD08B1FDF786FC10BD23
:102AB00000540040B400002010B50B480B490860DA
:102AC0004FF4E1304860002108488160C160016135
:102AD0000C21416100218161C161FFF775FC08B1E2
:102AE000FDF76BFC10BD000000380140080100201C
:102AF00010B50B480B4908604FF4E13048600021E5
:102B000008488160C16001610C214161002181613F
:102B1000C161FFF759FC08B1FDF74FFC10BD000083
:102B2000004400405001002010B50B480B490860DC
:102B30004FF4E1304860002108488160C1600161C4
:102B40000C21416100218161C161FFF73DFC08B1A9
:102B5000FDF733FC10BD0000004800409801002044
:102B600000BFFEE700BFFEE708B508490968C908CD
:102B70004FF47A72B1FBF2F14143009100BF00BF04
:102B800000994A1E00920029F9D108BD24000020B6
:102B900002F032F803F092F801F09AFE00BF012033
:102BA00002F0EEFB0A4A92F8721392F8700302F0F8
:102BB0008DFC074A92F8761392F8740302F096FCA3
:102BC000034A92F87A1392F8780302F09FFCE6E742
:102BD000284100200448FDF75DFC00BF012002F001
:102BE000CFFBFDF713FCF9E70801002002F010F914
:102BF00000BF012002F0C4FB6C4890F83E0300F0D7
:102C0000010050B9694890F83E03C0F3C01020B9E4
:102C10004421664880F838140FE0644890F83E0379
:102C200000F0010048B9614890F83E03C0F340103D
:102C300018B958215D4880F8381402F079F85B48DB
:102C400090F83E0300F00100A8B95848B0F83E03E0
:102C5000C0F3402078B9554890F8AA0378B9534892
:102C600090F87D0380F00101504880F87D13012128
:102C700080F8AA1303E000214C4880F8AA134B48BF
:102C800090F87C0301281CD1484890F8E6030B28F3
:102C900017D1464890F88A03042812D14348D0F847
:102CA0004003C0F3405060B9404991F878030121D6
:102CB00002F02CFC032001F0DBFF04213B4880F8EC
:102CC0002F143A4890F87C03012863D1374890F8D4
:102CD000B20301281CD1354890F8C603012859D108
:102CE0003248B0F872030F280EDD3049B1F8720394
:102CF000C11700EB5171CA102C49B1F87213891A2F
:102D00008AB22A49A1F87223502002F039FB41E02F
:102D1000264890F8C60301283CD12448B0F8720335
:102D2000282826DD2148D0F8CC03B4280ED11F482E
:102D3000B0F87203072190FBF1F11C48B0F8720360
:102D4000401A81B21948A0F8721312E01748D0F85F
:102D5000CC035A280DD11548B0F87203052190FB19
:102D6000F1F11248B0F87203401A81B20F48A0F88E
:102D700072130E48D0F8CC03B42803D1822002F09D
:102D8000FFFA07E00948D0F8CC035A2802D15F20A7
:102D900002F0F6FA054890F87C0300287FF429AF8A
:102DA00002F058F901F0C4FD23E70000284100209B
:102DB00003F090F800BF012002F0E2FAF84890F822
:102DC0003E03C0F3C00080B9F54890F8A90380B96C
:102DD000F34890F87C0380F00100F14981F87C030E
:102DE0000121EF4880F8A91303E00021EC4880F8A6
:102DF000A913EB4890F87C030128DCD1E94800785E
:102E000038B90122E849E948FFF7DAFB0120E54932
:102E10000870E34890F8E603012871D1E04890F883
:102E2000800328B902F0ACFF0121DD4880F880134F
:102E3000DB4890F88003012824D1D94890F8E803B2
:102E400001281FD102F09AFE5A21012001F026FF2D
:102E5000022002F093FE5A21022001F01FFF02F02F
:102E60005DFEDC220021012003F008FD052002F0B8
:102E700087FADC220121022003F000FD0221C8486C
:102E800080F88013C64890F8FD03012812D1C44889
:102E900090F8110401280DD1C14890F8C80348B931
:102EA0000121BF4880F8C813642002F069FA0020AD
:102EB00001F086FABA4890F8FD0301289DD1B84880
:102EC00090F81104012898D1B54890F825040128FC
:102ED00093D1B34890F8C80348B90121B04880F8AD
:102EE000C813642002F04CFA002001F069FA0221B4
:102EF000AB4880F8E613002180F881135BE7FFE719
:102F0000A74890F8E603022830D1A54890F881033D
:102F100028B902F05BFF0121A14880F881136120EC
:102F2000A3490870142002F04DFE9D4890F8120449
:102F30000128E3D19A4890F8FE030128DED1984891
:102F400090F8C8030028D9D10121954880F8C8130A
:102F5000642002F015FA002001F032FA03219048B3
:102F600080F8E613002180F8821324E78C4890F85B
:102F7000E60303280BD18A4890F882030028BDD1CC
:102F800002F04DFF0121864880F8821313E7844840
:102F900090F8E60304285BD1814890F8830308B9D0
:102FA00001F060FC7E4890F8830370B97C4890F88B
:102FB0002704012809D14FF4167002F0E1F902F05C
:102FC00043FF0121764880F88313754890F8EC039D
:102FD00001280AD1724890F88303012805D102F034
:102FE00047FF02216E4880F883136D4890F8000473
:102FF000012812D16A4890F8140401280DD16848BC
:1030000090F8C80348B90121654880F8C8136420C6
:1030100002F0B6F9002001F0D3F9614890F8EC0312
:103020000228A2D15E4890F88303022809D102F059
:1030300009FE03215A4880F883134FF4967002F07A
:103040009FF942205A490870142002F0BBFDB2E6F5
:10305000534890F8E60305282BD1514890F8840393
:1030600028B901F0FFFB01214D4880F884134C483A
:1030700090F8840301280AD140F2B63002F080F9BA
:10308000FA2001F009FC0221454880F884134448E5
:1030900090F829040128DAD1414890F884030228E5
:1030A000D5D106213E4880F8E613002180F885132B
:1030B00081E63B4890F8E603062831D1384890F87D
:1030C000850328B902F0EEFE0121354880F885130A
:1030D000334890F82A04012809D163203449087044
:1030E000142002F06FFD02212D4880F885132C4832
:1030F00090F885030228AAD1294890F89A0301285C
:10310000A5D14FF4FA7002F03BF9254991F8DE039E
:10311000502101F03DFF0321214880F885134AE644
:103120001F4890F8E60307287ED11D4890F88603D3
:10313000E0B91B4890F84004C0B94FF400411D4865
:10314000FEF72EFA58B95A2001F018FF02E00120CC
:1031500002F016F91248B0F9DA030528F7DBFA2075
:1031600001F09AFB01210E4880F840140C4890F8B9
:103170008603C8BB0A4890F84004022834D13220A4
:1031800002F0FEF8064890F83804442814D10021D3
:10319000012001F0E3FA0021052001F0DFFA18E038
:1031A00028410020A8000020A20000209801002053
:1031B000A300002000080140FC4890F8380458287B
:1031C00007D10021032001F0C9FA0021072001F0F6
:1031D000C5FA4FF4C87002F0D3F80121F34880F823
:1031E0008613032180F84014F04890F886030128E4
:1031F00011D1EE4890F8400403280CD1EB4991F826
:10320000DD03962101F0C4FE502002F0B9F804213C
:10321000E64880F84014E54890F8860301280CD170
:10322000E24890F8400400E04BE0042805D14E202D
:10323000DF4908700F2002F0C5FCDC4890F88603D7
:1032400001280AD1D94890F89B03022805D102F041
:103250007DFE0221D54880F88613D44890F80304F7
:10326000012817D1D14890F81704012812D1CF486E
:1032700090F8860302280DD1CC4890F8C80348B9CD
:103280000121CA4880F8C813642002F079F80120AF
:1032900001F096F8C54890F8C80301287FF42EAED7
:1032A000C24890F886030228F8D1C04890F82B0451
:1032B0000128F3D16420BE490870142002F082FC7A
:1032C00079E5BA4890F8E60308287DD1B74890F828
:1032D0008703E0B9B54890F84104C0B94FF4004104
:1032E000B448FEF75DF958B95A2001F047FE02E0F4
:1032F000012002F045F8AD48B0F9DA030528F7DB04
:10330000FA2001F0C9FA0121A84880F84114A74821
:1033100090F8870368BBA54890F84104022828D19B
:10332000322002F02DF8A14890F83804442808D142
:103330000021022001F012FA0021082001F00EFA0B
:103340000CE09A4890F83804582807D1002104204E
:1033500001F004FA0021062001F000FA4FF4C870D1
:1033600002F00EF80121914880F88713032180F8BC
:1033700041148E4890F8870301280ED18B4890F8AD
:103380004104032809D1894991F8DD03962101F010
:10339000FFFD0421854880F84114844890F8870394
:1033A00001280AD1814890F84104042805D14E2013
:1033B0007F4908700F2002F005FC7C4890F88703D5
:1033C00001283BD1794800E06CE090F89C0302288A
:1033D00034D102F0A3FB754890F83804442812D188
:1033E0005A21012001F05AFCB421022001F056FCC0
:1033F000FA220121084603F041FAFA2201210220B3
:1034000003F0EEF916E0694890F83804582811D115
:103410005A21022001F042FCB421012001F03EFCBF
:10342000FA220021022003F029FAFA2200210120C9
:1034300003F0D6F902215D4880F887135B4890F8C5
:103440000404012817D1594890F81804012812D112
:10345000564890F8870302280DD1544890F8C803C5
:1034600048B90121514880F8C813642001F088FF51
:10347000012000F0A5FF4D4890F8C80301287FF413
:103480003DAD4A4890F887030228F8D1474890F8A4
:103490002C040128F3D1652045490870142002F05E
:1034A00091FB88E4414890F8E60309287DD13F4824
:1034B00090F88803E0B93D4890F84204C0B94FF451
:1034C00000413C48FEF76CF858B95A2001F056FD0F
:1034D00002E0012001F054FF3448B0F9DA03052876
:1034E000F7DBFA2001F0D8F90121304880F84214C6
:1034F0002E4890F8880368BB2C4890F842040228B4
:1035000028D1322001F03CFF284890F838044428A4
:1035100008D10021032001F021F90021062001F04B
:103520001DF90CE0214890F83804582807D10021F3
:10353000022001F013F90021052001F00FF94FF4EA
:10354000C87001F01DFF0121184880F8881303217D
:1035500080F84214154890F8880301280ED11348CA
:1035600090F84204032809D1104991F8DD0396210F
:1035700001F00EFD04210D4880F842140B4890F82C
:10358000880301280AD1094890F84204042805D18B
:103590004E20074908700F2002F014FB034890F8F2
:1035A0008803012839D1014806E06AE0284100205B
:1035B000A30000200008014090F89D0302282CD1B0
:1035C00002F0ACFA5A21012001F068FB5A210220D6
:1035D00001F064FBFE4890F8380444280AD1FA222E
:1035E0000121084603F04AF9FA220121022003F0E2
:1035F00045F90EE0F64890F83804582809D1FA2227
:103600000021012003F03AF9FA220021022003F000
:1036100035F90221EE4880F88813ED4890F805044A
:10362000012817D1EA4890F81904012812D1E84876
:1036300090F8880302280DD1E54890F8C80348B9EE
:103640000121E34880F8C813642001F099FE0120AD
:1036500000F0B6FEDE4890F8C80301287FF44EACB7
:10366000DB4890F888030228F8D1D94890F82D0457
:103670000128F3D16620D7490870142002F0A2FA7D
:103680003CE4D34890F8E6030A2878D1D04890F873
:103690008903E0B9CE4890F84304C0B94FF4004123
:1036A000CD48FDF77DFF58B95A2001F067FC02E0D4
:1036B000012001F065FEC648B0F9DA030528F7DB02
:1036C000FA2001F0E9F80121C14880F84314C0480C
:1036D00090F8890368BBBE4890F84304022828D1BB
:1036E000322001F04DFEBA4890F83804442808D141
:1036F0000021042001F032F80021072001F02EF80B
:103700000CE0B34890F83804582807D10021012074
:1037100001F024F80021082001F020F84FF4967001
:1037200001F02EFE0121AA4880F88913032180F8B8
:103730004314A74890F8890301280AD1A44890F8B7
:103740004304032805D14E20A24908700F2002F03F
:1037500039FA9F4890F88903012891D19C4890F844
:103760009E0302288CD10221994880F889130B21ED
:1037700080F8E613002180F88A1307E4FFE79448F5
:1037800090F8E6030B287DD1914890F88A0380B920
:103790009248007868B98E4991F8E40302F008FB7A
:1037A00002F050FA01218A4880F88A1301208B49DF
:1037B0000870874890F82F04012830D1844890F889
:1037C0008A0301282BD14FF4C87001F0D9FD80483D
:1037D00090F83804442808D10121032000F0BEFFEE
:1037E0000121062000F0BAFF0CE0794890F8380477
:1037F000582807D10121022000F0B0FF0121052047
:1038000000F0ACFF4FF4C87001F0BAFD704991F8B8
:10381000E50302F0D4FA02216D4880F88A136C485F
:1038200090F82F04022815D1694890F88A030228DD
:1038300010D102F08BFB822001F0A2FD644991F8C7
:10384000E40302F0B5FA01206549087003216048DD
:1038500080F88A1362480078012805D15E205D490E
:103860000870142002F0AEF9594890F807040128B6
:1038700019D1574890F81B04012814D1544890F8E6
:103880008A0300E0FDE003280DD1514890F8C803F9
:1038900048B901214E4880F8C813642001F070FD3A
:1038A000012000F08DFD4A4890F80704012848D116
:1038B000474890F81B04012843D1454890F82F044D
:1038C00003283ED1424890F88A03032839D1404862
:1038D00090F8C80348B901213D4880F8C813642016
:1038E00001F04EFD012000F06BFD4FF4487001F037
:1038F00047FD374890F83804442808D101210420B6
:1039000000F02CFF0121052000F028FF0CE03048DA
:1039100090F83804582807D10121032000F01EFF39
:103920000121082000F01AFF4FF4967001F028FDE5
:10393000274991F8E50302F042FA0421244880F86F
:103940008A13234890F88A0304282FD1204890F83E
:103950002F0404282AD11E4890F8380444280BD19B
:1039600002F0F0F8B421012001F098F9FA220121C7
:10397000084602F035FF0FE0154890F83804582843
:103980000AD102F0EDF8B421022001F087F9FA2201
:103990000021022002F024FF0120124908700521B5
:1039A0000B4880F88A13642001F0EAFC0D48007887
:1039B000012803D00B480078022805D126200549AC
:1039C0000870142002F0FEF8014890F88A030BE01A
:1039D00028410020A300002000080140A50000208D
:1039E000A4000020AA00002005287FF469ACC84884
:1039F00090F83804442813D1C54890F807040228E9
:103A000026D1C34890F8C80310BB0121C04880F8F4
:103A1000C813642001F0B4FC012000F07FFD17E022
:103A2000BB4890F83804582812D1B94890F81B04C4
:103A300002280DD1B64890F8C80348B90121B4480E
:103A400080F8C813642001F09BFC012000F0B4FD55
:103A5000AF4890F82F040528C7D1AD4890F8C803A7
:103A60000128C2D1AA4890F88A030528BDD1642054
:103A700001F086FC6720A7490870142002F0A2F824
:103A80001EE4A34890F8E6030C287DD1A04890F8E6
:103A90008B03E0B99E4890F84504C0B94FF400414B
:103AA0009D48FDF77DFD58B95A2001F067FA02E004
:103AB000012001F065FC9648B0F9DA030528F7DB30
:103AC000FA2000F0E9FE0121914880F84514904861
:103AD00090F88B0368BB8E4890F84504022828D1E3
:103AE000322001F04DFC8A4890F83804442808D16F
:103AF0000021032000F032FE0021062000F02EFEFF
:103B00000CE0834890F83804582807D1002102209F
:103B100000F024FE0021052000F020FE4FF4C870C4
:103B200001F02EFC03217A4880F84514012180F829
:103B30008B13774890F88B0301280ED1744890F8C6
:103B40004504032809D1724991F8DD03642101F08D
:103B50001FFA04216E4880F845146D4890F88B03D5
:103B600001280AD16A4890F84504042805D14E205E
:103B7000684908700F2002F025F8654890F88B031B
:103B8000012833D1624800E064E090F8A0030228E5
:103B90002CD101F0C3FF5A21012001F07FF85A21F6
:103BA000022001F07BF85A4890F8380444280AD1E2
:103BB000FA220121084602F061FEFA2200210220C9
:103BC00002F05CFE0EE0524890F83804582809D103
:103BD000FA220121084602F051FEFA2200210220B9
:103BE00002F04CFE02214A4880F88B13484890F8B6
:103BF0000804012817D1464890F81C04012812D166
:103C0000434890F88B0302280DD1414890F8C8032F
:103C100048B901213E4880F8C813642001F0B0FB88
:103C2000012000F0CDFB3A4890F8C80301287FF44A
:103C300038AC374890F88B030228F8D1344890F814
:103C400030040428F3D1682032490870142001F0B0
:103C5000B9FF26E42E4890F8E6030D28F9D12C4848
:103C600090F88C03E0B92A4890F84604C0B94FF4A4
:103C700000412948FDF794FC58B95A2001F07EF91B
:103C800002E0012001F07CFB2148B0F9DA030528AD
:103C9000F7DBFA2000F000FE01211D4880F84614F1
:103CA0001B4890F88C0330BB194890F84604022852
:103CB00021D1322001F064FB154890F838044428E3
:103CC00008D10021042000F049FD0021052000F06A
:103CD00045FD0CE00E4890F83804582807D1002123
:103CE000032000F03BFD0021082000F037FD0121FA
:103CF000074880F88C13064890F88C030128A8D157
:103D0000362004490870142001F05CFFB8E400007C
:103D100028410020A30000200008014000BF01202E
:103D200001F02EFB204890F87C030128F7D11E48B3
:103D300090F8E6032D280DD101F084FF01F078FF03
:103D400001F04EF900F08AFF012001F053F9022042
:103D500001F050F9144890F8E60301280DD11248FB
:103D600090F8E903012808D101F06CFFA5210E4865
:103D7000A0F87A13022180F8E9130C480078012892
:103D8000CDD1642001F0FCFA00F06CFD4FF4C87056
:103D900001F0F6FA044991F8DD03962101F0F8F8F4
:103DA000022002490870BAE728410020AA0000203A
:103DB00000BF012001F0E4FA344890F87C030128A8
:103DC000F7D1324890F8B30301281CD12F4890F85E
:103DD000C7030128EDD12D48B0F876030F280EDD7A
:103DE0002A49B1F87603C11700EB5171CA1027496F
:103DF000B1F87613891A8AB22449A1F876235020A3
:103E000001F0BEFAD5E7214890F8C7030128D0D1C8
:103E10001E48B0F87603282826DD1C48D0F8D003C9
:103E2000B4280ED11948B0F87603072190FBF1F1C0
:103E30001648B0F87603401A81B21448A0F87613F9
:103E400012E01248D0F8D0035A280DD10F48B0F82C
:103E50007603052190FBF1F10C48B0F87603401A87
:103E600081B20A48A0F876130848D0F8D003B428E5
:103E700003D1822001F084FA9BE70448D0F8D003F4
:103E80005A2896D15F2001F07BFA92E72841002062
:103E900010B5FDF7BBFC02F067FB012801D002F072
:103EA000BBFA10BD00B58FB0282105A8FCF70AFAAF
:103EB00014216846FCF706FA0120059000040690DC
:103EC000002007900120099002200C90C1030D9161
:103ED0004FF4E0110E9105A8FDF7B6FE08B1FCF70E
:103EE0006CFA0F20009002200190002002904FF405
:103EF000806003900020049002216846FDF780FD59
:103F000008B1FCF75AFA0FB000BD704770B505460E
:103F10006C6A0020E085E0842046FEF7E2F870BD80
:103F200000BF00BF02680C3252E8002F22F49071EB
:103F300002680C3242E80013002BF3D100BF00BF2F
:103F400000BF0268143252E8002F22F0010102681B
:103F5000143242E80013002BF3D100BF016B01299A
:103F60000ED100BF00BF02680C3252E8002F22F0D1
:103F7000100102680C3242E80013002BF3D100BF9D
:103F8000202180F8421000210163704710B50446DB
:103F90002068C06820F040002168C860202084F8B4
:103FA00041002046FEF78DFC002010BDF8B5044608
:103FB00094F84200222875D1A068B0F5805F0CD13A
:103FC000206950B90025A66A20684068C0F308003F
:103FD0003080A06A801CA06215E0A56A0026A06857
:103FE000B0F5805F03D0A06828B9206918B92068AF
:103FF0004068287004E02068406800F07F00287066
:10400000A06A401CA062E08D401E80B2E0850028BE
:1040100046D12068C06820F020002168C860206870
:10402000C06820F480702168C8602068406920F072
:10403000010021684861202084F84200002060636C
:10404000206B012826D10020206300BF00BF21681B
:104050000C3151E8001F21F0100021680C3141E8BB
:104060000002002AF3D100BF2068006800F01000B1
:1040700010280AD100BF002000902068006800903E
:1040800020684068009000BF00BFA18D2046FEF769
:1040900027F802E02046FEF7A9FA0020F8BD01E06B
:1040A0000020FBE70220F9E770B5044621680969A2
:1040B00021F44051E2681143226811612269A1682C
:1040C0001143626941EA02052168C96841F20C6244
:1040D000914329432268D1602168496921F44071E4
:1040E000A2691143226851612D4A2168914202D18F
:1040F000FDF762FD01E0FDF74FFD00EBC00101EBB4
:10410000001162689200B1FBF2F100EBC00202EB19
:10411000001263689B00B2FBF3F26423B2FBF3F27C
:1041200002EBC20303EB0212A1EB8201322202EB8B
:1041300001116422B1FBF2F101F0F00100EBC002C9
:1041400002EB001263689B00B2FBF3F26423B2FB44
:10415000F3F201EB021200EBC00101EB0011636806
:104160009B00B1FBF3F100EBC00303EB00136668A7
:10417000B600B3FBF6F36426B3FBF6F303EBC3061A
:1041800006EB0313A1EB8301322303EB011164233C
:10419000B1FBF3F101F00F0111442268916070BD91
:1041A0000038014010B5034699629A85DA850020EF
:1041B0005864222083F84200186928B11868C06842
:1041C00040F480701C68E0601868406940F00100AD
:1041D0001C6860611868C06840F020001C68E060DE
:1041E000002010BD014691F84100212828D188689F
:1041F000B0F5805F0BD1086948B90A6A1088C0F32E
:1042000008000B685860086A801C086205E00B6AA9
:10421000581C086218780B685860C88C401E80B221
:10422000C88458B90868C06820F080000B68D8605E
:104230000868C06840F040000B68D86000207047F4
:104240000220FCE72DE9F04104460D46174698464A
:10425000069E34E0701C88B32EB1FDF7AFF9A0EBD9
:104260000800B0422BD900BF00BF21680C3151E8D3
:10427000001F21F4D07021680C3141E80002002AAF
:10428000F3D100BF00BF00BF2168143151E8001F07
:1042900021F001002168143141E80002002AF3D125
:1042A00000BF202084F8410084F8420000BF0020B5
:1042B00084F8400000BF0320BDE8F081FFE72068DC
:1042C00000682840A84201D1012000E00020B84247
:1042D000C0D00020F0E7000010B50248FDF702FF53
:1042E00010BD00000801002010B50248FDF7FAFEDD
:1042F00010BD00009801002000BFFEE702480068E2
:10430000C0F30220704700000CED00E010B500285B
:1043100004DB0A07130E054A135406E00A07140EBD
:10432000034A00F00F031B1FD45410BD00E400E04B
:1043300018ED00E070B504460849204602F066FB1F
:104340000646304602F046FB05464FF08040406A84
:10435000A84201D9012070BD0020FCE700409C4527
:1043600070B504460849204602F050FB0646304628
:1043700002F030FB054605480068A84201D901203B
:1043800070BD0020FCE7000000409C45242C01404B
:1043900070B504460849204602F038FB0646304610
:1043A00002F018FB054605480068A84201D9012023
:1043B00070BD0020FCE7000000409C452404004044
:1043C0002DE9F04704463CB93225AA46192619279B
:1043D0004FF02308C14609E0012C07D13225AA4637
:1043E000242624274FF019084FF0190910214848B6
:1043F000FDF7D6F801280CD10121464880F8B31307
:104400000021A0F8C013A0F8C4A33946022002F08E
:1044100083FA20213E48FDF7C3F801280CD1012181
:104420003C4880F8B2130021A0F8BE13A0F8C25394
:104430003146012002F070FA364890F8E60305286C
:1044400005D14D2034490870142001F0BBFB1BE05E
:104450000A2000F095FF2F48B0F8BE03401C81B23F
:104460002C48A0F8BE13B0F8C003401C81B2294804
:10447000A0F8C01390F8E603052805D14D20264981
:104480000870142001F09EFB2248B0F8C013B0F869
:10449000C4038142DCDB1F48B0F8BE13B0F8C2038E
:1044A0008142D5DB1B4890F8B20301280ED101F000
:1044B00065FB184890F8B00320B94146012002F08E
:1044C00051FA03E04146012002F068FA114890F8E1
:1044D000B30301280FD1022001F050FB0D4890F8E2
:1044E000B10320B94946022002F03CFA03E04946F4
:1044F000022002F053FA00BF064890F8B2030128E8
:10450000FAD0044890F8B3030128F5D0BDE8F0874D
:10451000000C014028410020A30000202DE9F041BB
:1045200004461CB932251926232704E0012C02D1A8
:1045300032252426192720211D48FDF731F80128AE
:104540000CD101211B4880F8B2130021A0F8BE1342
:10455000A0F8C2533146012002F0DEF90AE00A2039
:1045600000F00EFF1348B0F8BE03401C81B21148A2
:10457000A0F8BE130F48B0F8BE13B0F8C2038142D2
:10458000EDDB0C4890F8B20301280ED101F0F6FAE9
:10459000084890F8B00320B93946012002F0E2F94A
:1045A00003E03946012002F0F9F9BDE8F08100008E
:1045B000000C0140284100202DE9F04104461CB9BF
:1045C00032251926232704E0012C02D13225242686
:1045D000192710211D48FCF7E3FF01280CD1012108
:1045E0001B4880F8B3130021A0F8C013A0F8C453EF
:1045F0003146022002F090F90AE00A2000F0C0FEE5
:104600001348B0F8C003401C81B21148A0F8C01391
:104610000F48B0F8C013B0F8C4038142EDDB0C487A
:1046200090F8B30301280FD1022001F0A7FA08483F
:1046300090F8B10320B93946022002F093F903E063
:104640003946022002F0AAF9BDE8F081000C0140D1
:10465000284100200F48806940F400600D498861BE
:104660004FF6FE700C49086043F63F00091F0860D2
:1046700009481838006840F00100074918390860F7
:1046800005482C38006840F0010003492C390860C7
:1046900070470000001002402C2C01400B48C069FC
:1046A00040F001000949C8614FF6FE708904C862F4
:1046B00043F63F0088620846406940F001004861C7
:1046C0000846006840F00100086070470010024092
:1046D0000F48C06940F002000D49C8614FF6FE70F6
:1046E0000C49086043F63F00091F08600948183864
:1046F000006840F0010007491839086005482C3867
:10470000006840F0010003492C3908607047000040
:10471000001002402C0400400E48C06940F0040024
:104720000C49C86140F2CF700B4908604720091F4F
:10473000086009481838006840F001000649183937
:10474000086005482C38006840F0010002492C3907
:1047500008607047001002402C08004070B5044605
:104760000D46012D39D13C480155012C04D10022C0
:1047700002213A48FCF71CFF022C04D10122114609
:104780003648FCF715FF032C04D1012204213348DD
:10479000FCF70EFF042C04D1012211022F48FCF774
:1047A00007FF052C04D1012280212D48FCF700FFD2
:1047B000062C04D1002220212948FCF7F9FE072C01
:1047C00004D1002210212648FCF7F2FE082C04D167
:1047D000002240212248FCF7EBFE002D3AD10021B7
:1047E0001D480155012C04D1012202211B48FCF770
:1047F000DFFE022C04D1002201211848FCF7D8FE6C
:10480000032C04D1002204211448FCF7D1FE042C0F
:1048100004D10022A1011148FCF7CAFE052C04D1E5
:10482000002280210E48FCF7C3FE062C04D1012291
:1048300020210B48FCF7BCFE072C04D101221021DB
:104840000748FCF7B5FE082C04D10122402104489A
:10485000FCF7AEFE70BD000076450020000C014064
:104860000008014010B5012251030248FCF7A0FEE8
:1048700010BD0000000C014008E00021054A116055
:1048800000BF044909680029FBD0401E0028F4D16C
:10489000704700002408004010B504460A4800682C
:1048A00000F4004058B101F07DF90021074880F87C
:1048B000931380F87E13204600F026F802E00020D3
:1048C00000F022F810BD0000080801402841002037
:1048D00000200C4981F8700300210A48A0F87213E7
:1048E0000020084981F8740300210648A0F87613D7
:1048F0000020044981F8780300210248A0F87A13C7
:1049000070470000284100200021034A82F87813F4
:104910001146A1F87A0370472841002010B5012202
:10492000D1030248FCF744FE10BD0000000C01401A
:1049300010B5A648B0F83E03C0F3C02010BBA34892
:10494000B0F83E03C0F38020E0B9A1480078E0B998
:10495000A048007818B901209E49087002E00020A4
:104960009C4908709B48007810B901F06BF905E08C
:1049700098480078012801D1FFF774FF012094497D
:10498000087002E00020924908709048D0F8400377
:10499000C0F3405010BB8D48D0F84003C0F38040B6
:1049A000E0B98D480078E0B98C48007818B901204A
:1049B0008A49087002E0002088490870874800781A
:1049C00010B9FFF7ABFF05E084480078012801D15A
:1049D00000F006FB01208049087002E000207E49BB
:1049E00008707A48D0F84003C0F3405010BB7748B5
:1049F000D0F84003C0F34040E0B979480078E0B90E
:104A00007848007818B901207649087002E0002043
:104A1000744908707348007810B900F011FB05E084
:104A200070480078012801D100F018F901206C4984
:104A3000087002E000206A4908706448D0F840031A
:104A4000C0F3405010BB6148D0F84003C0F3C040F1
:104A5000E0B965480078E0B96448007818B90120E9
:104A60006249087002E00020604908705F480078E1
:104A700010B901F0DDF805E05C480078012801D1AB
:104A800001F0CCF801205849087002E00020564996
:104A900008704E4890F86004012807D1FA2000F011
:104AA0006DFA0121494880F8661428E0474890F8DB
:104AB0006104012818D14E48006800F4004038B164
:104AC000FA20FFF721FF0121404880F8661416E024
:104AD0003E4890F8660418B90020FFF715FF0EE075
:104AE000032000F0C5F80AE0384890F8670418B9C8
:104AF0000020FFF709FF02E0032000F0B9F8334877
:104B000090F86204012807D1962101F047FF0121A6
:104B10002E4880F8671418E02C4890F863040128A8
:104B200007D1962101F01EFF0121284880F8671463
:104B30000BE0264890F8670420B90021012001F01D
:104B40002DFF02E0012000F093F8204890F8640463
:104B5000012808D19621022001F020FF01211B48E5
:104B600080F8681419E0194890F86504012808D104
:104B70009621022001F0F6FE0121144880F8681405
:104B80000BE0124890F8680420B90021022001F0DF
:104B900005FF02E0022000F06BF8012412E0154846
:104BA000005D012806D113499A39085D0121FFF7FC
:104BB000D5FD05E00F499A39085D0021FFF7CEFDCC
:104BC000601CC4B2092CEADB10BD000028410020A3
:104BD000AD000020AC000020B3000020B200002097
:104BE000B1000020B0000020AF000020AE00002087
:104BF000080801407645002000B5FFF72BFDFFF7C0
:104C00004DFDFFF765FDFFF787FD00BD10B50446BC
:104C1000012C0FD101210846FFF7A0FD012103203F
:104C2000FFF79CFD01210520FFF798FD01210720DA
:104C3000FFF794FD022C0FD101210220FFF78EFD1A
:104C400001210420FFF78AFD01210620FFF786FDE0
:104C500001210820FFF782FD10BD000010B50022E1
:104C60004FF480410148FCF7A3FC10BD000C01404B
:104C7000012803D101220849A1F87223022803D197
:104C800001220549A1F87623032803D10122024914
:104C9000A1F87A237047000028410020012806D19E
:104CA0000123074A82F8C633C2F8CC1307E0022872
:104CB00005D10123024A82F8C733C2F8D0137047E6
:104CC0002841002000B5134890F8E103114981F80C
:104CD000D80300F067FF0F48B0F9DA1390F8E1034A
:104CE000814207DA01210B4880F87E131E2000F074
:104CF00045F90DE00748B0F9DA1390F8E103814275
:104D000006DD0021034880F87E131E20FFF7FCFD1E
:104D100000BD00002841002000B50021034880F8B4
:104D200093132820FFF7F0FD00BD0000284100206C
:104D300010B53348B0F83E03C0F3C020002859D165
:104D40002F4890F83E0300F00100002852D12C4873
:104D500090F8A803002851D10021294880F8AB130E
:104D600090F87C03274908700220254981F87C03CC
:104D70002548006800F0200020B90021012001F042
:104D80000DFE03E01421012001F008FE052000F0D3
:104D9000F7FA1D48006800F0100020B90021022039
:104DA00001F0FCFD03E01421022001F0F7FD0520D5
:104DB00000F0E6FA1548006800F4004038B1002120
:104DC0000F4880F893132820FFF79EFD02E0002093
:104DD000FFF79AFD0D48006800F4004028B9FFF77E
:104DE00071FF0121064880F8AB130121044880F8C7
:104DF000A81303E00021024880F8A81310BD0000AA
:104E000028410020AB000020080C014008080140A8
:104E1000012005E000220E490A5409310A54401CC1
:104E20000928F7DB00210B4880F8621480F864142D
:104E300080F8631480F8651480F8601480F86114B9
:104E400080F8661480F8671480F8681470470000D2
:104E50007645002028410020AAB0FCF7E3FCFFF7CC
:104E600021F8FDF731FDFDF70BFEFDF725FEFDF7FF
:104E70003FFEFDF759FEFBF731FB00210120FFF754
:104E80006DFC00210220FFF769FC00210320FFF7E1
:104E900065FC00210420FFF761FC00210520FFF7DD
:104EA0005DFC00210620FFF759FC00210720FFF7D9
:104EB00055FC00210820FFF751FC1C22244923A89F
:104EC000FBF7CEF9002123A800F06BFA2149086016
:104ED0001C221F491C311CA8FBF7C2F900211CA889
:104EE00000F05FFA1C4908601C221949383115A8E6
:104EF000FBF7B6F9002115A800F053FA174908602E
:104F00001C22134954310EA8FBF7AAF900210EA860
:104F100000F047FA124908601C220D49703107A8B9
:104F2000FBF79EF9002107A800F03BFA0D49086045
:104F30001C2207498C316846FBF792F9002168462C
:104F400000F02FFA0849086000F026FA00BFFEE7DB
:104F5000A46B0008000000200400002008000020CE
:104F60000C0000201000002014000020014600204A
:104F7000842901D0CA1C1044704700000121034A53
:104F800082F878131146A1F87A037047284100206F
:104F900070B504460D460121104880F8D41380F8FE
:104FA000D84300F0FFFD0D48B0F9DA03A04207DA5C
:104FB00001210A4880F87E132846FFF7DFFF0BE047
:104FC0000648B0F9DA03A04206DD0021034880F864
:104FD0007E132846FFF798FC70BD00002841002092
:104FE00010B500224FF400410148FCF7E1FA10BD72
:104FF000000C014010B50446022C0ED10021FFF731
:10500000ADFB00210420FFF7A9FB00210620FFF7DC
:10501000A5FB00210820FFF7A1FB012C0FD10021E7
:105020000120FFF79BFB00210320FFF797FB0021E6
:105030000520FFF793FB00210720FFF78FFB10BD32
:1050400010B5012291030248FCF7B2FA10BD00002E
:10505000000C0140C948D0F84003C0F3005060B9CB
:10506000C648D0F84003C0F3C04030B90121C3485E
:1050700080F8601480F87E1303E00021BF4880F8B8
:105080006014BE48D0F84003C0F3005068B9BB4874
:10509000D0F84003C0F3804038B90121B74880F808
:1050A0006114002180F87E1303E00021B34880F8EA
:1050B0006114B248D0F84003C0F3404050B9AF4843
:1050C000D0F84003C0F3004020B90121AB4880F87C
:1050D000621407E0A94890F87D0318B90021A74899
:1050E00080F86214A548D0F84003C0F3404050B99E
:1050F000A248D0F84003C0F3C05020B901219F4816
:1051000080F8631407E09D4890F87D0318B90021EA
:105110009A4880F863149948D0F84003C0F380504F
:1051200050B99648D0F84003C0F3004020B901219F
:10513000924880F8641407E0904890F87D0318B90D
:1051400000218E4880F864148C48D0F84003C0F3E6
:10515000805050B98948D0F84003C0F3C05020B9FE
:105160000121864880F8651407E0844890F87D03A3
:1051700018B90021814880F865148048B0F83E03D2
:10518000C0F3C020A8B97D48D0F84003C0F3405018
:1051900078B97A4890F8580478B9784890F84F046C
:1051A00080F00101754880F84F14012180F85814EF
:1051B00003E00021714880F858147048B0F83E03AD
:1051C000C0F3C020A8B96D48D0F84003C0F3005028
:1051D00078B96A4890F8590478B9684890F850044A
:1051E00080F00101654880F85014012180F85914BD
:1051F00003E00021614880F859146048B0F83E038C
:10520000C0F3C020A8B95D48D0F84003C0F3805077
:1052100078B95A4890F85A0478B9584890F8510427
:1052200080F00101554880F85114012180F85A148A
:1052300003E00021514880F85A145048B0F83E036A
:10524000C0F3C020A8B94D48D0F84003C0F3C04017
:1052500078B94A4890F85B0478B9484890F8520405
:1052600080F00101454880F85214012180F85B1458
:1052700003E00021414880F85B144048B0F83E0349
:10528000C0F3C020A8B93D48D0F84003C0F3404067
:1052900078B93A4890F85C0478B9384890F85304E3
:1052A00080F00101354880F85314012180F85C1426
:1052B00003E00021314880F85C143048B0F83E0328
:1052C000C0F3C020A8B92D48D0F84003C0F3C050A7
:1052D00078B92A4890F85D0478B9284890F85404C1
:1052E00080F00101254880F85414012180F85D14F4
:1052F00003E00021214880F85D142048B0F83E0307
:10530000C0F3C020A8B91D48D0F84003C0F38040C6
:1053100078B91A4890F85E0478B9184890F855049E
:1053200080F00101154880F85514012180F85E14C1
:1053300003E00021114880F85E141048B0F83E03E5
:10534000C0F3C020A8B90D48D0F84003C0F3004016
:1053500078B90A4890F85F0478B9084890F856047C
:1053600080F00101054880F85614012180F85F148F
:1053700003E00021014880F85F14704728410020B5
:1053800070B5044625460DB1294600E001210846C6
:1053900000F0F2FE002070BD10B500F01BFF0020F1
:1053A00010BD7FB504460D46606998B1A06988B10B
:1053B000B4F90800FFF7DAFD0646D4E90510CDE997
:1053C000006102902B462269D4E9001001F070F8C8
:1053D000039013E0B4F90800FFF7C8FD064603A8E0
:1053E000CDE90060238A9AB22B46D4E9001001F07F
:1053F0002DF8012802D0002004B070BD0398FBE70F
:1054000010B52C4890F82403462806D101202A49DB
:10541000087000202949087045E0274800780028D6
:1054200041D0244890F82413244802780078401C86
:10543000224B18702248815418460078062832DB27
:105440001F4801781B4880F83E131D4841781948D1
:1054500080F83F131A488178164880F8441318489A
:10546000C178144880F8431315480179114880F831
:105470004213134841790F4880F841130020194620
:1054800008700D49087001210A4880F8351301F0B1
:105490007BF80849C1F83803084690F83F03F5281F
:1054A00001D1FCF78BFA0122064907480068FDF795
:1054B00087F810BD28410020990000209A000020A4
:1054C0009B0000204C4400209400002070B504464E
:1054D0000D46012101EBC411C8B200F069FB28465A
:1054E00000F066FBFF2000F063FB70BD70B5044662
:1054F0000D46022101EBC411C8B200F059FB284649
:1055000000F056FBFF2000F053FB70BD70B5044661
:105510000D46032101EBC411C8B200F049FB284637
:1055200000F046FBFF2000F043FB70BD2DE9F04189
:1055300005460E461C4807681C480068001D00F020
:105540001EFD50B91948006890F82C1001208840C1
:1055500017490968814316480160681C38B936B19B
:1055600012480168091D134800F054FD1AE07C1927
:105570000E4800684460BC4207D20C480168091D0F
:105580000D48006800F02CFD0CE008480168091D7A
:105590000A48006800F024FD09480068844201D2EE
:1055A00007480460BDE8F0813C000020280000208E
:1055B0004000002010050020300000202C000020BA
:1055C0005800002010B5044600F030FD2348006864
:1055D000401C224908602248006840B92048046005
:1055E0000846006801280DD100F03AF90AE01D488C
:1055F000006838B91A480068C06AE16A884201D870
:105600001748046018480068401C1749086094F85F
:105610002C10012088401549096808431349086087
:10562000E16A01EB8101124A02EB8100211D00F0C9
:10563000F1FC00F025FD0B48006868B108480068DF
:10564000C06AE16A884207D24FF080500949086079
:10565000BFF34F8FBFF36F8F10BD000038000020E5
:1056600028000020440000205400002040000020BA
:105670003404002004ED00E010B516E000F0D6FC84
:105680000C48C068C468201D00F079FC0A48006816
:10569000401E0949086009480068401E0749086023
:1056A00000F0EEFC204600F00BF8044800680028EB
:1056B000E4D110BDFC04002038000020340000209C
:1056C00010B5044694F8510030B9206B00F0F6FC98
:1056D000204600F0F3FC1AE094F85100012803D1B1
:1056E000204600F0EBFC12E094F85100022801D1B2
:1056F000012000E0002050B900BF502080F3118845
:10570000BFF34F8FBFF36F8F00BF00BFFEE710BD29
:1057100030B54FF47053174800F007042CB1C01D8A
:1057200020F00700134C041B1B1B0246124C226086
:105730000024114D6C60D018083820F007000F4C81
:10574000206000240D4D2D686C600C4D2D682C6080
:105750001146441A4C60094C24680C60084D4C6892
:105760002C60084D4C682C604FF00044064D2C60B6
:1057700030BD000024050020640000206C000020E3
:1057800074000020700000207800002000BFFFF7A8
:1057900073FF064800680128F9D94FF0805004498A
:1057A0000860BFF34F8FBFF36F8FF0E73404002022
:1057B00004ED00E02DE9FF5F81460F469246DDE9EA
:1057C0000E6B109CAAF10100216B01EB800828F000
:1057D000070808F0070008B9012000E0002050B9D0
:1057E00000BF502080F31188BFF34F8FBFF36F8F3E
:1057F00000BF00BFFEE7002507E0795D04F134003B
:105800004155785D00B902E06D1C102DF5D300BF45
:10581000002143200155072E00D30626E662666468
:105820000020A064201D00F0D8FB04F1180000F057
:10583000D4FB2461C6F10700A06164620020E0642B
:1058400084F8500049464046039A00F049F9206028
:10585000BBF1000F01D0CBF80040BDE8FF9F000076
:1058600010B5002407E004EB84010F4A02EB81002D
:1058700000F0A6FB641C072CF5D30C4800F0A0FB3D
:105880000B4800F09DFB0B4800F09AFB0A4800F023
:1058900097FB0A4800F094FB044809490860044853
:1058A0000849086010BD000034040020C004002036
:1058B000D4040020E8040020FC040020100500208F
:1058C0002C0000203000002010B50146164800E0F2
:1058D000006803688B42FBD30246436813448B4243
:1058E00004D143684C682344436001460A464B6830
:1058F00013440468A34211D10C4C03682468A342EA
:1059000008D04B680468646823444B6003681B68D4
:105910000B6005E0054B1B680B6001E003680B6042
:10592000884200D0016010BD640000206C0000209F
:105930000A490968096809B9012100E0002121B17B
:105940004FF0FF31064A116006E004490968C96852
:10595000C868034A41681160704700002C000020AD
:10596000580000200E480068401C08B9012000E0E3
:10597000002050B900BF502080F31188BFF34F8F33
:10598000BFF36F8F00BF00BFFEE700BF502080F362
:105990001188BFF34F8FBFF36F8F00BF00BFFEE7CB
:1059A0007C0000202DE9F04104464FF0000800F093
:1059B00069FC4648006808B9FFF7AAFE4448006839
:1059C000204000286BD1D4B1083404F00700B0B1F6
:1059D00004F00700C0F10800044404F0070008B90F
:1059E000012000E0002050B900BF502080F3118852
:1059F000BFF34F8FBFF36F8F00BF00BFFEE7002CD8
:105A00004DD034480068844249D8334E304605684A
:105A100001E02E462D686868A04202D2286800285E
:105A2000F7D12A480068854239D0306800F108086B
:105A3000286830606868001B102819D92F1907F0F2
:105A4000070008B9012000E0002050B900BF502035
:105A500080F31188BFF34F8FBFF36F8F00BF00BF7C
:105A6000FEE76868001B78606C603846FFF72CFF23
:105A7000184968680968081A1649086008460068E5
:105A800016490968884203D2124800681349086021
:105A90000F4968680968084368600020286000F0C2
:105AA0001DFE08F0070008B9012000E0002050B9F1
:105AB00000BF502080F31188BFF34F8FBFF36F8F6B
:105AC00000BF00BFFEE74046BDE8F0816C0000204B
:105AD0007800002070000020640000207400002086
