:020000040800F2
:10000000784C00202102000811310008452D00081D
:100010000D310008E7030008813A000800000000E5
:10002000000000000000000000000000890100083E
:10003000FD03000800000000CD010008FD340008A9
:100040003B0200083B0200083B0200083B0200089C
:100050003B0200083B0200083B0200083B0200088C
:100060003B0200080B04000815040008ED0300081B
:100070003B0200083B0200083B0200083B0200086C
:100080003B0200083B0200083B0200083B0200085C
:100090003B0200083B0200083B0200081F04000866
:1000A0003B0200083B0200083B0200083B0200083C
:1000B000993500083B0200083B0200083B0200089B
:1000C0003B0200083B0200083B0200083B0200081C
:1000D0003B020008613A00083B020008713A000840
:1000E000FF0300083B0200083B02000800F002F892
:1000F00000F03AF80AA090E8000C82448344AAF188
:100100000107DA4501D100F02FF8AFF2090EBAE885
:100110000F0013F0010F18BFFB1A43F0010318473B
:10012000585D0000785D0000103A24BF78C878C19F
:10013000FAD8520724BF30C830C144BF04680C60ED
:10014000704700000023002400250026103A28BF35
:1001500078C1FBD8520728BF30C148BF0B60704739
:100160001FB51FBD10B510BD00F0D6F81146FFF742
:10017000F7FF04F035F800F0F4F803B4FFF7F2FFEE
:1001800003BC00F0FBF80000224B19680868B0E8D7
:10019000F00F80F30988BFF36F8F4FF0000080F3FA
:1001A00011884EF00D0E70470000000006480068F0
:1001B000006880F3088862B661B6BFF34F8FBFF363
:1001C0006F8F00DF00BF00BF08ED00E0EFF3098094
:1001D000BFF36F8F0F4B1A6820E9F00F106008B55E
:1001E0004FF0500080F31188BFF34F8FBFF36F8F34
:1001F00005F0BAF94FF0000080F31188BDE808401F
:1002000019680868B0E8F00F80F30988BFF36F8FB2
:10021000704700BF20000020EFF30580704700000A
:100220000948804709480047FEE7FEE7FEE7FEE78A
:10023000FEE7FEE7FEE7FEE7FEE7FEE704480549C6
:10024000054A064B7047000095350008ED00000890
:1002500078460020784C002078480020784800201C
:1002600010B5203AC0F00B80B1E81850203AA0E851
:100270001850B1E81850A0E81850BFF4F5AF5FEA85
:10028000027C24BFB1E81850A0E8185044BF18C938
:1002900018C0BDE810405FEA827C24BF51F8043BDF
:1002A00040F8043B08BF7047D20728BF31F8023B33
:1002B00048BF11F8012B28BF20F8023B48BF00F8C7
:1002C000012B70474FF0000200B513469446964646
:1002D000203922BFA0E80C50A0E80C50B1F1200159
:1002E000BFF4F7AF090728BFA0E80C5048BF0CC007
:1002F0005DF804EB890028BF40F8042B08BF704765
:1003000048BF20F8022B11F0804F18BF00F8012BD6
:100310007047704770477047754600F02BF8AE463F
:1003200005006946534620F00700854618B020B501
:10033000FFF784FFBDE820404FF000064FF00007B4
:100340004FF000084FF0000B21F00701AC46ACE87D
:10035000C009ACE8C009ACE8C009ACE8C0098D46EA
:10036000704710B50446AFF300802046BDE810404A
:10037000FFF703BF004870471846002001491820C6
:10038000ABBEFEE726000200704770B504460025AC
:100390002068806800F0010018B32068806820F0B1
:1003A00001002168886001F06BF9054613E001F057
:1003B00067F9401B02280ED92068806800F0010010
:1003C00048B1A06A40F01000A062E06A40F001006D
:1003D000E062012070BD2068806800F00100002804
:1003E000E5D10020F6E700BFFEE7000010B50248A7
:1003F00000F092FB10BD0000D0000020704710B547
:100400004FF4004000F090FF10BD10B5082000F040
:100410008BFF10BD10B5102000F086FF10BD10B589
:10042000202000F081FF10BD72B600BFFEE7000083
:100430000020094981F86803A1F86A0381F86C0378
:1004400081F86D0381F86E0381F86F03A1F844040D
:10045000A1F8460470470000D04100200120064961
:1004600081F818030121044880F8191380F81A1341
:1004700080F81B1370470000D041002010B51C48C5
:1004800090F8350308B31B480078C8B9002412E07F
:1004900001225102184801F0EDF8C82004F0BCF820
:1004A00000224FF40071144801F0E4F8C82004F071
:1004B000B3F8601CC4B2022CEADB01200D490870BD
:1004C00000210B4880F8351311E005F0C7F9084901
:1004D000D1F83813401AB0F57A7F08D301220749C2
:1004E0000748006802F054FB00200249087010BD64
:1004F000D041002090000020000C0140F444002076
:100500008C00002010B504460D48046024210D48DD
:10051000FFF7D8FEFF210C4880F8441380F8401301
:1005200080F8411380F8421380F83E1380F83F139F
:10053000012204490248006802F02AFB10BD0000B5
:100540008C000020F4440020D041002010B500F0C1
:100550000FF8FFF76DFFFFF781FF01220249034803
:1005600002F016FB10BD0000D0410020B0010020B9
:1005700000204549086017E000204449424A1268BB
:100580008854002141489C303F4A126881549C3075
:100590003D4A12688154DC303B4A126881543A4823
:1005A0000068401C38490860374800684028E3DB91
:1005B00000203549086026E0002134488030324A66
:1005C00012688154001D304A1268815498302E4AB6
:1005D00012688154001D2C4A1268815498302A4AAE
:1005E00012688154001D284A126881549830264AA6
:1005F00012688154001D244A126881542248006800
:10060000401C21490860204800680428D4DB0020F1
:100610001E49A1F8880000211C48A0F82411A0F868
:10062000C011A0F85C1200201849A1F88A0000212E
:100630001648A0F82611A0F8C211A0F85E120020FA
:100640001249A1F8900000211048A0F82C11A0F840
:10065000C811A0F8641200200C49A1F892000021F2
:100660000A48A0F82E11A0F8CA11A0F866120020BE
:100670000649A1F8940000210448A0F83011A0F820
:10068000CC11A0F86812704784000020D0410020EF
:1006900038B5024600230020009000BF92F82400E5
:1006A000012801D1022038BD012082F8240000BFBA
:1006B0004868072812D21068406B0C79641E04EB5E
:1006C00084051F24AC40A0430D796D1E05EB850504
:1006D0000C68AC4020431468606327E048680D282C
:1006E00012D21068006B0C79E41F04EB84051F2400
:1006F000AC40A0430D79ED1F05EB85050C68AC40BF
:1007000020431468206311E01068C06A0C790D3C26
:1007100004EB84051F24AC40A0430D790D3D05EB8F
:1007200085050C68AC4020431468E06208680A281C
:1007300012D31068C0680C780A3C04EB4405072407
:10074000AC40A0430D780A3D05EB45058C68AC40F4
:1007500020431468E0600FE0106800690C7804EB37
:1007600044050724AC40A0430D7805EB45058C6893
:10077000AC402043146820610868102802D0086843
:10078000112827D1174C1068A0421ED1106880682C
:1007900000F40000F0B91068806840F400001468AC
:1007A000A0600868102815D10F4800680F4CB0FBF6
:1007B000F4F000EB80004000009002E00098401E42
:1007C000009000980028F9D104E0906A40F02000E1
:1007D0009062012300BF002082F8240000BF184669
:1007E00061E70000002401401C00002040420F008F
:1007F0002DE9F0410446002700250026A84614B93B
:100800000120BDE8F081A06810B1207D00B100BFDB
:10081000A06A30B90020E06284F82400204600F08D
:1008200089F82046FFF7B1FD0746A06A00F01000E6
:10083000002873D1002F71D1A06A20F4885040F0B5
:100840000200A062E16960680843217B40EA410040
:100850000643A068B0F5807F02D0A068012802D1CD
:100860004FF4807000E000200543207D012811D165
:10087000207B38B9A069401E4FF4006141EA403046
:10088000054307E0A06A40F02000A062E06A40F063
:100890000100E0622068406820F469402843216834
:1008A000486020688068214908403043216888609A
:1008B000A068B0F5807F02D0A068012802D14FF473
:1008C000807000E00020B0F5807F03D1208A401EB8
:1008D0004FEA00582068C06A20F4700040EA08001F
:1008E0002168C8622068806811490840B04208D178
:1008F0000020E062A06A20F0020040F00100A06247
:1009000011E0A06A20F0020040F01000A062E06A4E
:1009100040F00100E062012705E0FFE7A06A40F037
:100920001000A062012738466BE70000FDF7E1FFE9
:10093000FE0E1FFF10B586B0044600200290039003
:10094000049005902C492068884252D100BF2B4862
:10095000806940F40070294988610846806900F484
:100960000070019000BF00BF00BF0846806940F0E2
:10097000040088610846806900F00400019000BF0F
:1009800000BF00BF0846806940F008008861084643
:10099000806900F00800019000BF00BFC0200290F5
:1009A0000320039002A9164800F0CCFC032002901B
:1009B000039002A9134800F0C5FC134813490860CE
:1009C000002048600021114881608021C1604900F9
:1009D000016189004161202181610021C16100F034
:1009E00069F908B1FFF720FD00BF084820624462A2
:1009F00000BF06B010BD00000024014000100240FE
:100A000000080140000C014008000240D000002016
:100A10000146002291F82100022808D004208863B2
:100A200000BF002081F8200000BF01207047086847
:100A3000006820F00E000B6818600868006820F05D
:100A400001000B68186091F8403001209840CB6B92
:100A50005860012081F8210000BF002081F82000AB
:100A600000BF1046E2E7000070B50446002594F888
:100A70002100022803D00420A063012548E020685B
:100A8000006820F00E00216808602068006820F0EF
:100A90000100216808601F492068884201D10120B7
:100AA00026E01C4914312068884201D110201FE043
:100AB000184928312068884201D1801518E015496D
:100AC0003C312068884201D1801411E01149503135
:100AD0002068884202D14FF4803009E00D4964312A
:100AE0002068884202D14FF4801001E04FF08070FE
:100AF000084908394860012084F8210000BF00201F
:100B000084F8200000BF606B10B12046616B8847FD
:100B1000284670BD0800024070B50446E06B0568C9
:100B20002068066894F84010042088402840002877
:100B300046D006F00400002842D02068006800F08B
:100B4000200028B92068006820F0040021680860AF
:100B500057492068884201D1042027E054491431C4
:100B60002068884201D1402020E051492831206886
:100B7000884201D1001519E04D493C312068884276
:100B800002D14FF4804011E0494950312068884239
:100B900002D14FF4802009E0454964312068884241
:100BA00002D14FF4800001E04FF0806040490839E5
:100BB0004860E06A00287AD02046E16A884776E0FB
:100BC00094F84010022088402840A0B306F00200AC
:100BD00088B32068006800F0200040B920680068F1
:100BE00020F00A0021680860012084F821003049C3
:100BF0002068884201D1022028E02D491431206864
:100C0000884201D1202021E02949283120688842EA
:100C100001D140151AE026493C312068884202D1B2
:100C20004FF4005012E0224950312068884203D12D
:100C30004FF400300AE017E01D4964312068884213
:100C400002D14FF4001001E04FF00070184908394C
:100C5000486000BF002084F8200000BFA06A30B3C5
:100C60002046A16A884722E094F840100820884076
:100C70002840E0B106F00800C8B12068006820F004
:100C80000E002168086094F8401001208840E16B54
:100C900048600120A06384F8210000BF002084F890
:100CA000200000BF206B10B12046216B884770BD2B
:100CB000080002400146002209B901207047164B86
:100CC0000868C01A1423B0FBF3F0800008641248CF
:100CD0000838C863022081F821000868026843F6DA
:100CE000F0708243D1E901031843CB6818430B69C4
:100CF00018434B6918438B691843CB691843024367
:100D00000868026000208863012081F8210000202B
:100D100081F8200000BFD1E70800024010B504466A
:100D2000082C7DD1FB4890F8930300283ED0F94869
:100D300090F87E0340B9F74890F8D103401EC1B245
:100D4000F44880F8D11307E0F24890F8D103401C32
:100D5000C1B2F04880F8D113EE4890F87C03022825
:100D600025D1EC4890F8D51390F8D103814207D1F2
:100D7000032003F039F903F075F90120E649087002
:100D8000E44890F8D61390F8D10381420ED1E2489E
:100D900000780128FAD1032003F026F9DF48007813
:100DA000DC4981F87C030020DB49087095E0D948D4
:100DB00090F87C030128F9D1D64890F8D80301288F
:100DC0000FD1D44890F8D11390F8D403814208DBB6
:100DD000D04890F87E03012803D10121CD4880F846
:100DE000D913CC4890F8D803012818D1C94890F8F5
:100DF000D11390F8D7030A38814210DBC54890F828
:100E00007E0301280BD10121C24880F8DA1361204A
:100E1000C34908700A230122C24801F039FF00E0EB
:100E200062E0BC4890F8D803042818D1B94890F87B
:100E3000D11390F8D7030A38814210DBB54890F8F7
:100E40007E0301280BD10121B24880F8DD13422036
:100E5000B349087014230122B24801F019FFAD48CC
:100E600090F8D01390F8D103814236D1032003F0DB
:100E7000BBF8A84890F8D803012804D10121A5485F
:100E800080F8161429E0A34890F8D803032804D06A
:100E9000A04890F8D80304280CD19E4890F87E030F
:100EA00040B99C4890F81804B8B90121994880F8D5
:100EB000181412E0974890F8D803042804D10121AF
:100EC000944880F8191408E0924890F8D80305284F
:100ED00003D101218F4880F81A1442F2107002F0F9
:100EE00079FF082090490860102C25D1894890F896
:100EF0007C03012878D18748B0F8C803401C81B230
:100F00008448A0F8C81390F8B303012815D1022132
:100F1000804880F8B313B0F8C403401E81B27D4806
:100F2000A0F8C013022003F05FF84FF47A7002F0CB
:100F300051FF10207C490860C3E0764890F8B30365
:100F40000028F9D179480078012813D1714890F828
:100F5000D80302280ED1764802F0C8FDB8B94FF484
:100F60007A7002F037FF01207249087010206E4934
:100F7000086010BD4FF07A5002F0B8FD38B94FF458
:100F80007A7002F027FF102067490860F1E7674890
:100F90000078D0B1022003F029FF644800780128CE
:100FA0000ED15C4890F8D803022809D15948B0F80E
:100FB000C803401E81B25748A0F8CC1303F0F4FEDA
:100FC0005A480078401E59490870524890F8AD13AD
:100FD00090F8AF03814208D04FF47A7002F0FAFE25
:100FE000102051490860C4E727E0022002F0FCFF0E
:100FF000484890F8D803012804D10121454880F8D9
:10100000021412E0434890F8D803022804D10121C9
:10101000404880F8031408E03E4890F8D8030528BB
:1010200003D101213B4880F806144FF47A7002F096
:10103000D1FE10203C4908609BE7364890F87C03BD
:10104000022809D102F0D0FF4FF47A7002F0C2FEFC
:1010500010203549086034E02E4890F87C0368BBC6
:101060002C4890F87D0338B94FF47A7002F0B2FE44
:1010700010202D49086024E0264890F87D030128BF
:101080001FD1022002F0B0FF224890F83F0401284F
:1010900003D100211F4880F83F141E4890F84004F7
:1010A000012803D100211B4880F840144FF47A70C6
:1010B00002F090FE10201C49086002E010201A493E
:1010C0000860202C25D1134890F87C0301287DD19D
:1010D0001048B0F8C603401C81B20E48A0F8C613F1
:1010E00090F8B203012827D102210A4880F8B213F0
:1010F000B0F8C203401E81B20648A0F8BE1301201A
:1011000002F072FF4FF47A7002F064FE202006496C
:101110000860D5E0D0410020800000209D00002024
:101120009B000020400200201404014083000020A6
:10113000CDCC4C3E81000020764890F8B2030028C8
:10114000E7D175480078012813D1724890F8D80388
:1011500002280ED1714802F0B1FCD0B94FF47A7078
:1011600002F038FE01206E49087020206D490860A9
:10117000FFE64FF07A5002F0A1FC50B94FF47A70BC
:1011800002F028FE012066490870202065490860A9
:10119000EFE661480078E0B1012003F027FE5E48E9
:1011A000007801280ED15B4890F8D803022809D1B5
:1011B0005848B0F8C603401E81B25648A0F8CA137A
:1011C00003F0ECFD54480078401E00E038E052493E
:1011D0000870504890F8AC1390F8AE03814207D0E5
:1011E0004FF47A7002F0F6FD20204E490860C0E608
:1011F000012002F0F9FE474890F8D803012804D1F5
:101200000121444880F8EE1312E0424890F8D803D8
:10121000022804D101213F4880F8EF1308E03D483F
:1012200090F8D803052803D101213A4880F8F21339
:101230004FF47A7002F0CEFD20203A49086098E61B
:10124000344890F87C0302280AD1012002F0CCFE39
:101250004FF47A7002F0BEFD2020324908602FE082
:101260002C4890F87C0358BB2A4890F87D0338B985
:101270004FF47A7002F0AEFD20202A4908601FE08A
:10128000244890F87D0301281AD102F0ADFE2148D0
:1012900090F83D04012803D100211E4880F83D1438
:1012A0001C4890F83E04012803D10021194880F819
:1012B0003E144FF47A7002F08DFD20201949086029
:1012C000B4F5004F24D10021124880F8D11390F8D2
:1012D000930318B901210F4880F89313032002F0FB
:1012E00083FE0C4890F87C03022809D1094890F845
:1012F000AB0328B902F08EFE0121064880F8AB133B
:1013000042F2107002F066FD4FF40040054908609B
:1013100000BF2EE6D041002082000020CDCC4C3E04
:10132000810000201404014010B504460448006800
:10133000204020B1024804602046FFF7EFFC10BDBA
:10134000140401402DE9F8470346002294466EE15B
:101350004FF0010808FA02F4D1F8008008EA04000E
:10136000A0427DD1DFF8DCA2D1F80480A8EB0A0905
:10137000D0453AD014DCB8F1030F50D009DCB8F1F5
:10138000000F31D0B8F1010F1CD0B8F1020F49D1D4
:1013900020E0B8F1110F18D0B8F1120F42D11EE0C1
:1013A000B9F5881F25D006DCB9F5803F20D0B9F506
:1013B000801F37D11AE0B9F5001F18D0B9F5041F06
:1013C00030D117E0D1F80CC02DE0D1F80C8008F135
:1013D000040C28E0D1F80C8008F1080C23E0D1F8C7
:1013E0000C8008F10C0C1EE000BF00BF00BF00BF66
:1013F00000BF00BFD1F80880B8F1000F02D14FF054
:10140000040C0BE0D1F80880B8F1010F03D14FF0C4
:10141000080C1C6102E04FF0080C5C6103E04FF027
:10142000000C00E000BF00BFFF2801D8984601E093
:1014300003F104084646FF2802D84FEA820803E079
:10144000A2F108084FEA88084746D6F800804FF016
:101450000F0909FA07F928EA09080CFA07F900E068
:1014600088E048EA0908C6F80080D1F8048008F04E
:101470008058B8F1805F7DD100BFDFF8CC81D8F80B
:10148000188048F00108DFF8C091C9F81880C846F4
:10149000D8F8188008F00108CDF8008000BF00BF20
:1014A0004FEAB9384FEA920958F829504FEA827842
:1014B0004FEA18794FF00F0808FA09F825EA0805ED
:1014C000DFF88881434502D14FF0000816E0DFF8CD
:1014D0008081434502D14FF001080FE0DFF87481AD
:1014E000434502D14FF0020808E0DFF86C81434524
:1014F00002D14FF0030801E04FF004084FEA82796F
:101500004FEA197908FA09F848EA0505DFF84C812D
:101510004FEA920948F82950D1F8048008F480185D
:10152000B8F5801F0AD1DFF83881D8F8008048EA82
:101530000008DFF82C91C9F8008009E0DFF820816D
:10154000D8F8008028EA0008DFF81491C9F8008074
:10155000D1F8048008F40018B8F5001F10D1DFF8A6
:10156000008108F10408D8F8008048EA0008DFF894
:10157000F09000E05AE009F10409C9F800800DE09C
:10158000DFF8DC8008F10408D8F8008028EA0008B9
:10159000DFF8CC9009F10409C9F80080D1F8048083
:1015A00008F40038B8F5003F0ED1DFF8B480A8F198
:1015B0000408D8F8008048EA0008DFF8A490A9F1F0
:1015C0000409C9F800800DE0DFF89480A8F1040850
:1015D000D8F8008028EA0008DFF88490A9F104090F
:1015E000C9F80080D1F8048008F48038B8F5803F4D
:1015F0000ED1DFF86C80A8F10808D8F8008048EA1E
:101600000008DFF85C90A9F10809C9F800800DE036
:10161000DFF84C80A8F10808D8F8008028EA000814
:10162000DFF83C90A9F10809C9F80080521CD1F8F4
:10163000008028FA02F8B8F1000F7FF489AEBDE807
:10164000F88700000000111000100240000801405F
:10165000000C01400010014000140140080001404E
:1016600008040140024693680B400BB1012000E0E2
:10167000002070470AB1016101E00B04036170476B
:1016800001480068704700001000002070B5044653
:101690000CB9012070BD94F83D0028B9002084F8F1
:1016A0003C00204600F0DAF8242084F83D00206851
:1016B000006820F00100216808602068006840F49C
:1016C0000040216808602068006820F4004021681C
:1016D000086000F05BFB05465C496068884206D8FC
:1016E0005B48854201D2012007E0002005E059480F
:1016F000854201D2012000E00020012800D1C9E785
:101700005548B5FBF0F62068406820F03F003043B4
:10171000216848604D496068884201D8701C07E024
:101720004FF4967070434FF47A71B0FBF1F0401CA7
:101730002168096A21F03F01084321680862434992
:101740006068884214D8681E61684900B0FBF1F0F7
:10175000401CC0F30B00042801D204203DE0681EA9
:1017600061684900B0FBF1F0401CC0F30B0034E0AD
:10177000A06838B9681E616801EB4101B0FBF1F067
:10178000401C0AE0681E616801EBC10202EB011116
:10179000B0FBF1F0401C40F48040C0F30B0008B9EE
:1017A00001201AE0A06848B9681E616801EB410198
:1017B000B0FBF1F0401CC0F30B000CE0681E616848
:1017C00001EBC10202EB0111B0FBF1F0401CC0F3D0
:1017D0000B0040F4804040F400402168C9694CF699
:1017E000FF72914308432168C861D4E907010843A7
:1017F0002168096821F0C001084321680860D4E924
:10180000031008432168896848F2FF329143084376
:1018100021688860D4E9050108432168C96821F07E
:10182000FF0108432168C8602068006840F001009B
:101830002168086000202064202084F83D000020FA
:10184000206384F83E0000BF24E70000A08601006A
:1018500080841E0000093D0040420F0010B586B094
:1018600004460020029003900490059015492068DA
:10187000884225D100BF1448806940F00800124911
:1018800088610846806900F00800019000BF00BF31
:10189000C0200290122003900320059002A90B485B
:1018A000FFF750FD00BF0848C06940F4001006492A
:1018B000C8610846C06900F40010019000BF00BF75
:1018C00006B010BD0054004000100240000C014062
:1018D00003480068034909780844014908607047D3
:1018E000100000201800002010B50848006840F0E3
:1018F000100006490860032000F0AEF80F2000F049
:1019000007F800F02BF8002010BD00000020024076
:1019100070B504460E4800784FF47A71B1FBF0F0D0
:101920000C490968B1FBF0F5284600F0B9FC08B194
:10193000012070BD102C07D200222146501E00F05D
:101940004DF80548046001E00120F2E70020F0E7CF
:10195000180000201C0000201400002008B500BF63
:101960001448806940F00100124988610846806986
:1019700000F00100009000BF00BF00BF0846C06932
:1019800040F08050C8610846C06900F08050009067
:1019900000BF00BF00220F21901E00F01FF800BF03
:1019A0000549486820F0E06040F00070486000BFE2
:1019B00008BD00000010024000000140014608463A
:1019C000002809DB00F01F0301229A4043099B0015
:1019D00003F1E023C3F8002100BF70472DE9F05F59
:1019E00080460D461646002702F04CF80746394659
:1019F0002A46334601F00700C0F1070ABAF1040F86
:101A000002D94FF0040A01E0C0F1070AD14600F103
:101A1000040ABAF1070F02D24FF0000A01E0A0F168
:101A2000030AD4464FF0010A0AFA09FAAAF1010A98
:101A30000AEA020A0AFA0CFA4FF0010B0BFA0CFB45
:101A4000ABF1010B0BEA030B4AEA0B0421464046BB
:101A500002F020F8BDE8F09F00BF00F00702064B3F
:101A600019684FF6FF031940044B0B4343EA022168
:101A7000014B196000BF70470CED00E00000FA0553
:101A800000BF00BF00BF00BF00BFBFF34F8F00BF4C
:101A900000BF00BF0948006800F4E060084908433F
:101AA000001D0649086000BF00BF00BFBFF34F8F95
:101AB00000BF00BF00BF00BF00BFFDE70CED00E0AE
:101AC0000000FA05F8B5044600260025207800F04D
:101AD000010000286BD000274348C06900F0805007
:101AE00070B900BF4048C06940F080503E49C861AD
:101AF0000846C06900F08050009000BF00BF012779
:101B00003A48006800F48070B0B93848006840F482
:101B1000807036490860FFF7B3FD064606E0FFF720
:101B2000AFFD801B642801D90320F8BD2F48006851
:101B300000F480700028F2D02B48006A00F4407551
:101B40002DB3A08800F44070A84220D02648006A37
:101B500020F44075012026490860002008602248D2
:101B6000056205F0010090B1FFF78AFD064608E026
:101B7000FFF786FD801B41F28831884201D903209E
:101B8000D3E71948006A00F002000028F0D0164898
:101B9000006A20F440706168084313490862012F0D
:101BA00004D10846C06920F08050C86100BF207889
:101BB00000F00200022807D10B48406820F44040A2
:101BC000A168084308494860207800F010001028F8
:101BD00007D10548406820F48000E16808430249C5
:101BE00048600020A1E700000010024000700040A3
:101BF0004004424270B504460D460CB9012070BD48
:101C00005A48006800F00700A8420ED25748006802
:101C100020F007002843554908600846006800F096
:101C20000700A84201D00120E9E7207800F0020077
:101C300002281DD1207800F00400042805D14C486A
:101C4000406840F4E0604A494860207800F00800AD
:101C5000082805D14648406840F46050444948602F
:101C60004348406820F0F000A168084340494860BC
:101C7000207800F0010078B36068012806D13C4864
:101C8000006800F4003090B90120B8E760680228CD
:101C900006D13748006800F0007040B90120AEE777
:101CA0003348006800F0020008B90120A7E7304877
:101CB000406820F00300616808432D494860FFF741
:101CC000DFFC064609E0FFF7DBFC801B41F28831B0
:101CD000884202D9032092E707E02548406800F0D7
:101CE0000C006168B0EB810FEDD12048006800F076
:101CF0000700A8420ED91D48006820F007002843BD
:101D00001A4908600846006800F00700A84201D0A0
:101D1000012074E7207800F00400042807D114485B
:101D2000406820F4E060E168084311494860207889
:101D300000F00800082808D10D48406820F46050E1
:101D4000216940EAC1000A49486000F03FF80849AB
:101D50004968C1F30311074A515CC840064908604D
:101D600006480068FFF7D4FD002048E70020024045
:101D7000001002402E5E00081C000020140000200D
:101D800001480068704700001C00002000B5FFF704
:101D9000F7FF04494968C1F30221034A515CC84076
:101DA00000BD0000001002403E5E000800B5FFF7D5
:101DB000E7FF04494968C1F3C221034A515CC840A6
:101DC00000BD0000001002403E5E000870B500211A
:101DD0000022002400230020134D696801F00C0547
:101DE000F5B1042D02D0082D19D101E00F4819E0FA
:101DF0000F4DC1F38346AB5D01F4803555B10A4DFB
:101E00006D68C5F340450B4E725D084D5D43B5FBF3
:101E1000F2F402E0084D03FB05F4204602E000BFA7
:101E2000024800BF00BF70BD0010024000127A00DF
:101E30001C5E00082C5E000800093D00F8B5044651
:101E40000CB90120F8BD207800F00100002878D0FE
:101E5000F848406800F00C0004280CD0F5484068B1
:101E600000F00C00082811D1F248406800F48030DE
:101E7000B0F5803F0AD1EF48006800F40030002838
:101E80005FD0606800285CD10120DBE700BF60689C
:101E9000B0F5803F06D1E748006840F48030E5495E
:101EA000086028E0606858B9E248006820F4803093
:101EB000E04908600846006820F4802008601AE0C5
:101EC0006068B0F5A02F0BD1DA48006840F480209C
:101ED000D84908600846006840F4803008600AE08D
:101EE000D448006820F48030D24908600846006871
:101EF00020F48020086000BF606888B1FFF7C0FB55
:101F0000054606E0FFF7BCFB401B642801D903200F
:101F100098E7C848006800F400300028F2D010E0CC
:101F2000FFF7AEFB054606E0FFF7AAFB401B64285F
:101F300001D9032086E7BF48006800F4003000287C
:101F4000F2D1207800F00200022857D1B948406849
:101F500000F00C0050B1B748406800F00C000828B1
:101F600018D1B448406800F4803098B9B14800688E
:101F700000F0020020B12069012801D0012061E7B2
:101F8000AC48006820F0F800616940EAC100A94946
:101F9000086033E02069E8B10120A7490860FFF735
:101FA0006FFB054606E0FFF76BFB401B022801D9DB
:101FB000032047E79F48006800F002000028F2D0A5
:101FC0009C48006820F0F800616940EAC100994926
:101FD000086013E0002098490860FFF751FB0546B0
:101FE00006E0FFF74DFB401B022801D9032029E73B
:101FF0009048006800F002000028F2D1207800F03C
:10200000080008282DD1A069B8B101208B490860CB
:10201000FFF736FB054606E0FFF732FB401B0228C0
:1020200001D903200EE78348406A00F0020000282F
:10203000F2D0012001F06EF813E000207F49086023
:10204000FFF71EFB054606E0FFF71AFB401B0228C0
:1020500001D90320F6E67748406A00F00200002824
:10206000F2D1207800F00400042873D100277148D1
:10207000C06900F0805070B900BF6E48C06940F080
:1020800080506C49C8610846C06900F080500090DB
:1020900000BF00BF01276A48006800F48070B0B933
:1020A0006748006840F4807065490860FFF7E8FA07
:1020B000054606E0FFF7E4FA401B642801D9032037
:1020C000C0E65F48006800F480700028F2D000BFCE
:1020D000E068012806D15748006A40F001005549E0
:1020E000086227E0E06858B95248006A20F0010011
:1020F000504908620846006A20F00400086219E0AE
:10210000E06805280BD14B48006A40F004004949BB
:1021100008620846006A40F0010008620AE045488B
:10212000006A20F00100434908620846006A20F076
:102130000400086200BFE068A0B1FFF7A1FA0546FD
:1021400009E0FFF79DFA401B41F28831884202D92D
:10215000032077E622E03748006A00F002000028FA
:10216000EFD012E0FFF78CFA054608E0FFF788FA97
:10217000401B41F28831884201D9032062E62D4894
:10218000006A00F002000028F0D1012F05D1294893
:10219000C06920F080502749C86100BFE069C8B31A
:1021A0002448406800F00C00082860D0E06902284C
:1021B00048D1002020490866FFF762FA054606E08C
:1021C000FFF75EFA401B022801D903203AE61948BE
:1021D000006800F000700028F2D1206AB0F5803F5E
:1021E00007D11448406820F40030A1680843114921
:1021F0004860D4E9080108430E49496821F4741184
:1022000008430C49486001200B490866FFF738FA7B
:10221000054607E03DE0FFF733FA401B022801D9ED
:1022200003200FE60348006800F000700028F2D099
:102230002FE00000001002400000424280044242B1
:1022400000700040002014490866FFF719FA05469F
:1022500006E0FFF715FA401B022801D90320F1E53B
:102260000E48006800F000700028F2D111E0E0692B
:10227000012800D1E6E50948466806F48031206A65
:10228000814204D106F47011606A814201D00120BC
:10229000D8E50020D6E500000000424200100240D0
:1022A00070B504462546681EB0F1807F01D3012039
:1022B0000FE0681E4FF0E02148610F214FF0FF3022
:1022C00001F0E8FB00204FF0E02188610720086161
:1022D000002070BD7047704730B502460B4600BF06
:1022E00092F83C00012801D1022030BD012082F883
:1022F0003C0000BF022082F83D001068446810686E
:10230000816824F070041868044310684460104D1C
:102310001068A8420BD01068B0F1804F07D00D4D67
:102320001068A84203D00C4D1068A84205D121F0D6
:1023300080015868014310688160012082F83D00E7
:1023400000BF002082F83C0000BF00BFCDE70000C6
:10235000002C0140000400400008004010B5044675
:102360000CB9012010BD94F83D0028B9002084F874
:102370003C00204600F026F8022084F83D00211D94
:10238000206801F011F9012084F8460000BF84F8AC
:102390003E0001213F2001554020015541200155BB
:1023A00000BF00BF012084F84200432001554420B3
:1023B00001554520015500BF012084F83D00002053
:1023C000D0E7000038B504462068B0F1804F15D141
:1023D00000BF0B48C06940F001000949C8610846C8
:1023E000C06900F00100009000BF00BF002205217D
:1023F0001C20FFF7F3FA1C20FFF7E0FA38BD0000BD
:10240000001002402DE9F04104460D46002700BFB0
:1024100094F83C00012802D10220BDE8F08101209F
:1024200084F83C0000BF022084F83D0020688668E4
:1024300026F0770626F47F462068866028685028B4
:1024400033D00CDC202850D004DC00284BD01028DE
:1024500051D149E0302849D040284CD139E060289A
:102460002DD0702807D0B0F5805F03D0B0F5005FA5
:1024700041D10DE041E0D5E902136A68206801F01E
:10248000CDF82068866846F077062068866034E0DC
:10249000D5E902136A68206801F0C0F820688068F6
:1024A00040F480402168886027E0EA686968206815
:1024B00001F0C8F85021206801F0BBF81DE0EA687F
:1024C0006968206801F0D1F86021206801F0B1F856
:1024D00013E0EA686968206801F0B4F840212068D8
:1024E00001F0A7F809E000BF00BF00BF296820681D
:1024F00001F09FF801E0012700BF00BF012084F830
:102500003D0000BF002084F83C0000BF384684E74F
:10251000704710B5044620680069C0F34000D8B188
:102520002068C068C0F34000B0B16FF002002168BD
:102530000861012020772068806900F0030018B14D
:102540002046FFF7E5FF05E0204600F0ADF8204605
:1025500000F0ABF80020207720680069C0F380000D
:10256000D8B12068C068C0F38000B0B16FF004003B
:1025700021680861022020772068806900F440709B
:1025800018B12046FFF7C4FF05E0204600F08CF8A4
:10259000204600F08AF80020207720680069C0F308
:1025A000C000D8B12068C068C0F3C000B0B16FF0FF
:1025B000080021680861042020772068C06900F0C5
:1025C000030018B12046FFF7A3FF05E0204600F006
:1025D0006BF8204600F069F8002020772068006939
:1025E000C0F30010D8B12068C068C0F30010B0B1CB
:1025F0006FF0100021680861082020772068C0690A
:1026000000F4407018B12046FFF782FF05E0204635
:1026100000F04AF8204600F048F8002020772068B3
:10262000006900F0010058B12068C06800F00100A6
:1026300030B16FF0010021680861204600F036F8E3
:1026400020680069C0F3C01058B12068C068C0F3AA
:10265000C01030B16FF08000216808612046FFF79C
:1026600039FE20680069C0F3801058B12068C06846
:10267000C0F3801030B16FF040002168086120463F
:1026800000F015F820680069C0F3401058B12068C8
:10269000C068C0F3401030B16FF0200021680861BD
:1026A0002046FFF718FE10BD70477047704770470F
:1026B000704770472DE9F84F044620680568206888
:1026C000C668206847694FF00009CA4605F00F093F
:1026D000B9F1000F0AD105F0200038B106F0200052
:1026E00020B1204601F025F8BDE8F88FB9F1000FC0
:1026F0007BD007F0010018B906F49070002874D060
:1027000005F0010030B106F4807018B1606C40F043
:102710000100606405F0040030B107F0010018B159
:10272000606C40F00200606405F0020030B107F018
:10273000010018B1606C40F00400606405F008000E
:1027400048B106F0200010B907F0010018B1606C24
:1027500040F008006064606C002845D005F020005F
:1027600028B106F0200010B1204600F0E2FF2068FA
:102770004069C0F3801A606C00F0080010B9BAF12B
:10278000000F2CD0204600F08EFF2068406900F03A
:10279000400000B300BF00BF2168143151E8001FA2
:1027A00021F040002168143141E80002002AF3D1F1
:1027B00000BFE06B50B17748E16B4863E06BFEF718
:1027C00053F988B1E06B416B88470DE02046FFF775
:1027D00070FF09E009E02046FFF76BFF04E02046A8
:1027E000FFF767FF002060647EE7206B012877D148
:1027F00005F01000002873D006F010000028FAD071
:1028000000BF0020009020680068009020684068A9
:10281000009000BF00BF2068406900F04000002821
:102820005FD0E06B006840681FFA80F8B8F1000FD5
:1028300055D0A08D404552DDA4F82E80E06B806914
:10284000202843D000BF00BF21680C3151E8001F91
:1028500021F4807021680C3141E80002002AF3D194
:1028600000BF00BF00BF2168143151E8001F21F0F4
:1028700001002168143141E80002002AF3D100BFB1
:1028800000BF00BF2168143151E8001F21F0400053
:102890002168143141E80002002AF3D100BF202052
:1028A00084F842000020206300BF00BF21680C3183
:1028B00051E8001F21F0100021680C3141E80002AE
:1028C000002AF3D100BFE06BFEF7A2F8022060639C
:1028D000A08DE28D801A81B22046FFF7E9FE03E762
:1028E00042E0A08DE18D401A1FFA80F8E08DD0B350
:1028F000B8F1000F37D000BF00BF21680C3151E89C
:10290000001F21F4907021680C3141E80002002A78
:10291000F3D100BF00BF00BF2168143151E8001F90
:1029200021F001002168143141E80002002AF3D1AE
:1029300000BF202084F842000020206300BF00BFB9
:1029400021680C3151E8001F21F0100021680C3182
:1029500041E80002002AF3D100BF02206063414633
:102960002046FFF7A5FEBFE605F0800030B106F077
:10297000800018B1204600F0F9FFB5E605F04000F0
:1029800030B106F0400018B1204600F0C2FEABE6C0
:1029900000BFA9E69336000810B504460CB9012023
:1029A00010BDA06900B100E000BF94F8410028B953
:1029B000002084F84000204600F02AF8242084F803
:1029C00041002068C06820F400502168C86020469B
:1029D00000F02EFF2068006920F490402168086113
:1029E0002068406920F02A00216848612068C0689A
:1029F00040F400502168C86000206064202084F802
:102A0000410084F842000020606300BFC8E7000076
:102A100010B586B004460020029003900490059003
:102A200055492068884237D100BF5448806940F436
:102A30008040524988610846806900F480400190D6
:102A400000BF00BF00BF0846806940F004008861F5
:102A50000846806900F00400019000BF00BF4815DF
:102A60000290022003900320059002A94448FEF73B
:102A700069FC4FF48060029000200390049002A94A
:102A80003F48FEF75FFC002205212520FEF7A6FF48
:102A90002520FEF793FF6DE03A49206888422ED149
:102AA00000BF3648C06940F400303449C861084668
:102AB000C06900F40030019000BF00BF00BF0846AD
:102AC000806940F0040088610846806900F00400D5
:102AD000019000BF00BF0420029002200390032059
:102AE000059002A92648FEF72DFC08200290002040
:102AF0000390049002A92248FEF724FC3AE0224900
:102B00002068884236D100BF1C48C06940F480204C
:102B10001A49C8610846C06900F48020019000BFCE
:102B200000BF00BF0846806940F008008861084681
:102B3000806900F00800019000BF00BF08150290F6
:102B4000022003900320059002A91048FEF7FAFB2B
:102B50004FF40060029000200390049002A90B48FB
:102B6000FEF7F0FB002205212720FEF737FF272084
:102B7000FEF724FF06B010BD0038014000100240EF
:102B8000000801400044004000480040000C0140A3
:102B900070B504460D46164694F8420020280BD125
:102BA00005B10EB9012070BD0020206332462946D0
:102BB000204600F0BBFEF6E70220F4E710B504461D
:102BC0002E492068884201D101F066FD2C49206819
:102BD000884252D12B4890F87C0301284DD12A48D5
:102BE000007861280DD1274890F8950368B9012134
:102BF000244880F8951380F8D813002180F88013BA
:102C000003E000211F4880F895131F4800786228D0
:102C10000ED11C4890F8980370B90121194880F82A
:102C20009813042180F8D813002180F8831303E05F
:102C30000021144880F8981313480078632813D1B2
:102C4000104890F8190401280ED10E4890F8990305
:102C500070B901210B4880F89913052180F8D81329
:102C6000002180F8841303E00021064880F89913BE
:102C7000012205490548FFF78BFF10BD00380140D0
:102C800000480040D04100209A000020400200206F
:102C90002DE9F84F04460E46174699464FF0000AB4
:102CA00094F8410020284AD106B117B90120BDE8A7
:102CB000F88F00206064212084F84100FEF7E0FCDA
:102CC0008246A784E784A068B0F5805F04D12069BC
:102CD00010B90025B04602E035464FF000081BE071
:102CE0005346002280212046CDF8009000F06EFE71
:102CF00008B10320DBE745B9B8F80000C0F30800CD
:102D00002168486008F1020803E0287821684860DB
:102D10006D1CE08C401EE084E08C0028E0D153461E
:102D2000002240212046CDF8009000F04FFE08B16F
:102D30000320BCE7202084F841000020B7E70220F0
:102D4000B5E7704700BFFEE70EB500200090019088
:102D500002902348234908608115224881600021A0
:102D6000017301754FF46021C16100201D49486065
:102D700004211C480161FDF73BFD08B1FDF754FB40
:102D8000062000900120019002200290694615481B
:102D9000FDF77EFC08B1FDF747FB072000900220FD
:102DA000019069460F48FDF773FC08B1FDF73CFB45
:102DB000082000900320019069460A48FDF768FC4E
:102DC00008B1FDF731FB092000900420019069460D
:102DD0000448FDF75DFC08B1FDF726FB0EBD0000C1
:102DE00000240140A000002008B500BF0A48406947
:102DF00040F00100084948610846406900F00100C0
:102E0000009000BF00BF002205210B20FEF7E6FD69
:102E10000B20FEF7D3FD08BD0010024000B585B0C1
:102E20000020019002900390049000BF5D488069EB
:102E300040F010005B4988610846806900F010008E
:102E4000009000BF00BF00BF0846806940F020002E
:102E500088610846806900F02000009000BF00BF34
:102E600000BF0846806940F0040088610846806918
:102E700000F00400009000BF00BF00BF084680695A
:102E800040F0080088610846806900F00800009062
:102E900000BF00BF00224FF460414348FEF7EAFB49
:102EA000002241F633114148FEF7E4FB00224FF4C3
:102EB00073413F48FEF7DEFB4FF460400190012074
:102EC0000290002003900320049001A93648FEF7E9
:102ED00039FA41F63310019001200290002003904E
:102EE0000320049001A93148FEF72CFA4FF47140F9
:102EF000019001200290002003900220049001A97B
:102F00002B48FEF71FFA4FF4004001902948029029
:102F10000020039001A92548FEF714FA082001902B
:102F2000254802900020039001A92148FEF70AFAE3
:102F300030200190214802900020039001A91C48F4
:102F4000FEF700FA4FF4007001900120029000207B
:102F500003900320049001A91548FEF7F3F900221D
:102F600006210920FEF73AFD0920FEF727FD002281
:102F700007210A20FEF732FD0A20FEF71FFD00227E
:102F800007211720FEF72AFD1720FEF717FD002264
:102F900006212820FEF722FD2820FEF70FFD05B0B0
:102FA00000BD000000100240001001400008014078
:102FB000000C014000002110000031100000111031
:102FC00010B50B480B49086064204860002109488F
:102FD0008160C1604FF480410161002141618161E4
:102FE000C1610162FEF752FB08B1FDF71DFA10BD89
:102FF000005400401401002000B587B00020039069
:10300000049005900690019002904FF08040144982
:1030100008604720486000211148816040F2E73194
:10302000C160002101618161FFF798F908B1FDF7E6
:10303000FBF94FF48050039003A90948FFF7E2F928
:1030400008B1FDF7F1F900200190029001A90448B0
:10305000FFF742F908B1FDF7E7F907B000BD00003E
:103060006801002010B50B480B4908604FF4E130AF
:103070004860002108488160C16001610C21416104
:1030800000218161C161FFF787FC08B1FDF7CCF930
:1030900010BD000000380140B001002010B50B4801
:1030A0000B4908604FF4E130486000210848816016
:1030B000C16001610C21416100218161C161FFF7A3
:1030C0006BFC08B1FDF7B0F910BD000000440040F2
:1030D000F801002010B50B480B4908604FF4E130AF
:1030E0004860002108488160C16001610C21416194
:1030F00000218161C161FFF74FFC08B1FDF794F930
:1031000010BD0000004800404002002000BFFEE764
:1031100000BFFEE708B508490968C9084FF47A728C
:10312000B1FBF2F14143009100BF00BF00994A1E7C
:1031300000920029F9D108BD1C00002000F024FFF6
:1031400001F086FE00F056FE00BF012001F064FA97
:103150000A4A92F8721392F8700301F003FB074ACF
:1031600092F8761392F8740301F00CFB034A92F87C
:103170007A1392F8780301F015FBE6E7D0410020BE
:103180000448FDF7BFF900BF012001F045FAFDF743
:1031900075F9F9E7B001002000F0FEFF00BF012043
:1031A00001F03AFA00F086FF144890F83E0300F070
:1031B0000100A8B91148B0F83E03C0F3402078B927
:1031C0000E4890F8AA0378B90C4890F87D0380F077
:1031D00001010A4880F87D13012180F8AA1303E059
:1031E0000021064880F8AA13044890F87C030028C0
:1031F000D5D101F07BF800F023FED0E7D0410020CC
:1032000001F0F8FF00BF012001F006FAB44890F881
:103210003E03C0F3C00080B9B14890F8A90380B95B
:10322000AF4890F87C0380F00100AD4981F87C0341
:103230000121AB4880F8A91303E00021A84880F8D9
:10324000A913A74890F87C030128DCD10122A549E5
:10325000A548FFF79DFCA24890F8D80301287DD12E
:103260009F4890F8800328B901F050FE01219C4846
:1032700080F880139A4890F8D903012837D19848EC
:1032800090F88003012832D101F094FD01F086FD11
:103290000120964908709248B0F8C613A0F8CA13E6
:1032A00090F8AC03401CC1B28D4880F8AE134621A3
:1032B000012002F077FC052001F0AEF901F074FD69
:1032C00001208B4908708648B0F8C813A0F8CC13C9
:1032D00090F8AD03401EC1B2814880F8AF1346217B
:1032E000022002F043FC02217D4880F880137C48D4
:1032F00090F8DA03012807D161207E490870142371
:1033000001227948FFF7C4FC754890F8EE030128C4
:103310000DD1734890F80204012808D1764800784E
:1033200028B9012074490870C82001F075F96C486B
:1033300090F8EE03012888D1694890F8020401282A
:10334000F9D1674890F816040128F4D16A4800784A
:1033500038B9012068490870C82000E009E001F090
:103360005BF902215E4880F8D813002180F88113B0
:1033700049E75B4890F8D80302282DD1584890F8C7
:10338000810328B901F0F4FD0121554880F881132B
:10339000262058490870142301225348FFF778FC6F
:1033A0004F4890F803040128E2D14D4890F8EF030C
:1033B0000128DDD1504800780028D9D101204E499C
:1033C0000870C82001F028F90321454880F8D81377
:1033D000002180F8821316E7414890F8D8030328AB
:1033E00012D13F4890F8820328B901F005FE01216F
:1033F0003B4880F8821341203E4908701423012283
:103400003948FFF745FCFEE6354890F8D803042814
:103410001CD1334890F8830350B9314890F8180410
:10342000012805D101F020FE01212D4880F88313E9
:103430002B4890F8DD0301289AD142202D490870CD
:10344000142301222848FFF723FCDCE6244890F8E7
:10345000D803052832D1224890F8840328B901F016
:1034600035FE01211E4880F884131D4890F8F203B0
:1034700001280CD11A4890F80604012807D11E49EA
:1034800008704FF42F7001F0C7F800F047FB1448A4
:1034900090F81A0401289ED1114890F8F2030128EF
:1034A00099D10F4890F80604012894D106210C48C0
:1034B00080F8D813002180F88513A4E6084890F816
:1034C000D803062887D1064890F8850300289AD1AA
:1034D00001F05EFE0121024880F8851393E60000AA
:1034E000D04100209A0000204002002082000020ED
:1034F000830000209B0000209C00002010B5FEF7F8
:10350000E7F902F09BF9012801D002F0EFF810BDB5
:1035100000B593B0282109A8FCF7D4FE142104A813
:10352000FCF7D0FE00200090019002900390012053
:10353000099000040A9000200B9001200D900220B9
:103540001090C10311914FF4E011129109A8FEF7F8
:1035500075FC08B1FCF768FF0F200490022005906D
:10356000002006904FF48060079000200890022110
:1035700004A8FEF73FFB08B1FCF756FF02200090BD
:10358000800302906846FEF79DFA08B1FCF74CFFF5
:1035900013B000BD7047000010B50248FEF7B9FF38
:1035A00010BD00006801002010B50268184B984259
:1035B00008D0B0F1804F05D0164B984202D0164B80
:1035C000984203D122F070024B681A43104B984284
:1035D00008D0B0F1804F05D00E4B984202D00E4B70
:1035E000984203D122F44072CB681A4322F0800340
:1035F0004C6943EA040202608B68C3620B68836211
:10360000034B984201D10B6903630123436110BD51
:10361000002C0140000400400008004030B50C467A
:10362000816821F47F4142EA0325254329438160D3
:1036300030BD0A46816821F0700142F0070319434A
:103640008160704730B50B461446026A056A25F062
:1036500001050562816921F0F00141EA041122F0BF
:103660000A021A438161026230BD30B50B4614462E
:10367000026A056A25F010050562816921F470412E
:1036800041EA043122F0A00242EA0312816102629F
:1036900030BD70B505466C6A0020E085E0842046A8
:1036A000FFF707F870BD00BF00BF02680C3252E898
:1036B000002F22F4907102680C3242E80013002BB4
:1036C000F3D100BF00BF00BF0268143252E8002FE0
:1036D00022F001010268143242E80013002BF3D1FA
:1036E00000BF016B01290ED100BF00BF02680C3280
:1036F00052E8002F22F0100102680C3242E8001359
:10370000002BF3D100BF202180F84210002101637B
:10371000704710B504462068C06820F0400021685A
:10372000C860202084F841002046FFF70AFB0020F3
:1037300010BDF8B5044694F84200222875D1A0685F
:10374000B0F5805F0CD1206950B90025A66A2068C9
:103750004068C0F308003080A06A801CA06215E0B9
:10376000A56A0026A068B0F5805F03D0A06828B9DC
:10377000206918B920684068287004E02068406813
:1037800000F07F002870A06A401CA062E08D401EFF
:1037900080B2E085002846D12068C06820F0200073
:1037A0002168C8602068C06820F480702168C86003
:1037B0002068406920F0010021684861202084F8D9
:1037C000420000206063206B012826D10020206386
:1037D00000BF00BF21680C3151E8001F21F010002C
:1037E00021680C3141E80002002AF3D100BF2068B3
:1037F000006800F0100010280AD100BF00200090DF
:1038000020680068009020684068009000BF00BFFA
:10381000A18D2046FEF74CFF02E02046FFF7CEF9CF
:103820000020F8BD01E00020FBE70220F9E70000DE
:1038300070B504462168096921F44051E2681143DA
:10384000226811612269A1681143626941EA020597
:103850002168C96841F20C62914329432268D16012
:103860002168496921F44071A269114322685161BC
:103870002D4A2168914202D1FEF798FA01E0FEF745
:1038800085FA00EBC00101EB001162689200B1FB08
:10389000F2F100EBC00202EB001263689B00B2FB86
:1038A000F3F26423B2FBF3F202EBC20303EB021266
:1038B000A1EB8201322202EB01116422B1FBF2F191
:1038C00001F0F00100EBC00202EB001263689B0004
:1038D000B2FBF3F26423B2FBF3F201EB021200EB52
:1038E000C00101EB001163689B00B1FBF3F100EB39
:1038F000C00303EB00136668B600B3FBF6F364265F
:10390000B3FBF6F303EBC30606EB0313A1EB830152
:10391000322303EB01116423B1FBF3F101F00F013A
:1039200011442268916070BD0038014010B5034613
:1039300099629A85DA8500205864222083F8420033
:10394000186928B11868C06840F480701C68E0608D
:103950001868406940F001001C6860611868C06820
:1039600040F020001C68E060002010BD014691F886
:103970004100212828D18868B0F5805F0BD1086903
:1039800048B90A6A1088C0F308000B685860086AD2
:10399000801C086205E00B6A581C086218780B68E6
:1039A0005860C88C401E80B2C88458B90868C06886
:1039B00020F080000B68D8600868C06840F04000C4
:1039C0000B68D860002070470220FCE72DE9F04129
:1039D00004460D4617469846069E34E0701C88B390
:1039E0002EB1FDF74DFEA0EB0800B0422BD900BF71
:1039F00000BF21680C3151E8001F21F4D07021680C
:103A00000C3141E80002002AF3D100BF00BF00BF23
:103A10002168143151E8001F21F0010021681431A0
:103A200041E80002002AF3D100BF202084F84100C1
:103A300084F8420000BF002084F8400000BF03204B
:103A4000BDE8F081FFE7206800682840A84201D166
:103A5000012000E00020B842C0D00020F0E70000C4
:103A600010B50248FEF726FE10BD0000B001002090
:103A700010B50248FEF71EFE10BD000040020020F7
:103A800000BFFEE702480068C0F302207047000054
:103A90000CED00E010B5002804DB0A07130E054A00
:103AA000135406E00A07140E034A00F00F031B1F0D
:103AB000D45410BD00E400E018ED00E070B50446F9
:103AC0000849204602F0A6F80646304602F086F87D
:103AD000054605480068A84201D9012070BD0020B4
:103AE000FCE7000000409C45242C014070B50446D2
:103AF0000849204602F08EF80646304602F06EF87D
:103B0000054605480068A84201D9012070BD002083
:103B1000FCE7000000409C452404004010B5102143
:103B20003148FDF79FFD68B90121304880F8B31393
:103B30000021A0F8C0132321A0F8C41314210220EF
:103B400001F0B8FF20212848FDF78CFD68B901215C
:103B5000264880F8B2130021A0F8BE132321A0F854
:103B6000C2131421012001F0A5FF11E00A2000F08A
:103B700053FD1E48B0F8BE03401C81B21B48A0F89C
:103B8000BE13B0F8C003401C81B21848A0F8C0139F
:103B90001648B0F8C013B0F8C4038142E6DB1348FE
:103BA000B0F8BE13B0F8C2038142DFDB0F4890F8D3
:103BB000B203012802D11E2101F07CFF0B4890F8CE
:103BC000B303012803D11E21022001F073FF00BFBF
:103BD000064890F8B2030128FAD0044890F8B303DD
:103BE0000128F5D010BD0000000C0140D04100209C
:103BF0000F48806940F400600D4988614FF6FE70FF
:103C00000C49086043F63F00091F0860094818384E
:103C1000006840F0010007491839086005482C3851
:103C2000006840F0010003492C390860704700002B
:103C3000001002402C2C01400F48C06940F00200E7
:103C40000D49C8614FF6FE700C49086043F63F000D
:103C5000091F086009481838006840F0010007494A
:103C60001839086005482C38006840F00100034905
:103C70002C39086070470000001002402C040040FE
:103C80000E48C06940F004000C49C86140F2CF7092
:103C90000B4908604720091F086009481838006868
:103CA00040F0010006491839086005482C380068C2
:103CB00040F0010002492C390860704700100240B2
:103CC0002C08004070B504460D46012D39D13E4800
:103CD0000155012C04D1012209033C48FDF7CAFC1F
:103CE000022C04D10122D1023848FDF7C3FC032C79
:103CF00004D1012211023548FDF7BCFC042C04D18B
:103D0000012211023248FDF7B5FC052C04D1012235
:103D100011032F48FDF7AEFC062C04D101225103FC
:103D20002B48FDF7A7FC072C04D10122910328485A
:103D3000FDF7A0FC082C04D10122D1032448FDF793
:103D400099FC002D3ED100211F480155012C04D1C2
:103D5000002221031D48FDF78DFC022C04D1002216
:103D6000A1021A48FDF786FC032C05D100224FF46E
:103D700080711648FDF77EFC042C04D10022A101BD
:103D80001348FDF777FC052C05D100224FF4805134
:103D90000F48FDF76FFC062C05D100224FF40051AF
:103DA0000B48FDF767FC072C05D100224FF480413A
:103DB0000748FDF75FFC082C04D1002221030448CA
:103DC000FDF758FC70BD0000F945002000080140D7
:103DD000000C014008E00021054A116000BF0449C1
:103DE00009680029FBD0401E0028F4D1704700006C
:103DF0002408004000200C4981F8700300210A4883
:103E0000A0F872130020084981F8740300210648C5
:103E1000A0F876130020044981F8780300210248B5
:103E2000A0F87A1370470000D04100200021034A17
:103E300082F878131146A1F87A037047D041002028
:103E400010B54E4890F83B04012807D1462000F0F9
:103E500043FA0121494880F8411428E0474890F886
:103E60003C04012818D14648006800F4004038B1ED
:103E70004620FFF7DBFF0121404880F8411416E09F
:103E80003E4890F8410418B90020FFF7CFFF0EE03C
:103E9000032000F0A9F80AE0384890F8420418B965
:103EA0000020FFF7C3FF02E0032000F09DF8334835
:103EB00090F83D04012807D1282101F073FE01216B
:103EC0002E4880F8421418E02C4890F83E0401284F
:103ED00007D1282101F04AFE0121284880F8421428
:103EE0000BE0264890F8420420B90021012001F09F
:103EF00059FE02E0012000F077F8204890F83F04D6
:103F0000012808D12821022001F04CFE01211B4884
:103F100080F8431419E0194890F84004012808D1AA
:103F20002821022001F022FE0121144880F84314C8
:103F30000BE0124890F8430420B90021022001F060
:103F400031FE02E0022000F04FF8012412E00D489B
:103F5000005D012806D10B497539085D0121FFF785
:103F6000B1FE05E007497539085D0021FFF7AAFE9B
:103F7000601CC4B2092CEADB10BD0000D041002057
:103F800008080140F945002000B5FFF731FEFFF7B2
:103F900053FEFFF775FE00BD10B50446012C0FD18E
:103FA00001210846FFF78EFE01210320FFF78AFE5C
:103FB00001210520FFF786FE01210720FFF782FE81
:103FC000022C0FD101210220FFF77CFE01210420E9
:103FD000FFF778FE01210620FFF774FE012108207B
:103FE000FFF770FE10BD0000012803D1012208492F
:103FF000A1F87223022803D101220549A1F87623F2
:10400000032803D101220249A1F87A237047000056
:10401000D041002000B5124890F8D503104981F82E
:10402000D003084690F8D11390F8D503814207DAFF
:1040300001210B4880F87E13462000F04DF90DE079
:10404000074890F8D11390F8D503814206DD00218E
:10405000034880F87E134620FFF7E8FE00BD00000D
:10406000D041002000B5124890F8D603104981F8DD
:10407000D003084690F8D11390F8D603814207DAAE
:1040800001210B4880F87E13462000F025F90DE051
:10409000074890F8D11390F8D603814206DD00213D
:1040A000034880F87E134620FFF7C0FE00BD0000E5
:1040B000D041002000B53448B0F83E03C0F3C02022
:1040C00000285BD1304890F83E0300F00100002842
:1040D00054D12D4890F8A803002853D100212A4834
:1040E00080F8AB1390F87C03284908700220264919
:1040F00081F87C032648006800F0200020B10021F0
:10410000012001F04FFD03E00F21012001F04AFDE5
:1041100041F28830FFF75EFE1D48006800F0100095
:1041200020B10021022001F03DFD03E00F2102201B
:1041300001F038FD41F28830FFF74CFE1548006869
:1041400000F4004038B100210F4880F89313372065
:10415000FFF76CFE02E00020FFF768FE0D480068E4
:1041600000F4004028B9FFF755FF0121064880F808
:10417000AB130121044880F8A81303E00021024892
:1041800080F8A81300BD0000D04100209D00002051
:10419000080C014008080140012005E000220E49FA
:1041A0000A5409310A54401C0928F7DB00210B4846
:1041B00080F83D1480F83F1480F83E1480F84014D5
:1041C00080F83B1480F83C1480F8411480F84214C5
:1041D00080F8431470470000F9450020D0410020CA
:1041E0009CB0FDF781FBFFF793F9FEF717FEFEF792
:1041F000FBFDFEF7A9FDFEF7E3FEFEF7FDFEFEF771
:1042000031FFFEF74BFFFEF765FFFCF79FF900213A
:104210000120FFF757FD00210220FFF753FD002189
:104220000320FFF74FFD00210420FFF74BFD002185
:104230000520FFF747FD00210620FFF743FD002181
:104240000720FFF73FFD00210820FFF73BFD1C2260
:10425000184915A8FCF704F8002115A800F0EDF99D
:10426000154908601C2213491C310EA8FBF7F8FF02
:1042700000210EA800F0E1F9104908601C220D4948
:10428000383107A8FBF7ECFF002107A800F0D5F9AB
:104290000B4908601C22074954316846FBF7E0FFD0
:1042A0000021684600F0C9F90649086000F0C0F92D
:1042B00000BFFEE7AC5D0008000000200400002005
:1042C000080000200C00002001460020842901D0B5
:1042D000CA1C1044704700000121034A82F8781379
:1042E0001146A1F87A037047D0410020C948D0F8A0
:1042F0004003C0F3005060B9C648D0F84003C0F393
:10430000C04030B90121C34880F83B1480F87E13C7
:1043100003E00021BF4880F83B14BE48D0F84003BA
:10432000C0F3005068B9BB48D0F84003C0F38040E8
:1043300038B90121B74880F83C14002180F87E1379
:1043400003E00021B34880F83C14B248D0F84003A1
:10435000C0F3404050B9AF48D0F84003C0F300402C
:1043600020B90121AB4880F83D1407E0A94890F836
:104370007D0318B90021A74880F83D14A548D0F85E
:104380004003C0F3404050B9A248D0F84003C0F306
:10439000C05020B901219F4880F83E1407E09D4895
:1043A00090F87D0318B900219A4880F83E14994886
:1043B000D0F84003C0F3805050B99648D0F840037D
:1043C000C0F3004020B90121924880F83F1407E073
:1043D000904890F87D0318B900218E4880F83F146A
:1043E0008C48D0F84003C0F3805050B98948D0F8C9
:1043F0004003C0F3C05020B90121864880F8401422
:1044000007E0844890F87D0318B90021814880F8BE
:1044100040148048B0F83E03C0F3C020A8B97D48DE
:10442000D0F84003C0F3405078B97A4890F833048C
:1044300078B9784890F82A0480F00101754880F82E
:104440002A14012180F8331403E00021714880F818
:1044500033147048B0F83E03C0F3C020A8B96D48CB
:10446000D0F84003C0F3005078B96A4890F834049B
:1044700078B9684890F82B0480F00101654880F80D
:104480002B14012180F8341403E00021614880F8E6
:1044900034146048B0F83E03C0F3C020A8B95D48AA
:1044A000D0F84003C0F3805078B95A4890F83504EA
:1044B00078B9584890F82C0480F00101554880F8EC
:1044C0002C14012180F8351403E00021514880F8B4
:1044D00035145048B0F83E03C0F3C020A8B94D4889
:1044E000D0F84003C0F3C04078B94A4890F8360489
:1044F00078B9484890F82D0480F00101454880F8CB
:104500002D14012180F8361403E00021414880F881
:1045100036144048B0F83E03C0F3C020A8B93D4867
:10452000D0F84003C0F3404078B93A4890F83704D7
:1045300078B9384890F82E0480F00101354880F8A9
:104540002E14012180F8371403E00021314880F84F
:1045500037143048B0F83E03C0F3C020A8B92D4846
:10456000D0F84003C0F3C05078B92A4890F8380416
:1045700078B9284890F82F0480F00101254880F888
:104580002F14012180F8381403E00021214880F81D
:1045900038142048B0F83E03C0F3C020A8B91D4825
:1045A000D0F84003C0F3804078B91A4890F8390435
:1045B00078B9184890F8300480F00101154880F867
:1045C0003014012180F8391403E00021114880F8EB
:1045D00039141048B0F83E03C0F3C020A8B90D4804
:1045E000D0F84003C0F3004078B90A4890F83A0484
:1045F00078B9084890F8310480F00101054880F846
:104600003114012180F83A1403E00021014880F8B8
:104610003A147047D041002070B5044625460DB1CC
:10462000294600E00121084600F010FF002070BD7F
:1046300010B500F039FF002010BD7FB504460D46CF
:10464000606998B1A06988B1B4F90800FFF73CFE31
:104650000646D4E90510CDE9006102902B46226997
:10466000D4E9001001F08EF8039013E0B4F90800CB
:10467000FFF72AFE064603A8CDE90060238A9AB216
:104680002B46D4E9001001F04BF8012802D000209D
:1046900004B070BD0398FBE710B52C4890F82403D4
:1046A000462806D101202A490870002029490870AF
:1046B00045E027480078002841D0244890F824138A
:1046C000244802780078401C224B187022488154FC
:1046D00018460078062832DB1F4801781B4880F80E
:1046E0003E131D484178194880F83F131A488178D5
:1046F000164880F844131848C178144880F84313CA
:1047000015480179114880F84213134841790F4840
:1047100080F841130020194608700D4908700121E6
:104720000A4880F8351301F099F80849C1F83803B0
:10473000084690F83F03F52801D1FDF7A1F90122C1
:10474000064907480068FEF723FA10BDD041002053
:10475000910000209200002093000020F4440020EB
:104760008C00002070B504460D46012101EBC411F8
:10477000C8B200F031FB284600F02EFBFF2000F00D
:104780002BFB70BD70B504460D46022101EBC41130
:10479000C8B200F021FB284600F01EFBFF2000F00D
:1047A0001BFB70BD70B504460D46032101EBC4111F
:1047B000C8B200F011FB284600F00EFBFF2000F00D
:1047C0000BFB70BD2DE9F04105460E461C480768FD
:1047D0001C480068001D00F03DFD50B919480068F4
:1047E00090F82C1001208840174909688143164829
:1047F0000160681C38B936B112480168091D1348B8
:1048000000F072FD1AE07C190E4800684460BC425A
:1048100007D20C480168091D0D48006800F04AFDE8
:104820000CE008480168091D0A48006800F042FDD4
:1048300009480068844201D207480460BDE8F0815D
:10484000340000202000002038000020B80500209F
:1048500028000020240000205000002010B504464D
:1048600000F04EFD23480068401C224908602248A1
:10487000006840B9204804600846006801280DD14E
:1048800000F03AF90AE01D48006838B91A48006893
:10489000C06AE16A884201D8174804601848006875
:1048A000401C1749086094F82C10012088401549D5
:1048B0000968084313490860E16A01EB8101124A63
:1048C00002EB8100211D00F00FFD00F043FD0B48BD
:1048D000006868B108480068C06AE16A884207D287
:1048E0004FF0805009490860BFF34F8FBFF36F8FBF
:1048F00010BD000030000020200000203C000020FF
:104900004C00002038000020DC04002004ED00E012
:1049100010B516E000F0F4FC0C48C068C468201D17
:1049200000F098FC0A480068401E094908600948E0
:104930000068401E0749086000F00CFD204600F0AA
:104940000BF8044800680028E4D110BDA40500203D
:10495000300000202C00002010B5044694F85100CF
:1049600030B9206B00F014FD204600F011FD1AE074
:1049700094F85100012803D1204600F009FD12E00F
:1049800094F85100022801D1012000E0002050B924
:1049900000BF502080F31188BFF34F8FBFF36F8F9C
:1049A00000BF00BFFEE710BD30B54FF4705317488D
:1049B00000F007042CB1C01D20F00700134C041BAD
:1049C0001B1B0246124C22600024114D6C60D01853
:1049D000083820F007000F4C206000240D4D2D6892
:1049E0006C600C4D2D682C601146441A4C60094CCB
:1049F00024680C60084D4C682C60084D4C682C6095
:104A00004FF00044064D2C6030BD0000CC05002066
:104A10005C000020640000206C0000206800002082
:104A20007000002000BFFFF773FF064800680128F0
:104A3000F9D94FF0805004490860BFF34F8FBFF39E
:104A40006F8FF0E7DC04002004ED00E02DE9FF5F4C
:104A500081460F469246DDE90E6B109CAAF10100DB
:104A6000216B01EB800828F0070808F0070008B95F
:104A7000012000E0002050B900BF502080F31188D1
:104A8000BFF34F8FBFF36F8F00BF00BFFEE700255E
:104A900007E0795D04F134004155785D00B902E02A
:104AA0006D1C102DF5D300BF002143200155072EAA
:104AB00000D30626E66266640020A064201D00F094
:104AC000F6FB04F1180000F0F2FB2461C6F10700C8
:104AD000A06164620020E06484F8500049464046CA
:104AE000039A00F049F92060BBF1000F01D0CBF828
:104AF0000040BDE8FF9F000010B5002407E004EB74
:104B000084010F4A02EB810000F0C4FB641C072CF7
:104B1000F5D30C4800F0BEFB0B4800F0BBFB0B4884
:104B200000F0B8FB0A4800F0B5FB0A4800F0B2FB01
:104B300004480949086004480849086010BD00009D
:104B4000DC040020680500207C0500209005002082
:104B5000A4050020B8050020240000202800002023
:104B600010B50146164800E0006803688B42FBD38D
:104B70000246436813448B4204D143684C68234483
:104B8000436001460A464B6813440468A34211D1AE
:104B90000C4C03682468A34208D04B68046864681E
:104BA00023444B6003681B680B6005E0054B1B68E2
:104BB0000B6001E003680B60884200D0016010BD0B
:104BC0005C000020640000200A490968096809B9EE
:104BD000012100E0002121B14FF0FF31064A1160B0
:104BE00006E004490968C968C868034A4168116059
:104BF0007047000024000020500000200E4800688C
:104C0000401C08B9012000E0002050B900BF50202E
:104C100080F31188BFF34F8FBFF36F8F00BF00BFCA
:104C2000FEE700BF502080F31188BFF34F8FBFF322
:104C30006F8F00BF00BFFEE7740000202DE9F04138
:104C400004464FF0000800F087FC4648006808B9A9
:104C5000FFF7AAFE44480068204000286BD1D4B179
:104C6000083404F00700B0B104F00700C0F10800F8
:104C7000044404F0070008B9012000E0002050B906
:104C800000BF502080F31188BFF34F8FBFF36F8FA9
:104C900000BF00BFFEE7002C4DD0344800688442BE
:104CA00049D8334E3046056801E02E462D686868C5
:104CB000A04202D228680028F7D12A48006885421D
:104CC00039D0306800F10808286830606868001B37
:104CD000102819D92F1907F0070008B9012000E0A2
:104CE000002050B900BF502080F31188BFF34F8FD0
:104CF000BFF36F8F00BF00BFFEE76868001B7860DE
:104D00006C603846FFF72CFF184968680968081A74
:104D1000164908600846006816490968884203D2A7
:104D200012480068134908600F4968680968084319
:104D300068600020286000F03BFE08F0070008B91A
:104D4000012000E0002050B900BF502080F31188FE
:104D5000BFF34F8FBFF36F8F00BF00BFFEE740462A
:104D6000BDE8F08164000020700000206800002091
:104D70005C0000206C000020001F4FF08073036077
:104D8000001F21F001030360001F034B0360143870
:104D90000260203870470000FD4B000800200149E8
:104DA00008607047242C01400020014908607047CA
:104DB0002404004000210748A0F8C213A0F8C4133F
:104DC000A0F8BE13A0F8C01380F8B21380F8B31394
:104DD00070470000D041002001B51423012269462C
:104DE0000148FDF755FF08BDF8010020012815D145
:104DF000164991F8B01341B9144991F8AC13491C04
:104E0000CAB2124981F8AC231FE0104991F8AC13E3
:104E1000491ECAB20D4981F8AC2316E0022814D10C
:104E20000A4991F8B11341B9084991F8AD13491CE9
:104E3000CAB2064981F8AD2307E0044991F8AD13E1
:104E4000491ECAB2014981F8AD237047D041002004
:104E500000202C4981F87C0300212A4880F87E1329
:104E600080F87D13002003E0002227490A54401CEB
:104E70001428F9DB0021234880F8931380F8A81345
:104E800080F8A91380F8AA1380F8AB13642180F886
:104E9000AC1380F8AD1380F8AE1380F8AF13002187
:104EA00080F8B01380F8B113002004E00022164906
:104EB00015310A54401C1428F8DB012009E012497E
:104EC0003531085400220F4981F8B22381F8B32309
:104ED000401C0928F3DB00210A48A0F8BE13A0F803
:104EE000C213A0F8C013A0F8C413A0F8C613A0F80A
:104EF000C813A0F8CA13A0F8CC1380F8CE1380F81A
:104F0000CF137047D04100204F45002010B54FF41B
:104F10002F70FFF781FB0120FFF73EF84FF416706A
:104F2000FFF77AFB114890F8D203104981F8D003BB
:104F3000084690F8D11390F8D203814207DA012194
:104F40000A4880F87E13AA20FFF7C6F90DE007484B
:104F500090F8D11390F8D203814206DD0021034876
:104F600080F87E13AA20FEF761FF10BDD04100201B
:104F700010B54FF4FA70FFF74FFB00210720FEF742
:104F8000A1FE00210120FEF79DFE4FF41670FFF7F1
:104F900043FB002014490870FFF70CFF022013495F
:104FA0000870FFF7FBFE124890F8AC03801CC1B2FA
:104FB0000F4880F8AE135021012000F0F3FD0520CA
:104FC000FFF72AFB02200B490870FFF7EDFE0848A7
:104FD00090F8AD03801EC1B2054880F8AF13502190
:104FE000022000F0C3FD10BD9C00002082000020C4
:104FF000D04100208300002010B54FF4C870FFF7A7
:105000000BFB00210520FEF75DFE00210320FEF7CB
:1050100059FE4FF41670FFF7FFFA124890F8D603C6
:10502000104981F8D003084690F8D11390F8D603C0
:10503000814207DA01210B4880F87E13B420FFF784
:105040004BF90DE0074890F8D11390F8D603814250
:1050500006DD0021034880F87E13B420FEF7E6FE4B
:1050600010BD0000D041002010B54FF49670FFF73E
:10507000D3FA0220FEF790FF4FF41670FFF7CCFA38
:10508000114890F8D703104981F8D003084690F8EA
:10509000D11390F8D703814207DA01210A4880F83A
:1050A0007E13B420FFF718F90DE0074890F8D113EC
:1050B00090F8D703814206DD0021034880F87E1373
:1050C000B420FEF7B3FE10BDD041002010B5002083
:1050D0002B490870FFF76EFE01202A490870FFF780
:1050E0005DFE2948B0F8C613A0F8CA1390F8AC03C7
:1050F000401CC1B2244880F8AE135A21012000F0B0
:1051000051FD0520FFF788FA012020490870FFF7BC
:105110004BFE1D48B0F8C813A0F8CC1390F8AD03AF
:10512000401EC1B2184880F8AF135A21022000F087
:105130001DFDC820FFF770FA134890F8D6031249F6
:1051400081F8D003084690F8D11390F8D603814235
:1051500007DA01210C4880F87E13B420FFF7BCF871
:105160000DE0094890F8D11390F8D603814206DD8E
:105170000021054880F87E13B420FEF757FE10BDCD
:105180009C00002082000020D041002083000020ED
:1051900010B50120FEF700FF4FF41670FFF73CFA40
:1051A000134890F8D403124981F8D003084690F8C8
:1051B000D11390F8D403814207DA01210C4880F81A
:1051C0007E13B420FFF788F80DE0094890F8D1135A
:1051D00090F8D403814206DD0021054880F87E1353
:1051E000B420FEF723FE4FF42F70FFF715FA10BD21
:1051F000D04100202D21154880F8D81300201349F4
:1052000081F8D0030021114880F8D1130A2180F8D9
:10521000D513262180F8D213112180F8D413072149
:1052200080F8D313242180F8D713022180F8D613F5
:10523000002008E0002206490A543C310A5428396B
:105240000A540A54401C1428F4DB7047D041002053
:10525000A945002001460A69D1E901309860D1E9E9
:10526000010358605068884201D18868506000206E
:1052700008611068401E106010687047034B03609F
:10528000034B0B60802313607047000088020020EE
:10529000DC02002000F1080141604FF0FF31816025
:1052A00000F10801C1600161002101607047002127
:1052B0000161704710B502460B685C1C0CB910699F
:1052C00007E002F1080000E04068446824689C425E
:1052D000FAD944684C604C68A160886041600A61FA
:1052E0001468641C146010BD42684A6093688B6047
:1052F000936859609160086103685B1C03607047A4
:1053000000BF502080F31188BFF34F8FBFF36F8F22
:1053100000BF0E480068401C0C4908600846006841
:10532000012812D10A480068C0B208B9012000E083
:10533000002050B900BF502080F31188BFF34F8F79
:10534000BFF36F8F00BF00BFFEE7704774000020FF
:1053500004ED00E00D48006850B900BF502080F314
:105360001188BFF34F8FBFF36F8F00BF00BFFEE701
:1053700006480068401E054908600846006820B9D4
:10538000002080F3118800BF00BF70477400002028
:1053900070B506463546002E3FD0083D2C461F49C5
:1053A00060680968084008B1012000E0002050B999
:1053B00000BF502080F31188BFF34F8FBFF36F8F72
:1053C00000BF00BFFEE7206808B9012000E0002010
:1053D00050B900BF502080F31188BFF34F8FBFF347
:1053E0006F8F00BF00BFFEE70C4960680968084086
:1053F00098B1206888B90949606809688843606085
:1054000000F0AAF806496068096808440449086081
:105410002046FFF7A5FB00F0CBFA70BD700000201E
:105420006800002000204FF0E021086188610648F4
:1054300000684FF47A71B0FBF1F0401E4FF0E021AC
:1054400048610720086170471C00002070B50446C1
:105450000025D4B11248006808B9012000E00020FE
:1054600050B900BF502080F31188BFF34F8FBFF3B6
:105470006F8F00BF00BFFEE700F06EF800212046EE
:10548000FFF7A0F900F094FA05463DB94FF08050BF
:1054900004490860BFF34F8FBFF36F8F70BD0000EA
:1054A0005800002004ED00E010B586B00020059003
:1054B000049003AA04A905A8FFF7E0FE0022DDE995
:1054C00004101346CDE9002102901CA11D48039A47
:1054D00000F058F91C4908600846006808B101242A
:1054E00000E00024012C15D100BF502080F311886A
:1054F000BFF34F8FBFF36F8F00BF4FF0FF301349E3
:10550000086001201249086000201249086000F07C
:1055100071F810E0601C08B1012000E0002050B9D3
:1055200000BF502080F31188BFF34F8FBFF36F8F00
:1055300000BF00BFFEE706B010BD000049444C4567
:1055400000000000254A0008540000205000002000
:105550003C0000203400002002480068401C014943
:1055600008607047580000201D48006818B10120ED
:105570001C49086032E000201A4908601A48006897
:10558000B0FA80F0C0F11F0101EB8100174A52F818
:10559000200008B1012000E0002050B900BF5020D9
:1055A00080F31188BFF34F8FBFF36F8F00BF00BF31
:1055B000FEE701EB81020D4B03EB8200426852686B
:1055C000426000F108024368934202D14268526887
:1055D00042604268D268064B1A6000BF7047000004
:1055E000580000204400002038000020DC04002087
:1055F000200000201CB53849084600780190FF20A3
:105600000A4610700846007800909DF8000000F0EF
:10561000F0009DF80020904201D1012000E0002020
:1056200050B900BF502080F31188BFF34F8FBFF3F4
:105630006F8F00BF00BFFEE79DF8000000F0500034
:10564000264A10700720264A106009E024480068A6
:10565000401E234A10609DF800004006000E009096
:105660009DF8000000F080008028EFD01C48006802
:10567000C0F10700042801D1012000E0002050B94A
:1056800000BF502080F31188BFF34F8FBFF36F8F9F
:1056900000BF00BFFEE7124800680002104A106019
:1056A0001046008800F4E06010600B4A019810700A
:1056B0000C48006840F470000A4908600846006819
:1056C00040F070400860FFF7ADFE0020064908601A
:1056D000FAF76CFD00201CBD00E400E0780000201B
:1056E0007C00002020ED00E07400002010B500BF19
:1056F000502080F31188BFF34F8FBFF36F8F00BF2F
:1057000000F0B2F818B14FF080500449086000BFB3
:10571000002080F3118800BF10BD000004ED00E000
:105720002DE9FF4F85B0804689461746DDE912AB6B
:10573000B800FFF783FA064656B15420FFF77EFA09
:1057400004460CB1266304E03046FFF721FE00E07A
:1057500000248CB1002084F85100CDE900ABCDE9E4
:1057600002403A4649464046089BFFF76FF92046FB
:10577000FFF774F8012501E04FF0FF35284609B026
:10578000BDE8F08F2DE9F04F85B007468846914679
:105790009A46DDE90EB6109C0EB1012000E0002013
:1057A00050B900BF502080F31188BFF34F8FBFF373
:1057B0006F8F00BF00BFFEE70CB1012000E00020AA
:1057C00050B900BF502080F31188BFF34F8FBFF353
:1057D0006F8F00BF00BFFEE754200390039854284A
:1057E00001D1012000E0002050B900BF502080F31B
:1057F0001188BFF34F8FBFF36F8F00BF00BFFEE76D
:10580000B4B1AEB125462C462E63022085F8510076
:10581000002004A953464A46CDE900B1CDE9025023
:1058200041463846FFF712F92846FFF717F801E01E
:1058300000200490049805B0BDE8F08F0549096880
:1058400009B9012005E00449096809B9022000E00E
:10585000002070473C0000205800002001490868E3
:1058600070470000340000202DE9F0414FF000089F
:1058700044480068002877D143480068451C4248E6
:10588000056015BB41480068006808B9012000E0C8
:10589000002050B900BF502080F31188BFF34F8F14
:1058A000BFF36F8F00BF00BFFEE738480768384876
:1058B0000068364908603648076036480068401C72
:1058C00034490860FFF780F900BF3348006885421B
:1058D0003CD300BF2D480068006808B9012000E0F3
:1058E000002020B14FF0FF302B4908602DE0274801
:1058F0000068C068C4686668B54202D2264806607F
:1059000023E0201DFFF7A6FCA06A18B104F11800DF
:10591000FFF7A0FC94F82C10012088401F4909686B
:1059200008431E490860E16A01EB81011C4A02EB51
:105930008100211DFFF7D8FC1A49E06A0968C96A8D
:105940008842C7D34FF00108C4E700BF154800687C
:10595000C06A00EB8000124951F82000012801D9EB
:105960004FF0010805E0FFE70F480068401C0E49B2
:1059700008600E48006808B14FF001084046BDE8D5
:10598000F081000058000020340000202400002096
:10599000280000204800002050000020380000208F
:1059A000DC040020200000204000002044000020F3
:1059B00070B5002400263648006850B900BF50205A
:1059C00080F31188BFF34F8FBFF36F8F00BF00BF0D
:1059D000FEE7FFF795FC2E480068401E2C49086042
:1059E0000846006800284FD12A48006800284BD09C
:1059F00024E02948C068C46804F11800FFF72AFCB5
:105A0000201DFFF727FC94F82C1001208840234923
:105A10000968084321490860E16A01EB8101204AD5
:105A200002EB8100211DFFF75FFC1E49E06A096857
:105A3000C96A884202D301201B49086016480068E1
:105A400008B9012000E000200028D2D00CB1FFF7F7
:105A5000BBF81648056865B100BFFFF705FF10B138
:105A60000120114908606D1E002DF6D100200F495C
:105A700008600D48006838B1012630070C490860FD
:105A8000BFF34F8FBFF36F8FFFF764FC304670BDDD
:105A90005800002030000020900500203800002031
:105AA000DC040020200000204400002040000020F2
:105AB00004ED00E070B504460D46012C24D12A48BF
:105AC000B0F8CA03401C2849B1F8C61388420DDA61
:105AD000254890F8B00320B92946012000F062F86B
