:020000040800F2
:10000000F84B002021020008392B0008992800082D
:10001000352B00088B030008A941000800000000F0
:10002000000000000000000000000000890100083E
:100030008F03000800000000CD010008413D0008CA
:100040003B0200083B0200083B0200083B0200089C
:100050003B0200083B0200083B0200083B0200088C
:100060003B0200089D030008A70300083B020008AC
:100070003B0200083B0200083B0200083B0200086C
:100080003B0200083B0200083B0200083B0200085C
:100090003B0200083B0200083B020008B1030008D5
:1000A0003B0200083B0200083B0200083B0200083C
:1000B0003B0200083B0200083B0200083B0200082C
:1000C0003B0200083B0200083B0200083B0200081C
:1000D0003B020008894100083B02000899410008E2
:1000E000910300083B0200083B02000800F002F800
:1000F00000F03AF80AA090E8000C82448344AAF188
:100100000107DA4501D100F02FF8AFF2090EBAE885
:100110000F0013F0010F18BFFB1A43F0010318473B
:10012000506A0000706A0000103A24BF78C878C195
:10013000FAD8520724BF30C830C144BF04680C60ED
:10014000704700000023002400250026103A28BF35
:1001500078C1FBD8520728BF30C148BF0B60704739
:100160001FB51FBD10B510BD00F0D6F81146FFF742
:10017000F7FF04F0C9FD00F0F4F803B4FFF7F2FF55
:1001800003BC00F0FBF80000224B19680868B0E8D7
:10019000F00F80F30988BFF36F8F4FF0000080F3FA
:1001A00011884EF00D0E70470000000006480068F0
:1001B000006880F3088862B661B6BFF34F8FBFF363
:1001C0006F8F00DF00BF00BF08ED00E0EFF3098094
:1001D000BFF36F8F0F4B1A6820E9F00F106008B55E
:1001E0004FF0500080F31188BFF34F8FBFF36F8F34
:1001F00005F0A8FF4FF0000080F31188BDE808402B
:1002000019680868B0E8F00F80F30988BFF36F8FB2
:10021000704700BF28000020EFF305807047000002
:100220000948804709480047FEE7FEE7FEE7FEE78A
:10023000FEE7FEE7FEE7FEE7FEE7FEE704480549C6
:10024000054A064B70470000BB3D0008ED00000862
:10025000F8450020F84B0020F8470020F847002020
:1002600010B5203AC0F00B80B1E81850203AA0E851
:100270001850B1E81850A0E81850BFF4F5AF5FEA85
:10028000027C24BFB1E81850A0E8185044BF18C938
:1002900018C0BDE810405FEA827C24BF51F8043BDF
:1002A00040F8043B08BF7047D20728BF31F8023B33
:1002B00048BF11F8012B28BF20F8023B48BF00F8C7
:1002C000012B70474FF0000200B513469446964646
:1002D000203922BFA0E80C50A0E80C50B1F1200159
:1002E000BFF4F7AF090728BFA0E80C5048BF0CC007
:1002F0005DF804EB890028BF40F8042B08BF704765
:1003000048BF20F8022B11F0804F18BF00F8012BD6
:100310007047704770477047754600F02BF8AE463F
:1003200005006946534620F00700854618B020B501
:10033000FFF784FFBDE820404FF000064FF00007B4
:100340004FF000084FF0000B21F00701AC46ACE87D
:10035000C009ACE8C009ACE8C009ACE8C0098D46EA
:10036000704710B50446AFF300802046BDE810404A
:10037000FFF703BF00487047984500200149182047
:10038000ABBEFEE726000200704700BFFEE77047E5
:1003900010B54FF4004000F05BFF10BD10B5082011
:1003A00000F056FF10BD10B5102000F051FF10BD39
:1003B00010B5202000F04CFF10BD72B600BFFEE764
:1003C0000020094981F86803A1F86A0381F86C03E9
:1003D00081F86D0381F86E0381F86F03A1F866045C
:1003E000A1F8680470470000284100200120064958
:1003F00081F818030121044880F8191380F81A13B2
:1004000080F81B13704700002841002010B51C48DD
:1004100090F8350308B31B480078C8B9002412E0EF
:1004200001225102184801F0B9F8C82004F0FCFE7E
:1004300000224FF40071144801F0B0F8C82004F015
:10044000F3FE601CC4B2022CEADB01200D490870E7
:1004500000210B4880F8351311E005F0EDFF084945
:10046000D1F83813401AB0F57A7F08D30122074932
:100470000748006802F09AF800200249087010BD91
:100480002841002098000020000C01404C4400202E
:100490009400002010B504460D48046024210D4846
:1004A000FFF710FFFF210C4880F8441380F8401339
:1004B00080F8411380F8421380F83E1380F83F1310
:1004C000012204490248006802F070F810BD0000E3
:1004D000940000204C4400202841002010B500F07A
:1004E0000FF8FFF76DFFFFF781FF01220249034874
:1004F00002F05CF810BD0000284100200801002037
:1005000000204549086017E000204449424A12682B
:100510008854002141489C303F4A126881549C30E5
:100520003D4A12688154DC303B4A126881543A4893
:100530000068401C38490860374800684028E3DB01
:1005400000203549086026E0002134488030324AD6
:1005500012688154001D304A1268815498302E4A26
:1005600012688154001D2C4A1268815498302A4A1E
:1005700012688154001D284A126881549830264A16
:1005800012688154001D244A126881542248006870
:10059000401C21490860204800680428D4DB002062
:1005A0001E49A1F8880000211C48A0F82411A0F8D9
:1005B000C011A0F85C1200201849A1F88A0000219F
:1005C0001648A0F82611A0F8C211A0F85E1200206B
:1005D0001249A1F8900000211048A0F82C11A0F8B1
:1005E000C811A0F8641200200C49A1F89200002163
:1005F0000A48A0F82E11A0F8CA11A0F8661200202F
:100600000649A1F8940000210448A0F83011A0F890
:10061000CC11A0F8681270478C00002028410020FF
:100620000146002291F82100022808D004208863A6
:1006300000BF002081F8200000BF0120704708683B
:10064000006820F00E000B6818600868006820F051
:1006500001000B68186091F8403001209840CB6B86
:100660005860012081F8210000BF002081F820009F
:1006700000BF1046E2E7000070B50446002594F87C
:100680002100022803D00420A063012548E020684F
:10069000006820F00E00216808602068006820F0E3
:1006A0000100216808601F492068884201D10120AB
:1006B00026E01C4914312068884201D110201FE037
:1006C000184928312068884201D1801518E0154961
:1006D0003C312068884201D1801411E01149503129
:1006E0002068884202D14FF4803009E00D4964311E
:1006F0002068884202D14FF4801001E04FF08070F2
:10070000084908394860012084F8210000BF002012
:1007100084F8200000BF606B10B12046616B8847F1
:10072000284670BD0800024010B50446082C76D15A
:10073000FE4890F89303002872D1FC4890F87C039F
:1007400001287DD1FA4803F04DFD30B94FF47A709D
:1007500003F0EAFF0820F7490860F44890F87E03A8
:1007600040B9F248B0F8D603401E01B2EF48A0F8F5
:10077000D61307E0ED48B0F8D603401C01B2EB48B1
:10078000A0F8D61305F062F9E848B0F9D6030228BC
:1007900009DAE648B0F87A03502804DD5021E3482E
:1007A000A0F87A13A7E1E148B0F9D603042809DAE2
:1007B000DE48B0F87A035A2804DD5A21DB48A0F855
:1007C0007A1398E1D948B0F9D603062809DAD74850
:1007D000B0F87A03872804DD8721D448A0F87A137B
:1007E00089E1D248B0F9D603082809DACF48B0F831
:1007F0007A03B42804DDB421CC48A0F87A137AE156
:10080000CA48B0F9D6030A280BDAC848B0F87A0308
:10081000E62806DDE621C548A0F87A136BE171E110
:100820000EE0C248B0F9D6033C28BBDABF48B0F8A6
:100830007A03FA28B6DBFA21BC48A0F87A135AE109
:10084000BA4890F893030028ACD0B94803F0CAFC2A
:1008500030B94FF47A7003F067FF0820B54908609B
:10086000B24890F87E0340B9B048B0F8D603401EB5
:1008700001B2AE48A0F8D61307E0AC48B0F8D603F2
:10088000401C01B2A948A0F8D61305F0DFF8A7482C
:1008900090F87C0302280FD1A44890F8DD13B0F93A
:1008A000D60381428DD1032004F03AF904F08CF98B
:1008B0000120A14908701EE19C4890F87C030128A2
:1008C0008ED19A4890F8E203012814D19748B0F9E4
:1008D000D61390F8DC03083081420CDB934890F883
:1008E000E40340B9914890F87E03012803D1012127
:1008F0008E4880F8E4138D4890F8E203012813D164
:100900008A48B0F9D61390F8DF03801E81420BDBD2
:10091000864890F8E403012806D1844890F87E03C5
:10092000012801D105F0E2F8804890F8E20304289C
:1009300015D17E48B0F9D61390F8DF03001F81422D
:100940000DDB7A4890F8E803012808D1774890F841
:100950007E03012803D10221744880F8E81373480C
:1009600090F8E203042814D17048B0F9D61390F837
:10097000DC03083081420CDB6C4890F8E80340B996
:100980006A4890F87E03012803D10121674880F866
:10099000E813664890F8D413B0F9D60381420BD11E
:1009A000032004F0BDF8614890F8E203012804D167
:1009B00001215E4880F821149DE05C4890F8E20334
:1009C000042804D10121594880F8241493E05748A1
:1009D00090F8E203062804D10121544880F8261437
:1009E00089E0524890F8E203072809D14F4890F86F
:1009F0003C04042804D101214C4880F827147AE0F3
:100A00004A4890F8E203082809D1484890F83D0484
:100A1000042804D10121454880F828146BE043489C
:100A200090F8E203092809D1404890F83E040428D0
:100A300004D101213D4880F829145CE03B4890F83E
:100A4000E2030B280DD1394890F88A03012808D118
:100A50003A480078012804D10121344880F82B1449
:100A600049E0324890F8E2030B2809D12F4890F86A
:100A70008A03022804D102212C4880F82B143AE082
:100A80002A4890F8E2030B2809D1284890F88A03F5
:100A9000032804D10321254880F82B142BE0234898
:100AA00090F8E2030B2809D1204890F88A03042823
:100AB00004D104211D4880F82B141CE01B4890F839
:100AC000E2030B2809D1194890F88A03052804D1BC
:100AD0000521164880F82B140DE0144890F8E20325
:100AE0000C2808D1114890F84104042803D10421AE
:100AF0000E4880F82C144FF47A7003F015FE08208D
:100B00000C490860102C71D1084890F87C0301282A
:100B10006DD1064890F8B303012826D1022103487D
:100B200080F8B313B0F8C403401E09E02841002048
:100B30001283403D1404014088000020A5000020DD
:100B400081B2F748A0F8C013022003F0E9FFF4498E
:100B500091F87403012104F01DFC41F2883003F088
:100B6000E3FD1020EF49086010BDED4890F8B30395
:100B7000002876D1EC480078012810D1E848D0F858
:100B8000D003B4280BD1E94803F05AFB98B941F2DD
:100B9000883003F0C9FD1020E2490860E4E7E4482A
:100BA00003F04EFB38B941F2883003F0BDFD102050
:100BB000DC490860D8E7DC48007840B1022004F046
:100BC0009FFFD9480078401ED749087000BFD4481D
:100BD00090F8AD1390F8AF03814209D041F288300C
:100BE00003F0A2FD1020CF490860BDE7FAE0A2E0C3
:100BF00042F2107003F098FD022003F091FFC84903
:100C000091F87403012104F0C5FBC54890F8E20394
:100C1000012809D1C24890F88003022804D101219B
:100C2000BF4880F80D1467E0BD4890F8E203022841
:100C300008D1BB4890F8810320B10121B84880F861
:100C40000E1459E0B64890F8E20304280AD1B448DB
:100C500090F88303022805D10121B14880F81014CF
:100C60004AE060E0AE4890F8E203072809D1AC48BA
:100C700090F88603022804D10121A94880F81314B2
:100C80003AE0A74890F8E203082809D1A44890F870
:100C90008703022804D10121A14880F814142BE015
:100CA0009F4890F8E203092809D19D4890F88803ED
:100CB000022804D101219A4880F815141CE09848B4
:100CC00090F8E2030B2809D1954890F88A0303288D
:100CD00004D10121924880F817140DE0904890F853
:100CE000E2030C2808D18E4890F88B03022803D128
:100CF00001218B4880F81814894890F8340458284A
:100D00000DD1874890F8E2030B2808D1844890F869
:100D10008A03052803D10221814880F81714102086
:100D20008049086020E741F2883003F0FDFC102084
:100D30007C49086018E77A4890F87C03022810D1B3
:100D4000774991F87403012104F024FB022003F099
:100D5000E7FE41F2883003F0E7FC1020714908609B
:100D600002E76F4890F87C0398BB6D4890F87D03CC
:100D700038B941F2883003F0D7FC10206949086087
:100D800026E0674890F87D03012821D1644991F855
:100D90007403012104F0FEFA022003F0C1FE604852
:100DA00090F86004012803D100215D4880F86014A8
:100DB0005B4890F86104012803D10021584880F86D
:100DC000611441F2883003F0AFFC102055490860EF
:100DD000CAE6FFE741F2883003F0A6FC1020514933
:100DE0000860C1E6202C7BD14D4890F87C03012897
:100DF00077D14B4890F8B203012814D1022148481A
:100E000080F8B213012003F08BFE454991F870037E
:100E1000012104F0AFFA41F2883003F085FC202074
:100E200040490860A0E63E4890F8B203002876D119
:100E300040480078012810D13948D0F8CC03B428B4
:100E40000BD13A4803F0E4F998B941F2883003F045
:100E50006BFC20203349086086E6354803F0D8F95A
:100E600038B941F2883003F05FFC20202D4908603A
:100E70007AE63048007840B1012004F041FE2D4868
:100E80000078401E2B49087000BF254890F8AC132D
:100E900090F8AE03814207D041F2883003F044FC61
:100EA0002020204908605FE64FF4FA5003F03CFC34
:100EB000012003F035FE1A4991F87003012104F076
:100EC00059FA174890F8E20301280BD1144890F81A
:100ED0008003022806D10121114880F8F91375E03A
:100EE000E2E092E00E4890F8E203022808D10C48B4
:100EF00090F8810320B10121094880F8FA1365E0D8
:100F0000074890F8E203042816D1054890F88303B7
:100F1000022811D10121024880F8FC1356E06CE050
:100F200028410020140401408A000020D7A3F03E8D
:100F3000E17A943E89000020C14890F8E203072836
:100F400009D1BF4890F88603022804D10121BC488A
:100F500080F8FF133AE0BA4890F8E203082809D174
:100F6000B74890F88703022804D10121B44880F8DB
:100F700000142BE0B24890F8E203092809D1B048E8
:100F800090F88803022804D10121AD4880F80114AB
:100F90001CE0AB4890F8E2030B2809D1A84890F870
:100FA0008A03032804D10121A54880F803140DE029
:100FB000A34890F8E2030C2808D1A14890F88B03CD
:100FC000022803D101219E4880F804149C4890F81F
:100FD000340444280DD19A4890F8E2030B2808D134
:100FE000974890F88A03052803D10221944880F895
:100FF0000314202093490860B6E541F2883003F0DD
:1010000093FB20208F490860AEE58D4890F87C0363
:10101000022810D18A4991F87003012104F0AAF93D
:10102000012003F07DFD41F2883003F07DFB20209C
:101030008449086098E5824890F87C0360BB80484A
:1010400090F87D0338B941F2883003F06DFB202021
:101050007C4908601FE07A4890F87D0301281AD186
:1010600003F05EFD764890F85E04012803D100216C
:10107000734880F85E14724890F85F04012803D129
:1010800000216F4880F85F1441F2883003F04CFB78
:1010900020206C49086067E541F2883003F044FB8A
:1010A0002020684908605FE5B4F5004F72D1002147
:1010B0006348A0F8D61390F8930318B9012160484B
:1010C00080F893135E4991F87803012104F072F9D6
:1010D000032003F025FD5A4890F87C0302280DD127
:1010E0005948007850B9564890F8AB0398BB03F0C4
:1010F00041FD0121524880F8AB1396E0504890F82A
:101100007C0302280CD150480078012808D14F48B0
:1011100000784B4981F87C0300204B49087084E03B
:10112000474890F87C0301287FD1454890F8E203B6
:10113000032804D0424890F8E20304280CD1404828
:1011400090F87E0340B93E4890F8230418B9012175
:101150003B4880F8231468E0394890F8E2030528FA
:1011600009D1374890F88403022804D1012134487A
:1011700080F8251459E0324890F8E20307280AD194
:101180002F4890F83C04012805D102212C4880F812
:101190003C144AE051E02A4890F8E203082809D1BB
:1011A000274890F83D04012804D10221244880F802
:1011B0003D143AE0224890F8E203092809D120487A
:1011C00090F83E04012804D102211D4880F83E1405
:1011D0002BE01B4890F8E2030A2809D1184890F840
:1011E0003F04012804D10221154880F83F141CE077
:1011F000134890F8E2030C2809D1114890F84104F3
:10120000012804D102210E4880F841140DE00C4859
:1012100090F8E2030D2808D1094890F8420401280B
:1012200003D10221064880F8421441F2883003F0CD
:101230007BFA4FF400400349086000BF94E40000CB
:10124000284100201404014088000020AB00002049
:1012500010B5044604480068204020B102480460EC
:101260002046FFF761FA10BD140401402DE9F8474C
:101270000346002294466EE14FF0010808FA02F49A
:10128000D1F8008008EA0400A0427DD1DFF8DCA29A
:10129000D1F80480A8EB0A09D0453AD014DCB8F1A3
:1012A000030F50D009DCB8F1000F31D0B8F1010FB5
:1012B0001CD0B8F1020F49D120E0B8F1110F18D0BD
:1012C000B8F1120F42D11EE0B9F5881F25D006DC17
:1012D000B9F5803F20D0B9F5801F37D11AE0B9F5B4
:1012E000001F18D0B9F5041F30D117E0D1F80CC099
:1012F0002DE0D1F80C8008F1040C28E0D1F80C8026
:1013000008F1080C23E0D1F80C8008F10C0C1EE069
:1013100000BF00BF00BF00BF00BF00BFD1F8088002
:10132000B8F1000F02D14FF0040C0BE0D1F80880A7
:10133000B8F1010F03D14FF0080C1C6102E04FF02F
:10134000080C5C6103E04FF0000C00E000BF00BF40
:10135000FF2801D8984601E003F104084646FF281B
:1013600002D84FEA820803E0A2F108084FEA880891
:101370004746D6F800804FF00F0909FA07F928EA26
:1013800009080CFA07F900E088E048EA0908C6F8FD
:101390000080D1F8048008F08058B8F1805F7DD1DA
:1013A00000BFDFF8CC81D8F8188048F00108DFF8DA
:1013B000C091C9F81880C846D8F8188008F001080C
:1013C000CDF8008000BF00BF4FEAB9384FEA92095C
:1013D00058F829504FEA82784FEA18794FF00F08F1
:1013E00008FA09F825EA0805DFF88881434502D1A3
:1013F0004FF0000816E0DFF88081434502D14FF03E
:1014000001080FE0DFF87481434502D14FF0020874
:1014100008E0DFF86C81434502D14FF0030801E09A
:101420004FF004084FEA82794FEA197908FA09F86F
:1014300048EA0505DFF84C814FEA920948F829503F
:10144000D1F8048008F48018B8F5801F0AD1DFF8BD
:101450003881D8F8008048EA0008DFF82C91C9F8F4
:10146000008009E0DFF82081D8F8008028EA000831
:10147000DFF81491C9F80080D1F8048008F400184E
:10148000B8F5001F10D1DFF8008108F10408D8F882
:10149000008048EA0008DFF8F09000E05AE009F127
:1014A0000409C9F800800DE0DFF8DC8008F10408C9
:1014B000D8F8008028EA0008DFF8CC9009F1040988
:1014C000C9F80080D1F8048008F40038B8F5003F6E
:1014D0000ED1DFF8B480A8F10408D8F8008048EAFB
:1014E0000008DFF8A490A9F10409C9F800800DE014
:1014F000DFF89480A8F10408D8F8008028EA0008F2
:10150000DFF88490A9F10409C9F80080D1F80480BB
:1015100008F48038B8F5803F0ED1DFF86C80A8F170
:101520000808D8F8008048EA0008DFF85C90A9F1C4
:101530000809C9F800800DE0DFF84C80A8F1080820
:10154000D8F8008028EA0008DFF83C90A9F10809E3
:10155000C9F80080521CD1F8008028FA02F8B8F1CE
:10156000000F7FF489AEBDE8F8870000000011107D
:101570000010024000080140000C01400010014032
:10158000001401400800014008040140024693682D
:101590000B400BB1012000E0002070470AB101614F
:1015A00001E00B04036170470148006870470000C8
:1015B0001800002070B504460CB9012070BD94F8E5
:1015C0003D0028B9002084F83C00204600F0DAF8FD
:1015D000242084F83D002068006820F00100216884
:1015E00008602068006840F40040216808602068B6
:1015F000006820F400402168086000F0C3FA054646
:101600005C496068884206D85B48854201D2012067
:1016100007E0002005E05948854201D2012000E0A2
:101620000020012800D1C9E75548B5FBF0F6206835
:10163000406820F03F003043216848604D496068B1
:10164000884201D8701C07E04FF4967070434FF445
:101650007A71B0FBF1F0401C2168096A21F03F016A
:1016600008432168086243496068884214D8681EAC
:1016700061684900B0FBF1F0401CC0F30B00042886
:1016800001D204203DE0681E61684900B0FBF1F022
:10169000401CC0F30B0034E0A06838B9681E6168D4
:1016A00001EB4101B0FBF1F0401C0AE0681E6168EB
:1016B00001EBC10202EB0111B0FBF1F0401C40F460
:1016C0008040C0F30B0008B901201AE0A06848B9B7
:1016D000681E616801EB4101B0FBF1F0401CC0F3F2
:1016E0000B000CE0681E616801EBC10202EB011106
:1016F000B0FBF1F0401CC0F30B0040F4804040F41C
:1017000000402168C9694CF6FF7291430843216883
:10171000C861D4E9070108432168096821F0C001C4
:10172000084321680860D4E90310084321688968E8
:1017300048F2FF329143084321688860D4E90501EB
:1017400008432168C96821F0FF0108432168C86087
:101750002068006840F001002168086000202064D3
:10176000202084F83D000020206384F83E0000BF64
:1017700024E70000A086010080841E0000093D00CF
:1017800040420F0010B586B004460020029003903E
:101790000490059015492068884225D100BF14485F
:1017A000806940F00800124988610846806900F0AD
:1017B0000800019000BF00BFC020029012200390DB
:1017C0000320059002A90B48FFF750FD00BF084811
:1017D000C06940F400100649C8610846C06900F4B9
:1017E0000010019000BF00BF06B010BD00540040C3
:1017F00000100240000C01400348006803490978CA
:1018000008440149086070471800002020000020AB
:1018100010B50848006840F0100006490860032031
:1018200000F0AEF80F2000F007F800F02BF80020D1
:1018300010BD00000020024070B504460E4800783C
:101840004FF47A71B1FBF0F00C490968B1FBF0F587
:10185000284600F021FC08B1012070BD102C07D2F1
:1018600000222146501E00F04DF80548046001E0BA
:101870000120F2E70020F0E72000002024000020F3
:101880001C00002008B500BF1448806940F001002A
:10189000124988610846806900F00100009000BF8D
:1018A00000BF00BF0846C06940F08050C8610846CC
:1018B000C06900F08050009000BF00BF00220F21DF
:1018C000901E00F01FF800BF0549486820F0E06056
:1018D00040F00070486000BF08BD000000100240EA
:1018E0000000014001460846002809DB00F01F0304
:1018F00001229A4043099B0003F1E023C3F8002131
:1019000000BF70472DE9F05F80460D461646002760
:1019100002F04CFC074639462A46334601F00700E0
:10192000C0F1070ABAF1040F02D94FF0040A01E02E
:10193000C0F1070AD14600F1040ABAF1070F02D23A
:101940004FF0000A01E0A0F1030AD4464FF0010A6B
:101950000AFA09FAAAF1010A0AEA020A0AFA0CFAD0
:101960004FF0010B0BFA0CFBABF1010B0BEA030B75
:101970004AEA0B042146404602F020FCBDE8F09FF5
:1019800000BF00F00702064B19684FF6FF0319402D
:10199000044B0B4343EA0221014B196000BF70471F
:1019A0000CED00E00000FA0500BF00BF00BF00BF63
:1019B00000BFBFF34F8F00BF00BF00BF09480068E2
:1019C00000F4E06008490843001D0649086000BFB4
:1019D00000BF00BFBFF34F8F00BF00BF00BF00BFFD
:1019E00000BFFDE70CED00E00000FA0570B504460D
:1019F0000D460CB9012070BD5A48006800F0070080
:101A0000A8420ED25748006820F0070028435549E5
:101A100008600846006800F00700A84201D00120D5
:101A2000E9E7207800F0020002281DD1207800F0BC
:101A30000400042805D14C48406840F4E0604A495D
:101A40004860207800F00800082805D14648406822
:101A500040F46050444948604348406820F0F0003A
:101A6000A168084340494860207800F0010078B33D
:101A70006068012806D13C48006800F4003090B945
:101A80000120B8E76068022806D13748006800F0F6
:101A9000007040B90120AEE73348006800F0020052
:101AA00008B90120A7E73048406820F003006168CA
:101AB00008432D494860FFF777FD064609E0FFF728
:101AC00073FD801B41F28831884202D9032092E7DE
:101AD00007E02548406800F00C006168B0EB810F1A
:101AE000EDD12048006800F00700A8420ED91D483B
:101AF000006820F0070028431A490860084600687B
:101B000000F00700A84201D0012074E7207800F01F
:101B10000400042807D11448406820F4E060E1681C
:101B2000084311494860207800F00800082808D1CF
:101B30000D48406820F46050216940EAC1000A491C
:101B4000486000F03FF808494968C1F30311074AAB
:101B5000515CC8400649086006480068FFF76CFE03
:101B6000002048E700200240001002400E6B0008F1
:101B7000240000201C00002001480068704700007D
:101B80002400002000B5FFF7F7FF04494968C1F3BE
:101B90000221034A515CC84000BD00000010024011
:101BA0001E6B000800B5FFF7E7FF04494968C1F361
:101BB000C221034A515CC84000BD00000010024031
:101BC0001E6B000870B500210022002400230020B5
:101BD000134D696801F00C05F5B1042D02D0082DF4
:101BE00019D101E00F4819E00F4DC1F38346AB5DF9
:101BF00001F4803555B10A4D6D68C5F340450B4E73
:101C0000725D084D5D43B5FBF2F402E0084D03FB45
:101C100005F4204602E000BF024800BF00BF70BDCF
:101C20000010024000127A00FC6A00080C6B0008E9
:101C300000093D00F8B504460CB90120F8BD207834
:101C400000F00100002878D0F848406800F00C004F
:101C500004280CD0F548406800F00C00082811D189
:101C6000F248406800F48030B0F5803F0AD1EF4878
:101C7000006800F4003000285FD0606800285CD164
:101C80000120DBE700BF6068B0F5803F06D1E74880
:101C9000006840F48030E549086028E0606858B981
:101CA000E248006820F48030E04908600846006897
:101CB00020F4802008601AE06068B0F5A02F0BD1F6
:101CC000DA48006840F48020D84908600846006877
:101CD00040F4803008600AE0D448006820F4803086
:101CE000D24908600846006820F48020086000BFE0
:101CF000606888B1FFF758FC054606E0FFF754FC22
:101D0000401B642801D9032098E7C848006800F404
:101D100000300028F2D010E0FFF746FC054606E050
:101D2000FFF742FC401B642801D9032086E7BF4827
:101D3000006800F400300028F2D1207800F00200A2
:101D4000022857D1B948406800F00C0050B1B7489C
:101D5000406800F00C00082818D1B448406800F42E
:101D6000803098B9B148006800F0020020B12069C5
:101D7000012801D0012061E7AC48006820F0F8009C
:101D8000616940EAC100A949086033E02069E8B10F
:101D90000120A7490860FFF707FC054606E0FFF7AA
:101DA00003FC401B022801D9032047E79F48006835
:101DB00000F002000028F2D09C48006820F0F800F3
:101DC000616940EAC1009949086013E00020984920
:101DD0000860FFF7E9FB054606E0FFF7E5FB401B5F
:101DE000022801D9032029E79048006800F002008A
:101DF0000028F2D1207800F0080008282DD1A06931
:101E0000B8B101208B490860FFF7CEFB054606E01C
:101E1000FFF7CAFB401B022801D903200EE78348C5
:101E2000406A00F002000028F2D0012000F086FE97
:101E300013E000207F490860FFF7B6FB054606E087
:101E4000FFF7B2FB401B022801D90320F6E67748D2
:101E5000406A00F002000028F2D1207800F004006F
:101E6000042873D100277148C06900F0805070B910
:101E700000BF6E48C06940F080506C49C861084698
:101E8000C06900F08050009000BF00BF01276A4881
:101E9000006800F48070B0B96748006840F4807052
:101EA00065490860FFF780FB054606E0FFF77CFB0D
:101EB000401B642801D90320C0E65F48006800F495
:101EC00080700028F2D000BFE068012806D1574892
:101ED000006A40F001005549086227E0E06858B9FF
:101EE0005248006A20F00100504908620846006A22
:101EF00020F00400086219E0E06805280BD14B4887
:101F0000006A40F00400494908620846006A40F04F
:101F1000010008620AE04548006A20F001004349D8
:101F200008620846006A20F00400086200BFE0680A
:101F3000A0B1FFF739FB054609E0FFF735FB401B71
:101F400041F28831884202D9032077E622E03748FF
:101F5000006A00F002000028EFD012E0FFF724FB37
:101F6000054608E0FFF720FB401B41F2883188421C
:101F700001D9032062E62D48006A00F00200002823
:101F8000F0D1012F05D12948C06920F080502749A0
:101F9000C86100BFE069C8B32448406800F00C0085
:101FA000082860D0E069022848D10020204908664E
:101FB000FFF7FAFA054606E0FFF7F6FA401B02289B
:101FC00001D903203AE61948006800F000700028A3
:101FD000F2D1206AB0F5803F07D11448406820F460
:101FE0000030A168084311494860D4E9080108435A
:101FF0000E49496821F4741108430C4948600120D6
:102000000B490866FFF7D0FA054607E03DE0FFF709
:10201000CBFA401B022801D903200FE603480068D1
:1020200000F000700028F2D02FE000000010024005
:1020300000004242800442420070004000201449E7
:102040000866FFF7B1FA054606E0FFF7ADFA401B58
:10205000022801D90320F1E50E48006800F0007065
:102060000028F2D111E0E069012800D1E6E5094835
:10207000466806F48031206A814204D106F470116A
:10208000606A814201D00120D8E50020D6E5000039
:10209000000042420010024070B504462546681E0A
:1020A000B0F1807F01D301200FE0681E4FF0E021E6
:1020B00048610F214FF0FF3002F080F800204FF010
:1020C000E021886107200861002070BD70477047DB
:1020D0002DE9F84F0446206805682068C668206826
:1020E00047694FF00009CA4605F00F09B9F1000F22
:1020F0000AD105F0200038B106F0200020B12046BA
:1021000001F0ACFEBDE8F88FB9F1000F7BD007F00D
:10211000010018B906F49070002874D005F0010091
:1021200030B106F4807018B1606C40F0010060645A
:1021300005F0040030B107F0010018B1606C40F008
:102140000200606405F0020030B107F0010018B130
:10215000606C40F00400606405F0080048B106F0CF
:10216000200010B907F0010018B1606C40F00800C1
:102170006064606C002845D005F0200028B106F0AE
:10218000200010B1204601F069FE20684069C0F3CC
:10219000801A606C00F0080010B9BAF1000F2CD062
:1021A000204601F015FE2068406900F0400000B3B1
:1021B00000BF00BF2168143151E8001F21F040002A
:1021C0002168143141E80002002AF3D100BFE06B1E
:1021D00050B17748E16B4863E06BFEF74DFA88B188
:1021E000E06B416B88470DE02046FFF770FF09E088
:1021F00009E02046FFF76BFF04E02046FFF767FF8A
:10220000002060647EE7206B012877D105F0100084
:10221000002873D006F010000028FAD000BF00207C
:10222000009020680068009020684068009000BF1F
:1022300000BF2068406900F0400000285FD0E06BDC
:10224000006840681FFA80F8B8F1000F55D0A08DE3
:10225000404552DDA4F82E80E06B8069202843D0F1
:1022600000BF00BF21680C3151E8001F21F48070CD
:1022700021680C3141E80002002AF3D100BF00BF01
:1022800000BF2168143151E8001F21F001002168CE
:10229000143141E80002002AF3D100BF00BF00BFA3
:1022A0002168143151E8001F21F0400021681431E9
:1022B00041E80002002AF3D100BF202084F8420048
:1022C0000020206300BF00BF21680C3151E8001FCF
:1022D00021F0100021680C3141E80002002AF3D1FE
:1022E00000BFE06BFEF79CF902206063A08DE28DD9
:1022F000801A81B22046FFF7E9FE03E742E0A08D95
:10230000E18D401A1FFA80F8E08DD0B3B8F1000FCC
:1023100037D000BF00BF21680C3151E8001F21F405
:10232000907021680C3141E80002002AF3D100BF0F
:1023300000BF00BF2168143151E8001F21F00100E7
:102340002168143141E80002002AF3D100BF2020A7
:1023500084F842000020206300BF00BF21680C31D8
:1023600051E8001F21F0100021680C3141E8000203
:10237000002AF3D100BF0220606341462046FFF7E8
:10238000A5FEBFE605F0800030B106F0800018B170
:10239000204601F07FFEB5E605F0400030B106F0C2
:1023A000400018B1204601F049FDABE600BFA9E6A8
:1023B000BD3D000810B504460CB9012010BDA06950
:1023C00000B100E000BF94F8410028B9002084F873
:1023D0004000204600F02AF8242084F841002068BC
:1023E000C06820F400502168C860204601F0B4FDA8
:1023F0002068006920F490402168086120684069E5
:1024000020F02A00216848612068C06840F400502C
:102410002168C86000206064202084F8410084F8AE
:1024200042000020606300BFC8E7000010B586B01E
:1024300004460020029003900490059055492068BE
:10244000884237D100BF5448806940F480405249E7
:1024500088610846806900F48040019000BF00BF99
:1024600000BF0846806940F0040088610846806922
:1024700000F00400019000BF00BF48150290022048
:1024800003900320059002A94448FEF7EFFE4FF4A5
:102490008060029000200390049002A93F48FEF75C
:1024A000E5FE002205212520FFF72CFA2520FFF765
:1024B00019FA6DE03A49206888422ED100BF3648AB
:1024C000C06940F400303449C8610846C06900F46E
:1024D0000030019000BF00BF00BF0846806940F097
:1024E000040088610846806900F00400019000BF84
:1024F00000BF04200290022003900320059002A94F
:102500002648FEF7B3FE08200290002003900490B6
:1025100002A92248FEF7AAFE3AE022492068884232
:1025200036D100BF1C48C06940F480201A49C861F8
:102530000846C06900F48020019000BF00BF00BFC2
:102540000846806940F0080088610846806900F00C
:102550000800019000BF00BF081502900220039000
:102560000320059002A91048FEF780FE4FF400609A
:10257000029000200390049002A90B48FEF776FE1B
:10258000002205212720FFF7BDF92720FFF7AAF930
:1025900006B010BD003801400010024000080140A4
:1025A0000044004000480040000C014070B5044663
:1025B0000D46164694F8420020280BD105B10EB9FD
:1025C000012070BD0020206332462946204601F0DC
:1025D00041FDF6E70220F4E710B504467C49206887
:1025E000884201D102F060FE7A49206888427DD19C
:1025F000794890F87C03012879D1784800786128DF
:102600000CD1754890F8950340B90121724880F8C3
:10261000951380F8E213002180F880136F4800784A
:1026200062280DD16C4890F8980348B901216A4896
:1026300080F89813042180F8E213002180F88313B6
:102640006648007863280DD1634890F8990348B92B
:102650000121614880F89913052180F8E2130021D7
:1026600080F884135D48007831280DD15A4890F8DD
:102670009B0348B90121584880F89B13072180F833
:10268000E213002180F8861354480078642808D1AA
:10269000514890F89B03012803D102214E4880F84D
:1026A0009B134E48007832280DD14B4890F89C037C
:1026B00048B90121484880F89C13082180F8E213AA
:1026C000002180F8871345480078652808D14248E2
:1026D00090F89C03012803D102213F4880F89C1305
:1026E0003E480078332810D13B4801E06FE069E0B4
:1026F00090F89D0348B90121374880F89D130921BE
:1027000080F8E213002180F88813344800786628A6
:1027100008D1314890F89D03012803D102212E48A9
:1027200080F89D132D48007834280DD12A4890F860
:102730009E0348B90121284880F89E130A2180F899
:10274000E213002180F8891324480078672808D113
:10275000214890F89E03012803D102211E4880F8E9
:102760009E131E48007835280DD11B4890F8A00311
:1027700048B90121184880F8A0130C2180F8E21311
:10278000002180F88B1315480078682808D112487A
:1027900090F8A003012803D102210F4880F8A0136C
:1027A0000E48007836280DD10B4890F8A10348B99F
:1027B0000121094880F8A1130D2180F8E2130021BE
:1027C00080F88C13012205490548FFF7EFFE10BD84
:1027D000003801400048004028410020A2000020AD
:1027E000980100202DE9F84F04460E4617469946F9
:1027F0004FF0000A94F8410020284AD106B117B9D9
:102800000120BDE8F88F00206064212084F8410099
:10281000FEF7CAFE8246A784E784A068B0F5805F11
:1028200004D1206910B90025B04602E035464FF0CA
:1028300000081BE05346002280212046CDF800907E
:1028400001F058FC08B10320DBE745B9B8F80000F7
:10285000C0F308002168486008F1020803E0287806
:10286000216848606D1CE08C401EE084E08C0028EC
:10287000E0D15346002240212046CDF8009001F0DF
:1028800039FC08B10320BCE7202084F84100002077
:10289000B7E70220B5E7704700BFFEE700B585B097
:1028A0000020019002900390049000BF634880696B
:1028B00040F01000614988610846806900F010000E
:1028C000009000BF00BF00BF0846806940F02000B4
:1028D00088610846806900F02000009000BF00BFBA
:1028E00000BF0846806940F004008861084680699E
:1028F00000F00400009000BF00BF00BF08468069E0
:1029000040F0080088610846806900F008000090E7
:1029100000BF00BF00224FF460414948FEF73EFE71
:10292000002241F6F3114748FEF738FE00224FF22D
:1029300007314548FEF732FE4FF460400190012018
:102940000290002003900320049001A93C48FEF768
:102950008DFC41F6031001900120029000200390AD
:102960000320049001A93748FEF780FCF020019075
:1029700001200290002003900220049001A9314818
:10298000FEF774FC4FF20710019001200290002026
:1029900003900220049001A92B48FEF767FC4FF436
:1029A00000400190294802900020039001A9254889
:1029B000FEF75CFC0820019025480290002003905F
:1029C00001A92148FEF752FC302001901F480290D7
:1029D0000020039001A91C48FEF748FC4FF400704A
:1029E000019001200290002003900320049001A98F
:1029F0001548FEF73BFC002206210920FEF782FF66
:102A00000920FEF76FFF002207210A20FEF77AFF58
:102A10000A20FEF767FF002207211720FEF772FF4A
:102A20001720FEF75FFF002206212820FEF76AFF2D
:102A30002820FEF757FF05B000BD0000001002403F
:102A40000010014000080140000C0140000021106E
:102A50000000311010B50B480B4908606420486035
:102A6000002109488160C1604FF48041016100216B
:102A700041618161C1610162FEF79CFD08B1FDF712
:102A80009CFC10BD00540040B400002010B50B4861
:102A90000B4908604FF4E13048600021084881602C
:102AA000C16001610C21416100218161C161FFF7B9
:102AB00081FC08B1FDF781FC10BD00000038014029
:102AC0000801002010B50B480B4908604FF4E130B5
:102AD0004860002108488160C16001610C214161AA
:102AE00000218161C161FFF765FC08B1FDF765FC5C
:102AF00010BD0000004400405001002010B50B48FC
:102B00000B4908604FF4E1304860002108488160BB
:102B1000C16001610C21416100218161C161FFF748
:102B200049FC08B1FDF749FC10BD00000048004019
:102B30009801002000BFFEE700BFFEE708B5084986
:102B40000968C9084FF47A72B1FBF2F14143009170
:102B500000BF00BF00994A1E00920029F9D108BDAC
:102B60002400002001F0A0FF02F0FCFF01F008FEAD
:102B700000BF012002F058FB0A4A92F8721392F843
:102B8000700302F0F7FB074A92F8761392F8740389
:102B900002F000FC034A92F87A1392F8780302F0EC
:102BA00009FCE6E7284100200448FDF773FC00BF5C
:102BB000012002F039FBFDF729FCF9E708010020AC
:102BC00002F07EF800BF012002F02EFB5B4890F877
:102BD0003E0300F0010050B9584890F83E03C0F39E
:102BE000C01020B94421554880F834140FE05348F0
:102BF00090F83E0300F0010048B9504890F83E03B9
:102C0000C0F3401018B958214C4880F8341401F032
:102C1000E7FF4A4890F83E0300F00100A8B9474892
:102C2000B0F83E03C0F3402078B9444890F8AA03B6
:102C300078B9424890F87D0380F001013F4880F860
:102C40007D13012180F8AA1303E000213B4880F89E
:102C5000AA133A4890F87C03012863D1374890F8CA
:102C6000B20301281CD1354890F8C603012859D178
:102C70003248B0F872030F280EDD3049B1F8720304
:102C8000C11700EB5171CA102C49B1F87213891A9F
:102C90008AB22A49A1F87223502002F0C5FA41E015
:102CA000264890F8C60301283CD12448B0F87203A6
:102CB000282826DD2148D0F8CC03B4280ED11F489F
:102CC000B0F87203072190FBF1F11C48B0F87203D1
:102CD000401A81B21948A0F8721312E01748D0F8D0
:102CE000CC035A280DD11548B0F87203052190FB8A
:102CF000F1F11248B0F87203401A81B20F48A0F8FF
:102D000072130E48D0F8CC03B42803D1822002F00D
:102D10008BFA07E00948D0F8CC035A2802D15F208B
:102D200002F082FA054890F87C0300287FF44BAF4C
:102D300002F0E4F801F054FD45E7000028410020CE
:102D400003F01EF800BF012002F06EFAFE4890F872
:102D50003E03C0F3C00080B9FB4890F8A90380B9D6
:102D6000F94890F87C0380F00100F74981F87C0372
:102D70000121F54880F8A91303E00021F24880F80A
:102D8000A913F14890F87C030128DCD1EF480078C2
:102D900038B90122EE49EF48FFF708FC0120EB4962
:102DA0000870E94890F8E203012871D1E64890F8EC
:102DB000800328B902F036FF0121E34880F8801330
:102DC000E14890F88003012824D1DF4890F8E4031B
:102DD00001281FD102F026FE5A21012001F0B6FE83
:102DE000022002F01FFE5A21022001F0AFFE02F085
:102DF000E9FDDC220021012003F098FC052002F00F
:102E000013FADC220121022003F090FC0221CE48BB
:102E100080F88013CC4890F8F903012812D1CA48F1
:102E200090F80D0401280DD1C74890F8C80348B99F
:102E30000121C54880F8C813642002F0F5F900208C
:102E400001F016FAC04890F8F90301289DD1BE4858
:102E500090F80D04012898D1BB4890F8210401286E
:102E600093D1B94890F8C80348B90121B64880F811
:102E7000C813642002F0D8F9002001F0F9F902210A
:102E8000B14880F8E213002180F881135BE7FFE787
:102E9000AD4890F8E203022830D1AB4890F88103A6
:102EA00028B902F0EBFE0121A74880F881136120C8
:102EB000A9490870142002F0D9FDA34890F80E0427
:102EC0000128E3D1A04890F8FA030128DED19E48FA
:102ED00090F8C8030028D9D101219B4880F8C81375
:102EE000642002F0A1F9002001F0C2F90321964804
:102EF00080F8E213002180F8821324E7924890F8CA
:102F0000E20303280BD1904890F882030028BDD13A
:102F100002F0DCFE01218C4880F8821313E78A4816
:102F200090F8E203042860D1874890F8830328B919
:102F300001F0F0FB4FF4167002F076F9824890F839
:102F4000830350B9804890F82304012805D102F08A
:102F5000D1FE01217C4880F883137B4890F8E80378
:102F600001280AD1784890F88303012805D102F09E
:102F7000D5FE0221744880F88313734890F8FC034F
:102F8000012817D1704890F81004012812D16E481A
:102F900090F8C80370B96C4890F88303022809D1EF
:102FA0000121694880F8C813642002F03DF900202F
:102FB00001F05EF9644890F8E80302289DD1624868
:102FC00090F88303022809D102F090FD03215E48A6
:102FD00080F883134FF4967002F026F942205E4980
:102FE0000870142002F042FDADE6574890F8E20365
:102FF00005282BD1544890F8840348B901F08AFB86
:103000004FF4FA7002F010F901214F4880F8841350
:103010004D4890F88403012806D1FA2001F094FB72
:103020000221494880F88413474890F82504012874
:10303000DAD1454890F884030228D5D106214248C8
:1030400080F8E213002180F885137CE63E4890F872
:10305000E203062839D13C4890F8850328B902F0EC
:1030600077FE0121384880F88513374890F8260408
:10307000012815D1344890F88503032810D0632027
:10308000354908701E2002F0F1FC2F4890F88503A6
:10309000012801D102F08AFC02212B4880F8851317
:1030A000294890F8850302289ED12C4801F0B0F8F9
:1030B000012899D1244991F8DA03642101F0C0FE76
:1030C0000321214880F885133DE61F4890F8E2036C
:1030D00007287CD11C4890F8860350B91A4890F80C
:1030E0003C0430B9FA2001F02FFB0121164880F88A
:1030F0003C14154890F8860328BB134890F83C040C
:10310000022836D1322002F08FF80F4890F83404AC
:10311000442808D10021012001F078FA002105207F
:1031200001F074FA0CE0084890F83404582807D1EC
:103130000021032001F06AFA0021072001F066FA5D
:103140004FF4C8700CE014E028410020A8000020D3
:10315000A200002098010020A30000200000A04051
:1031600002F062F80121FE4880F88613032180F8FE
:103170003C14FB4890F88603012811D1F84890F8D8
:103180003C0403280CD1F64991F8D903962101F0AB
:1031900057FE502002F048F80421F14880F83C1412
:1031A000EF4890F8860301280AD1ED4890F83C04D6
:1031B000042805D14E20EB4908700F2002F056FC80
:1031C000E74890F8860301280CD1E54800E03DE08F
:1031D00090F89B03022805D102F010FE0221E0487E
:1031E00080F88613DE4890F8FF03012817D1DC48E9
:1031F00090F81304012812D1D94890F886030228C8
:103200000DD1D74890F8C80348B90121D44880F8B7
:10321000C813642002F008F8012001F029F8D04812
:1032200090F8C80301287FF431AECD4890F88603AA
:103230000228F8D1CA4890F827040128F3D1642065
:10324000C8490870142002F011FC7CE5C44890F8CD
:10325000E20308287ED1C24890F8870350B9C048DD
:1032600090F83D0430B9FA2001F06EFA0121BC4813
:1032700080F83D14BA4890F8870368BBB84890F8C6
:103280003D04022828D1322001F0CEFFB44890F846
:103290003404442808D10021022001F0B7F90021AC
:1032A000082001F0B3F90CE0AD4890F83404582838
:1032B00007D10021042001F0A9F90021062001F026
:1032C000A5F94FF4C87001F0AFFF0121A44880F8C0
:1032D0008713032180F83D14A14890F88703012843
:1032E0000ED19F4890F83D04032809D19C4991F8DC
:1032F000D903962101F0A4FD0421994880F83D14DA
:10330000974890F8870301280AD1954890F83D0422
:10331000042805D14E20934908700F2002F0A6FB27
:103320008F4890F8870301283BD18D4890F89C0383
:10333000022836D102F046FB894890F8340444282C
:1033400014D15A21012001F001FCB421022001F026
:10335000FDFB00E059E0FA220121084603F0E6F9FE
:10336000FA220121022003F093F916E07C4890F83C
:103370003404582811D15A21022001F0E7FBB4216E
:10338000012001F0E3FBFA220021022003F0CEF934
:10339000FA220021012003F07BF90221704880F815
:1033A00087136F4890F80004012817D16C4890F8F3
:1033B0001404012812D16A4890F8870302280DD11D
:1033C000674890F8C80348B90121654880F8C813D8
:1033D000642001F029FF012000F04AFF604890F8C6
:1033E000C80301287FF452AD5D4890F88703022896
:1033F000F8D15B4890F828040128F3D16520594999
:103400000870142002F032FB9DE4554890F8E20366
:1034100009287DD1524890F8880350B9504890F857
:103420003E0430B9FA2001F08FF901214C4880F8B0
:103430003E144B4890F8880368BB494890F83E0416
:10344000022828D1322001F0EFFE454890F83404DC
:10345000442808D10021032001F0D8F800210620DB
:1034600001F0D4F80CE03E4890F83404582807D115
:103470000021022001F0CAF80021052001F0C6F861
:103480004FF4C87001F0D0FE0121354880F8881350
:10349000032180F83E14324890F8880301280ED1A9
:1034A0002F4890F83E04032809D12D4991F8D903FB
:1034B000962101F0C5FC0421294880F83E142848D3
:1034C00090F8880301280AD1254890F83E04042882
:1034D00005D14E20234908700F2002F0C7FA20487A
:1034E00090F88803012833D11D4890F89D030228E5
:1034F0002ED102F067FA5A21012001F027FB5A2150
:10350000022001F023FB164890F83404442800E020
:1035100058E00AD1FA220121084603F007F9FA22FD
:103520000121022003F002F90EE00D4890F8340466
:10353000582809D1FA220021012003F0F7F8FA22D5
:103540000021022003F0F2F80221054880F88813D8
:10355000034890F8010401281DD1014804E000004F
:1035600028410020A300002090F81504012812D162
:10357000FE4890F8880302280DD1FC4890F8C80353
:1035800048B90121F94880F8C813642001F04CFEC5
:10359000012000F06DFEF54890F8C80301287FF483
:1035A00075ACF24890F888030228F8D1EF4890F8FB
:1035B00029040128F3D16620ED490870142002F097
:1035C00055FA63E4E94890F8E2030A2865D1E74830
:1035D00090F8890350B9E54890F83F0430B9FA20D3
:1035E00001F0B2F80121E14880F83F14DF4890F87B
:1035F000890368BBDD4890F83F04022828D13220B7
:1036000001F012FED94890F83404442808D1002172
:10361000042000F0FBFF0021072000F0F7FF0CE082
:10362000D24890F83404582807D10021012000F036
:10363000EDFF0021082000F0E9FF4FF4967001F043
:10364000F3FD0121C94880F88913032180F83F1454
:10365000C64890F8890301280AD1C44890F83F046D
:10366000032805D14E20C24908700F2002F0FEF950
:10367000BE4890F889030128A3D1BC4890F89E0366
:1036800002289ED10221B94880F889130B2180F8C5
:10369000E213002180F88A132FE4B44890F8E20383
:1036A0000B287CD1B14890F88A0368B9B1480078FA
:1036B00050B902F0CFFA02F019FA0121AB4880F8B4
:1036C0008A130120AB490870A84890F82B04012800
:1036D0002DD1A64890F88A03012828D14FF4C8704C
:1036E00001F0A2FDA14890F83404442808D101213A
:1036F000032000F08BFF0121062000F087FF0CE083
:103700009A4890F83404582807D10121022000F08B
:103710007DFF0121052000F079FF4FF4C87001F012
:1037200083FD02F0A1FA0221904880F88A138F48A5
:1037300090F82B04022812D18C4890F88A030228B2
:103740000DD102F05BFB822001F06EFD02F082FAE7
:103750000120894908700321844880F88A1386482B
:103760000078012805D15E2081490870142002F0FC
:103770007DF97E4890F80304012819D17B4890F820
:103780001704012814D1794890F88A0303280FD12F
:10379000764890F8C80358B90121744800E0EFE07A
:1037A00080F8C813642001F03FFD012000F060FDA7
:1037B0006E4890F80304012845D16C4890F817042E
:1037C000012840D1694890F82B0403283BD1674871
:1037D00090F88A03032836D1644890F8C80348B9A2
:1037E0000121624880F8C813642001F01DFD01200A
:1037F00000F03EFD4FF4487001F016FD5B4890F874
:103800003404442808D10121042000F0FFFE0121E6
:10381000052000F0FBFE0CE0544890F834045828D2
:1038200007D10121032000F0F1FE0121082000F062
:10383000EDFE4FF4967001F0F7FC02F015FA04214A
:103840004A4880F88A13494890F88A0304282FD1FF
:10385000464890F82B0404282AD1444890F83404B0
:1038600044280BD102F0C2F8B421012001F06EF916
:10387000FA220121084602F00BFF0FE03B4890F8C6
:10388000340458280AD102F0BFF8B421022001F014
:103890005DF9FA220021022002F0FAFE01203749E8
:1038A00008700521314880F88A13642001F0BCFCBF
:1038B00032480078012803D030480078022805D12A
:1038C00026202B490870142002F0D0F8274890F8E1
:1038D0008A0305287FF4B9AC244890F834044428BE
:1038E00013D1224890F80304022826D11F4890F8EB
:1038F000C80310BB01211D4880F8C813642001F0E3
:1039000093FC012000F062FD17E0184890F83404A1
:10391000582812D1154890F8170402280DD11348E1
:1039200090F8C80348B90121104880F8C8136420F2
:1039300001F07AFC012000F097FD0C4890F82B0470
:103940000528C7D1094890F8C8030128C2D1074803
:1039500090F88A030528BDD1642001F065FC67203A
:1039600003490870142002F081F86EE42841002019
:10397000A3000020A5000020A4000020AA00002031
:10398000904890F8E2030C287ED18E4890F88B0383
:1039900050B98C4890F8410430B9FA2000F0D4FEB8
:1039A0000121884880F84114864890F88B0368BB51
:1039B000844890F84104022828D1322001F034FCD8
:1039C000804890F83404442808D10021032000F0F6
:1039D0001DFE0021062000F019FE0CE0794890F849
:1039E0003404582807D10021022000F00FFE0021E6
:1039F000052000F00BFE4FF4C87001F015FC032108
:103A0000704880F84114012180F88B136D4890F8BC
:103A10008B0301280ED16B4890F84104032809D18B
:103A2000684991F8D903642101F00AFA0421654834
:103A300080F84114634890F88B0301280AD161484B
:103A400090F84104042805D14E205F4908700F20EA
:103A500002F00CF85B4890F88B03012833D15948E9
:103A600090F8A00302282ED101F0ACFF5A210120CA
:103A700001F06CF85A21022001F068F8514890F8E2
:103A8000340444280CD100E051E0FA220121084618
:103A900002F04CFEFA220021022002F047FE0EE066
:103AA000484890F83404582809D1FA2201210846E0
:103AB00002F03CFEFA220021022002F037FE022131
:103AC000404880F88B133F4890F80404012817D130
:103AD0003C4890F81804012812D13A4890F88B031A
:103AE00002280DD1374890F8C80348B9012135485C
:103AF00080F8C813642001F097FB012000F0B8FBA8
:103B0000304890F8C80301287FF47EAC2D4890F827
:103B10008B030228F8D12B4890F82C040428F3D109
:103B2000682029490870142001F0A0FF6CE42548A2
:103B300090F8E2030D28F9D1224890F88C0350B98F
:103B4000204890F8420430B9FA2000F0FDFD012130
:103B50001C4880F842141B4890F88C0330BB19486D
:103B600090F84204022821D1322001F05DFB154873
:103B700090F83404442808D10021042000F046FDC8
:103B80000021052000F042FD0CE00E4890F83404BE
:103B9000582807D10021032000F038FD002108201B
:103BA00000F034FD0121074880F88C13054890F897
:103BB0008C030128BAD1362003490870142001F083
:103BC00055FF21E428410020A300002000BF012070
:103BD00001F02AFB204890F87C030128F7D11E4809
:103BE00090F8E2032D280DD101F080FF01F074FF61
:103BF00001F04AF900F08AFF012001F04FF902209C
:103C000001F04CF9144890F8E20301280DD1124854
:103C100090F8E503012808D101F068FFA5210E48BE
:103C2000A0F87A13022180F8E5130C4800780128E7
:103C3000CDD1642001F0F8FA00F06CFD4FF4C870AB
:103C400001F0F2FA044991F8D903962101F0F8F84D
:103C5000022002490870BAE728410020AA0000208B
:103C600000BF012001F0E0FA344890F87C030128FD
:103C7000F7D1324890F8B30301281CD12F4890F8AF
:103C8000C7030128EDD12D48B0F876030F280EDDCB
:103C90002A49B1F87603C11700EB5171CA102749C0
:103CA000B1F87613891A8AB22449A1F876235020F4
:103CB00001F0BAFAD5E7214890F8C7030128D0D11E
:103CC0001E48B0F87603282826DD1C48D0F8D0031B
:103CD000B4280ED11948B0F87603072190FBF1F112
:103CE0001648B0F87603401A81B21448A0F876134B
:103CF00012E01248D0F8D0035A280DD10F48B0F87E
:103D00007603052190FBF1F10C48B0F87603401AD8
:103D100081B20A48A0F876130848D0F8D003B42836
:103D200003D1822001F080FA9BE70448D0F8D00349
:103D30005A2896D15F2001F077FA92E728410020B7
:103D400010B5FDF759FD02F067FB012801D002F024
:103D5000BBFA10BD00B58FB0282105A8FCF7B2FA58
:103D600014216846FCF7AEFA012005900004069085
:103D7000002007900120099002200C90C1030D91B2
:103D80004FF4E0110E9105A8FDF754FF08B1FCF7C0
:103D900014FB0F20009002200190002002904FF4AD
:103DA000806003900020049002216846FDF71EFE0B
:103DB00008B1FCF702FB0FB000BD704770B50546B7
:103DC0006C6A0020E085E0842046FEF780F970BD33
:103DD00000BF00BF02680C3252E8002F22F490713D
:103DE00002680C3242E80013002BF3D100BF00BF81
:103DF00000BF0268143252E8002F22F0010102686D
:103E0000143242E80013002BF3D100BF016B0129EB
:103E10000ED100BF00BF02680C3252E8002F22F022
:103E2000100102680C3242E80013002BF3D100BFEE
:103E3000202180F8421000210163704710B504462C
:103E40002068C06820F040002168C860202084F805
:103E500041002046FEF71FFD002010BDF8B50446C6
:103E600094F84200222875D1A068B0F5805F0CD18B
:103E7000206950B90025A66A20684068C0F3080090
:103E80003080A06A801CA06215E0A56A0026A068A8
:103E9000B0F5805F03D0A06828B9206918B9206800
:103EA0004068287004E02068406800F07F002870B7
:103EB000A06A401CA062E08D401E80B2E085002810
:103EC00046D12068C06820F020002168C8602068C2
:103ED000C06820F480702168C8602068406920F0C4
:103EE000010021684861202084F8420000206063BE
:103EF000206B012826D10020206300BF00BF21686D
:103F00000C3151E8001F21F0100021680C3141E80C
:103F10000002002AF3D100BF2068006800F0100002
:103F200010280AD100BF002000902068006800908F
:103F300020684068009000BF00BFA18D2046FEF7BA
:103F4000C5F802E02046FEF747FB0020F8BD01E07F
:103F50000020FBE70220F9E770B5044621680969F3
:103F600021F44051E2681143226811612269A1687D
:103F70001143626941EA02052168C96841F20C6295
:103F8000914329432268D1602168496921F4407135
:103F9000A2691143226851612D4A2168914202D1E0
:103FA000FDF700FE01E0FDF7EDFD00EBC00101EBC8
:103FB000001162689200B1FBF2F100EBC00202EB6B
:103FC000001263689B00B2FBF3F26423B2FBF3F2CE
:103FD00002EBC20303EB0212A1EB8201322202EBDD
:103FE00001116422B1FBF2F101F0F00100EBC0021B
:103FF00002EB001263689B00B2FBF3F26423B2FB96
:10400000F3F201EB021200EBC00101EB0011636857
:104010009B00B1FBF3F100EBC00303EB00136668F8
:10402000B600B3FBF6F36426B3FBF6F303EBC3066B
:1040300006EB0313A1EB8301322303EB011164238D
:10404000B1FBF3F101F00F0111442268916070BDE2
:104050000038014010B5034699629A85DA85002040
:104060005864222083F84200186928B11868C06893
:1040700040F480701C68E0601868406940F00100FE
:104080001C6860611868C06840F020001C68E0602F
:10409000002010BD014691F84100212828D18868F0
:1040A000B0F5805F0BD1086948B90A6A1088C0F37F
:1040B00008000B685860086A801C086205E00B6AFB
:1040C000581C086218780B685860C88C401E80B273
:1040D000C88458B90868C06820F080000B68D860B0
:1040E0000868C06840F040000B68D8600020704746
:1040F0000220FCE72DE9F04104460D46174698469C
:10410000069E34E0701C88B32EB1FDF74DFAA0EB8B
:104110000800B0422BD900BF00BF21680C3151E824
:10412000001F21F4D07021680C3141E80002002A00
:10413000F3D100BF00BF00BF2168143151E8001F58
:1041400021F001002168143141E80002002AF3D176
:1041500000BF202084F8410084F8420000BF002006
:1041600084F8400000BF0320BDE8F081FFE720682D
:1041700000682840A84201D1012000E00020B84298
:10418000C0D00020F0E7000010B50248FDF7A0FF06
:1041900010BD00000801002010B50248FDF798FF8F
:1041A00010BD00009801002000BFFEE70248006833
:1041B000C0F30220704700000CED00E010B50028AD
:1041C00004DB0A07130E054A135406E00A07140E0F
:1041D000034A00F00F031B1FD45410BD00E400E09D
:1041E00018ED00E070B504460849204602F066FB71
:1041F0000646304602F046FB05464FF08040406AD6
:10420000A84201D9012070BD0020FCE700409C4578
:1042100070B504460849204602F050FB0646304679
:1042200002F030FB054605480068A84201D901208C
:1042300070BD0020FCE7000000409C45242C01409C
:1042400070B504460849204602F038FB0646304661
:1042500002F018FB054605480068A84201D9012074
:1042600070BD0020FCE7000000409C452404004095
:104270002DE9F04704463CB93225AA4619261927EC
:104280004FF02308C14609E0012C07D13225AA4688
:10429000242624274FF019084FF019091021484807
:1042A000FDF774F901280CD10121464880F8B313B9
:1042B0000021A0F8C013A0F8C4A33946022002F0E0
:1042C00083FA20213E48FDF761F901280CD1012134
:1042D0003C4880F8B2130021A0F8BE13A0F8C253E6
:1042E0003146012002F070FA364890F8E2030528C2
:1042F00005D14D2034490870142001F0B7FB1BE0B4
:104300000A2000F091FF2F48B0F8BE03401C81B294
:104310002C48A0F8BE13B0F8C003401C81B2294855
:10432000A0F8C01390F8E203052805D14D202649D6
:104330000870142001F09AFB2248B0F8C013B0F8BE
:10434000C4038142DCDB1F48B0F8BE13B0F8C203DF
:104350008142D5DB1B4890F8B20301280ED101F051
:1043600061FB184890F8B00320B94146012002F0E3
:1043700051FA03E04146012002F068FA114890F832
:10438000B30301280FD1022001F04CFB0D4890F837
:10439000B10320B94946022002F03CFA03E0494645
:1043A000022002F053FA00BF064890F8B203012839
:1043B000FAD0044890F8B3030128F5D0BDE8F0879F
:1043C000000C014028410020A30000202DE9F0410D
:1043D00004461CB932251926232704E0012C02D1FA
:1043E00032252426192720211D48FDF7CFF8012862
:1043F0000CD101211B4880F8B2130021A0F8BE1394
:10440000A0F8C2533146012002F0DEF90AE00A208A
:1044100000F00AFF1348B0F8BE03401C81B21148F7
:10442000A0F8BE130F48B0F8BE13B0F8C203814223
:10443000EDDB0C4890F8B20301280ED101F0F2FA3E
:10444000084890F8B00320B93946012002F0E2F99B
:1044500003E03946012002F0F9F9BDE8F0810000DF
:10446000000C0140284100202DE9F04104461CB910
:1044700032251926232704E0012C02D132252426D7
:10448000192710211D48FDF781F801280CD10121C1
:104490001B4880F8B3130021A0F8C013A0F8C45340
:1044A0003146022002F090F90AE00A2000F0BCFE3A
:1044B0001348B0F8C003401C81B21148A0F8C013E3
:1044C0000F48B0F8C013B0F8C4038142EDDB0C48CC
:1044D00090F8B30301280FD1022001F0A3FA084895
:1044E00090F8B10320B93946022002F093F903E0B5
:1044F0003946022002F0AAF9BDE8F081000C014023
:10450000284100200F48806940F400600D4988610F
:104510004FF6FE700C49086043F63F00091F086023
:1045200009481838006840F0010007491839086048
:1045300005482C38006840F0010003492C39086018
:1045400070470000001002402C2C01400B48C0694D
:1045500040F001000949C8614FF6FE708904C86245
:1045600043F63F0088620846406940F00100486118
:104570000846006840F001000860704700100240E3
:104580000F48C06940F002000D49C8614FF6FE7047
:104590000C49086043F63F00091F086009481838B5
:1045A000006840F0010007491839086005482C38B8
:1045B000006840F0010003492C3908607047000092
:1045C000001002402C0400400E48C06940F0040076
:1045D0000C49C86140F2CF700B4908604720091FA1
:1045E000086009481838006840F001000649183989
:1045F000086005482C38006840F0010002492C3959
:1046000008607047001002402C08004070B5044656
:104610000D46012D39D13C480155012C04D1002211
:1046200002213A48FCF7BAFF022C04D101221146BC
:104630003648FCF7B3FF032C04D101220421334890
:10464000FCF7ACFF042C04D1012211022F48FCF727
:10465000A5FF052C04D1012280212D48FCF79EFFE7
:10466000062C04D1002220212948FCF797FF072CB3
:1046700004D1002210212648FCF790FF082C04D119
:10468000002240212248FCF789FF002D3AD1002169
:104690001D480155012C04D1012202211B48FCF7C1
:1046A0007DFF022C04D1002201211848FCF776FF7F
:1046B000032C04D1002204211448FCF76FFF042CC2
:1046C00004D10022A1011148FCF768FF052C04D198
:1046D000002280210E48FCF761FF062C04D1012244
:1046E00020210B48FCF75AFF072C04D1012210218E
:1046F0000748FCF753FF082C04D10122402104484D
:10470000FCF74CFF70BD000072450020000C01401A
:104710000008014010B5012251030248FCF73EFF9A
:1047200010BD0000000C014008E00021054A1160A6
:1047300000BF044909680029FBD0401E0028F4D1BD
:10474000704700002408004010B504460A4800687D
:1047500000F4004058B101F079F90021074880F8D1
:10476000931380F87E13204600F026F802E0002024
:1047700000F022F810BD0000080801402841002088
:1047800000200C4981F8700300210A48A0F8721338
:104790000020084981F8740300210648A0F8761328
:1047A0000020044981F8780300210248A0F87A1318
:1047B00070470000284100200021034A82F8781346
:1047C0001146A1F87A0370472841002010B5012254
:1047D000D1030248FCF7E2FE10BD0000000C0140CE
:1047E00010B5A648B0F83E03C0F3C02010BBA348E4
:1047F000B0F83E03C0F38020E0B9A1480078E0B9EA
:10480000A048007818B901209E49087002E00020F5
:104810009C4908709B48007810B901F067F905E0E1
:1048200098480078012801D1FFF774FF01209449CE
:10483000087002E00020924908709048D0F84003C8
:10484000C0F3405010BB8D48D0F84003C0F3804007
:10485000E0B98D480078E0B98C48007818B901209B
:104860008A49087002E0002088490870874800786B
:1048700010B9FFF7ABFF05E084480078012801D1AB
:1048800000F002FB01208049087002E000207E4910
:1048900008707A48D0F84003C0F3405010BB774806
:1048A000D0F84003C0F34040E0B979480078E0B95F
:1048B0007848007818B901207649087002E0002095
:1048C000744908707348007810B900F00DFB05E0DA
:1048D00070480078012801D100F018F901206C49D6
:1048E000087002E000206A4908706448D0F840036C
:1048F000C0F3405010BB6148D0F84003C0F3C04043
:10490000E0B965480078E0B96448007818B901203A
:104910006249087002E00020604908705F48007832
:1049200010B901F0D9F805E05C480078012801D100
:1049300001F0C8F801205849087002E000205649EB
:1049400008704E4890F85C04012807D1FA2000F066
:104950006DFA0121494880F8621428E0474890F830
:104960005D04012818D14E48006800F4004038B1B9
:10497000FA20FFF721FF0121404880F8621416E079
:104980003E4890F8620418B90020FFF715FF0EE0CA
:10499000032000F0C5F80AE0384890F8630418B91D
:1049A0000020FFF709FF02E0032000F0B9F83348C8
:1049B00090F85E04012807D1962101F047FF0121FC
:1049C0002E4880F8631418E02C4890F85F04012802
:1049D00007D1962101F01EFF0121284880F86314B9
:1049E0000BE0264890F8630420B90021012001F073
:1049F0002DFF02E0012000F093F8204890F86004B9
:104A0000012808D19621022001F020FF01211B4836
:104A100080F8641419E0194890F86104012808D15D
:104A20009621022001F0F6FE0121144880F864145A
:104A30000BE0124890F8640420B90021022001F034
:104A400005FF02E0022000F06BF8012412E0154897
:104A5000005D012806D113499639085D0121FFF751
:104A6000D5FD05E00F499639085D0021FFF7CEFD21
:104A7000601CC4B2092CEADB10BD000028410020F4
:104A8000AD000020AC000020B3000020B2000020E8
:104A9000B1000020B0000020AF000020AE000020D8
:104AA000080801407245002000B5FFF72BFDFFF715
:104AB0004DFDFFF765FDFFF787FD00BD10B504460E
:104AC000012C0FD101210846FFF7A0FD0121032091
:104AD000FFF79CFD01210520FFF798FD012107202C
:104AE000FFF794FD022C0FD101210220FFF78EFD6C
:104AF00001210420FFF78AFD01210620FFF786FD32
:104B000001210820FFF782FD10BD000010B5002232
:104B10004FF480410148FCF741FD10BD000C0140FD
:104B2000012803D101220849A1F87223022803D1E8
:104B300001220549A1F87623032803D10122024965
:104B4000A1F87A237047000028410020012806D1EF
:104B50000123074A82F8C633C2F8CC1307E00228C3
:104B600005D10123024A82F8C733C2F8D013704737
:104B70002841002000B5134890F8DD03114981F861
:104B8000D40300F063FF0F48B0F9D61390F8DD03AB
:104B9000814207DA01210B4880F87E131E2000F0C5
:104BA00045F90DE00748B0F9D61390F8DD038142CE
:104BB00006DD0021034880F87E131E20FFF7FCFD70
:104BC00000BD00002841002000B50021034880F806
:104BD00093132820FFF7F0FD00BD000028410020BE
:104BE00010B53348B0F83E03C0F3C020002859D1B7
:104BF0002F4890F83E0300F00100002852D12C48C5
:104C000090F8A803002851D10021294880F8AB135F
:104C100090F87C03274908700220254981F87C031D
:104C20002548006800F0200020B90021012001F093
:104C30000DFE03E01421012001F008FE052000F024
:104C4000F3FA1D48006800F0100020B9002102208E
:104C500001F0FCFD03E01421022001F0F7FD052026
:104C600000F0E2FA1548006800F4004038B1002175
:104C70000F4880F893132820FFF79EFD02E00020E4
:104C8000FFF79AFD0D48006800F4004028B9FFF7CF
:104C900071FF0121064880F8AB130121044880F818
:104CA000A81303E00021024880F8A81310BD0000FB
:104CB00028410020AB000020080C014008080140FA
:104CC000012005E000220E490A5409310A54401C13
:104CD0000928F7DB00210B4880F85E1480F8601487
:104CE00080F85F1480F8611480F85C1480F85D141B
:104CF00080F8621480F8631480F864147047000030
:104D00007245002028410020AAB0FCF781FDFFF782
:104D100021F8FDF7C3FDFDF79DFEFDF7B7FEFDF79A
:104D2000D1FEFDF7EBFEFBF7D9FB00210120FFF7D9
:104D30006DFC00210220FFF769FC00210320FFF732
:104D400065FC00210420FFF761FC00210520FFF72E
:104D50005DFC00210620FFF759FC00210720FFF72A
:104D600055FC00210820FFF751FC1C22244923A8F0
:104D7000FBF776FA002123A800F067FA21490860C2
:104D80001C221F491C311CA8FBF76AFA00211CA831
:104D900000F05BFA1C4908601C221949383115A83B
:104DA000FBF75EFA002115A800F04FFA17490860DA
:104DB0001C22134954310EA8FBF752FA00210EA809
:104DC00000F043FA124908601C220D49703107A80F
:104DD000FBF746FA002107A800F037FA0D490860F2
:104DE0001C2207498C316846FBF73AFA00216846D5
:104DF00000F02BFA0849086000F022FA00BFFEE735
:104E0000546A000800000020040000200800002070
:104E10000C0000201000002014000020014600209B
:104E2000842901D0CA1C1044704700000121034AA4
:104E300082F878131146A1F87A03704728410020C0
:104E400070B504460D460F4880F8D44300F0FEFDCF
:104E50000C48B0F9D603A04207DA0121094880F8CE
:104E60007E132846FFF7E2FF0BE00648B0F9D603B1
:104E7000A04206DD0021034880F87E132846FFF794
:104E80009BFC70BD2841002010B500224FF400416A
:104E90000148FCF783FB10BD000C014010B504462F
:104EA000022C0ED10021FFF7B1FB00210420FFF7F7
:104EB000ADFB00210620FFF7A9FB00210820FFF72A
:104EC000A5FB012C0FD100210120FFF79FFB002142
:104ED0000320FFF79BFB00210520FFF797FB002134
:104EE0000720FFF793FB10BD10B501229103024884
:104EF000FCF754FB10BD0000000C0140C948D0F87D
:104F00004003C0F3005060B9C648D0F84003C0F376
:104F1000C04030B90121C34880F85C1480F87E138A
:104F200003E00021BF4880F85C14BE48D0F840037D
:104F3000C0F3005068B9BB48D0F84003C0F38040CC
:104F400038B90121B74880F85D14002180F87E133C
:104F500003E00021B34880F85D14B248D0F8400364
:104F6000C0F3404050B9AF48D0F84003C0F3004010
:104F700020B90121AB4880F85E1407E0A94890F8F9
:104F80007D0318B90021A74880F85E14A548D0F821
:104F90004003C0F3404050B9A248D0F84003C0F3EA
:104FA000C05020B901219F4880F85F1407E09D4858
:104FB00090F87D0318B900219A4880F85F14994849
:104FC000D0F84003C0F3805050B99648D0F8400361
:104FD000C0F3004020B90121924880F8601407E036
:104FE000904890F87D0318B900218E4880F860142D
:104FF0008C48D0F84003C0F3805050B98948D0F8AD
:105000004003C0F3C05020B90121864880F86114E4
:1050100007E0844890F87D0318B90021814880F8A2
:1050200061148048B0F83E03C0F3C020A8B97D48A1
:10503000D0F84003C0F3405078B97A4890F854044F
:1050400078B9784890F84B0480F00101754880F8F1
:105050004B14012180F8541403E00021714880F8BA
:1050600054147048B0F83E03C0F3C020A8B96D488E
:10507000D0F84003C0F3005078B96A4890F855045E
:1050800078B9684890F84C0480F00101654880F8D0
:105090004C14012180F8551403E00021614880F888
:1050A00055146048B0F83E03C0F3C020A8B95D486D
:1050B000D0F84003C0F3805078B95A4890F85604AD
:1050C00078B9584890F84D0480F00101554880F8AF
:1050D0004D14012180F8561403E00021514880F856
:1050E00056145048B0F83E03C0F3C020A8B94D484C
:1050F000D0F84003C0F3C04078B94A4890F857044C
:1051000078B9484890F84E0480F00101454880F88D
:105110004E14012180F8571403E00021414880F823
:1051200057144048B0F83E03C0F3C020A8B93D482A
:10513000D0F84003C0F3404078B93A4890F858049A
:1051400078B9384890F84F0480F00101354880F86C
:105150004F14012180F8581403E00021314880F8F1
:1051600058143048B0F83E03C0F3C020A8B92D4809
:10517000D0F84003C0F3C05078B92A4890F85904D9
:1051800078B9284890F8500480F00101254880F84B
:105190005014012180F8591403E00021214880F8BF
:1051A00059142048B0F83E03C0F3C020A8B91D48E8
:1051B000D0F84003C0F3804078B91A4890F85A04F8
:1051C00078B9184890F8510480F00101154880F82A
:1051D0005114012180F85A1403E00021114880F88D
:1051E0005A141048B0F83E03C0F3C020A8B90D48C7
:1051F000D0F84003C0F3004078B90A4890F85B0447
:1052000078B9084890F8520480F00101054880F808
:105210005214012180F85B1403E00021014880F85A
:105220005B1470472841002070B5044625460DB137
:10523000294600E00121084600F0F6FE002070BD7E
:1052400010B500F01FFF002010BD7FB504460D46CD
:10525000606998B1A06988B1B4F90800FFF7DEFD74
:105260000646D4E90510CDE9006102902B4622697B
:10527000D4E9001001F074F8039013E0B4F90800C9
:10528000FFF7CCFD064603A8CDE90060238A9AB259
:105290002B46D4E9001001F031F8012802D000209B
:1052A00004B070BD0398FBE710B52C4890F82403B8
:1052B000462806D101202A49087000202949087093
:1052C00045E027480078002841D0244890F824136E
:1052D000244802780078401C224B187022488154E0
:1052E00018460078062832DB1F4801781B4880F8F2
:1052F0003E131D484178194880F83F131A488178B9
:10530000164880F844131848C178144880F84313AD
:1053100015480179114880F84213134841790F4824
:1053200080F841130020194608700D4908700121CA
:105330000A4880F8351301F07FF80849C1F83803AE
:10534000084690F83F03F52801D1FCF72DFB012218
:10535000064907480068FDF729F910BD28410020DB
:10536000990000209A0000209B0000204C4400205F
:105370009400002070B504460D46012101EBC411D4
:10538000C8B200F069FB284600F066FBFF2000F081
:1053900063FB70BD70B504460D46022101EBC411DC
:1053A000C8B200F059FB284600F056FBFF2000F081
:1053B00053FB70BD70B504460D46032101EBC411CB
:1053C000C8B200F049FB284600F046FBFF2000F081
:1053D00043FB70BD2DE9F04105460E461C480768A9
:1053E0001C480068001D00F022FD50B919480068F3
:1053F00090F82C100120884017490968814316480D
:105400000160681C38B936B112480168091D13489B
:1054100000F058FD1AE07C190E4800684460BC4258
:1054200007D20C480168091D0D48006800F030FDE6
:105430000CE008480168091D0A48006800F028FDD2
:1054400009480068844201D207480460BDE8F08141
:105450003C00002028000020400000201005002013
:10546000300000202C0000205800002010B5044619
:1054700000F034FD23480068401C2249086022489F
:10548000006840B9204804600846006801280DD132
:1054900000F03AF90AE01D48006838B91A48006877
:1054A000C06AE16A884201D8174804601848006859
:1054B000401C1749086094F82C10012088401549B9
:1054C0000968084313490860E16A01EB8101124A47
:1054D00002EB8100211D00F0F5FC00F029FD0B48D6
:1054E000006868B108480068C06AE16A884207D26B
:1054F0004FF0805009490860BFF34F8FBFF36F8FA3
:1055000010BD0000380000202800002044000020CA
:1055100054000020400000203404002004ED00E08E
:1055200010B516E000F0DAFC0C48C068C468201D15
:1055300000F07DFC0A480068401E094908600948DF
:105540000068401E0749086000F0F2FC204600F0A9
:105550000BF8044800680028E4D110BDFC040020CA
:10556000380000203400002010B5044694F85100A3
:1055700030B9206B00F0FAFC204600F0F7FC1AE08E
:1055800094F85100012803D1204600F0EFFC12E00E
:1055900094F85100022801D1012000E0002050B908
:1055A00000BF502080F31188BFF34F8FBFF36F8F80
:1055B00000BF00BFFEE710BD30B54FF47053174871
:1055C00000F007042CB1C01D20F00700134C041B91
:1055D0001B1B0246124C22600024114D6C60D01837
:1055E000083820F007000F4C206000240D4D2D6876
:1055F0006C600C4D2D682C601146441A4C60094CAF
:1056000024680C60084D4C682C60084D4C682C6078
:105610004FF00044064D2C6030BD000024050020F2
:10562000640000206C000020740000207000002046
:105630007800002000BFFFF773FF064800680128CC
:10564000F9D94FF0805004490860BFF34F8FBFF382
:105650006F8FF0E73404002004ED00E02DE9FF5FD8
:1056600081460F469246DDE90E6B109CAAF10100BF
:10567000216B01EB800828F0070808F0070008B943
:10568000012000E0002050B900BF502080F31188B5
:10569000BFF34F8FBFF36F8F00BF00BFFEE7002542
:1056A00007E0795D04F134004155785D00B902E00E
:1056B0006D1C102DF5D300BF002143200155072E8E
:1056C00000D30626E66266640020A064201D00F078
:1056D000DCFB04F1180000F0D8FB2461C6F10700E0
:1056E000A06164620020E06484F8500049464046AE
:1056F000039A00F049F92060BBF1000F01D0CBF80C
:105700000040BDE8FF9F000010B5002407E004EB57
:1057100084010F4A02EB810000F0AAFB641C072CF5
:10572000F5D30C4800F0A4FB0B4800F0A1FB0B489C
:1057300000F09EFB0A4800F09BFB0A4800F098FB33
:1057400004480949086004480849086010BD000081
:1057500034040020C0040020D4040020E804002009
:10576000FC040020100500202C0000203000002048
:1057700010B50146164800E0006803688B42FBD371
:105780000246436813448B4204D143684C68234467
:10579000436001460A464B6813440468A34211D192
:1057A0000C4C03682468A34208D04B680468646802
:1057B00023444B6003681B680B6005E0054B1B68C6
:1057C0000B6001E003680B60884200D0016010BDEF
:1057D000640000206C0000200A490968096809B9C2
:1057E000012100E0002121B14FF0FF31064A116094
:1057F00006E004490968C968C868034A416811603D
:10580000704700002C000020580000200E4800685F
:10581000401C08B9012000E0002050B900BF502012
:1058200080F31188BFF34F8FBFF36F8F00BF00BFAE
:10583000FEE700BF502080F31188BFF34F8FBFF306
:105840006F8F00BF00BFFEE77C0000202DE9F04114
:1058500004464FF0000800F06DFC4648006808B9A7
:10586000FFF7AAFE44480068204000286BD1D4B15D
:10587000083404F00700B0B104F00700C0F10800DC
:10588000044404F0070008B9012000E0002050B9EA
:1058900000BF502080F31188BFF34F8FBFF36F8F8D
:1058A00000BF00BFFEE7002C4DD0344800688442A2
:1058B00049D8334E3046056801E02E462D686868A9
:1058C000A04202D228680028F7D12A480068854201
:1058D00039D0306800F10808286830606868001B1B
:1058E000102819D92F1907F0070008B9012000E086
:1058F000002050B900BF502080F31188BFF34F8FB4
:10590000BFF36F8F00BF00BFFEE76868001B7860C1
:105910006C603846FFF72CFF184968680968081A58
:10592000164908600846006816490968884203D28B
:1059300012480068134908600F49686809680843FD
:1059400068600020286000F021FE08F0070008B918
:10595000012000E0002050B900BF502080F31188E2
:10596000BFF34F8FBFF36F8F00BF00BFFEE740460E
:10597000BDE8F0816C00002078000020700000205D
:105980006400002074000020001F4FF0807303604B
:10599000001F21F001030360001F034B0360143854
:1059A00002602038704700000D58000800200149AF
:1059B00008607047242C01400020014908607047AE
:1059C000240400400021084880F8C813A0F8C2133E
:1059D000A0F8C413A0F8BE13A0F8C01380F8B21347
:1059E00080F8B313704700002841002000210548CB
:1059F00080F8C813A0F8C213A0F8BE1380F8B21341
:105A000070470000284100200021054880F8C81395
:105A1000A0F8C413A0F8C01380F8B31370470000B7
:105A200028410020012806D10022074981F8C62319
:105A3000C1F8CC2307E0022805D10022024981F8F1
:105A4000C723C1F8D02370472841002000204FF021
:105A5000804148627047000001B514230122694665
:105A60000148FCF7BFFE08BD5001002010B50446F8
:105A70001048007810490978884202D00F4880F811
:105A8000C9430D4800780B4908700C4890F8C903C9
:105A900001280DDD1423012207490948FCF7A2FE65
:105AA000064890F8C903401EC1B2044880F8C913E3
:105AB00010BD0000A7000020A30000202841002006
:105AC0009801002010B5012211020248FBF766FD83
:105AD00010BD00000008014010B500224FF4807195
